:020000040800F2
:10000000180A0024390300088B3A000871350008EB
:10001000893A000839060008E1480008000000009D
:10002000000000000000000000000000D13C0008BB
:100030003B060008000000008D3A0008D33C000891
:100040005303000853030008530300085303000838
:100050005303000853030008530300085303000828
:100060005303000853030008530300085303000818
:100070005303000853030008530300085303000808
:1000800053030008530300085303000853030008F8
:1000900053030008530300085303000853030008E8
:1000A00053030008530300085303000853030008D8
:1000B00053030008530300085303000853030008C8
:1000C00053030008530300085303000853030008B8
:1000D00053030008530300085303000853030008A8
:1000E00053030008530300080000000053030008F6
:1000F0005303000853030008530300085303000888
:100100005303000853030008530300085303000877
:100110005303000853030008530300085303000867
:100120005303000853030008530300085303000857
:100130005303000853030008530300085303000847
:1001400000000000000000000000000000000000AF
:100150005303000853030008530300085303000827
:100160005303000853030008530300085303000817
:100170005303000853030008530300080000000065
:1001800053030008530300085303000853030008F7
:1001900053030008530300085303000853030008E7
:1001A00053030008530300085303000853030008D7
:1001B00053030008530300085303000853030008C7
:1001C00053030008530300085303000853030008B7
:1001D00053030008530300085303000853030008A7
:1001E0005303000853030008530300085303000897
:1001F0005303000853030008530300085303000887
:100200005303000853030008530300085303000876
:100210005303000853030008530300085303000866
:1002200053030008530300085303000800000000B4
:1002300053030008530300080000000053030008A4
:100240005303000853030008530300085303000836
:100250005303000853030008530300085303000826
:100260005303000853030008530300085303000816
:100270005303000853030008530300080000000064
:100280005303000853030008530300080000000054
:10029000000000005303000800F002F800F03CF8F2
:1002A0000AA090E8000C82448344AAF10107DA45D1
:1002B00001D100F031F8AFF2090EBAE80F0013F0E7
:1002C000010F18BFFB1A43F00103184768470000ED
:1002D00088470000103A24BF78C878C1FAD852077E
:1002E00024BF30C830C144BF04680C6070470000B0
:1002F0000023002400250026103A28BF78C1FBD82F
:10030000520728BF30C148BF0B6070471FB504F0CB
:100310006FFB1FBD10B510BD00F0CFF81146FFF701
:10032000F5FF04F0EFFA00F0EDF803B4FFF7F2FF89
:1003300003BC00F0F5F80000094880470948004771
:10034000FEE7FEE7FEE7FEE7FEE7FEE7FEE7FEE785
:10035000FEE7FEE704480549054A064B70470000E2
:10036000B53D00089902000818040024180A00246A
:10037000180600241806002453EA020C00F06980D5
:100380002DE9F04B4FF00006002B1FBFB3FA83F5A9
:1003900003FA05F424FA05F65E4012BF1643B2FADA
:1003A00082F502FA05F4C5F120051EBF22FA05FC0C
:1003B00044EA0C04203556EA044C4FEA144418BFB2
:1003C000641C4FF000084FF00009904271EB030CE1
:1003D00039D3002919BFB1FA81F701FA07F6B0FA4B
:1003E00080F700FA07F6C7F120071EBF20FA07FCC6
:1003F00046EA0C062037B6FBF4FCA7EB0507103FD6
:1004000007F01F0BCBF120060CFA0BFB2CFA06F6BB
:1004100044BFB3460026202FA4BF5E464FF0000B1A
:100420005BEA060C08BF4FF0010B19EB0B09ABFBA5
:10043000027C48EB0608C01B06FB02CC0BFB03CC7E
:1004400071EB0C01C1E70B46024641464846BDE848
:10045000F08B13B54FF000004FF00001AFF30080B8
:10046000BDE81C4070474FF0000200B513469446AB
:100470009646203922BFA0E80C50A0E80C50B1F1FC
:100480002001BFF4F7AF090728BFA0E80C5048BF10
:100490000CC05DF804EB890028BF40F8042B08BFAE
:1004A000704748BF20F8022B11F0804F18BF00F8AA
:1004B000012B7047704770477047754600F02CF865
:1004C000AE4605006946534620F00700854618B041
:1004D00020B5FFF73FFFBDE820404FF000064FF08A
:1004E00000074FF000084FF0000B21F00701AC4669
:1004F000ACE8C009ACE8C009ACE8C009ACE8C00988
:100500008D46704710B50446AFF300802046BDE825
:100510001040FFF70ABF000000487047B8030024EE
:1005200001491820ABBEFEE726000200704700001C
:1005300070B53A4905460068884202D0384A904270
:1005400002D1D1F8080302E03648D0F8080310F4CD
:10055000403F11D002F084F804466868B0F5803F4F
:1005600006D0B0F5003F03D0B0F5403F27D101E001
:10057000000C18E0A40822E000214FF4002001F054
:1005800007F9044668688103890B18D181140C2986
:1005900015D2DFE801F0140606060606060B0D0F5D
:1005A0001113800C4000B4FBF0F408E0240906E0CD
:1005B000640904E0A40902E0E40900E0240A00F070
:1005C000DBFC41F20301884208D8174884422868BE
:1005D000816813D821F48071816070BD134960086F
:1005E000884204D82868816821F44071F4E71049F2
:1005F000884206D82868816821F4407141F48071EE
:10060000EAE70C4988422868816804D821F44071DF
:1006100041F40071E0E741F44071DDE70020024061
:100620000021024000600258002D3101105E5F0081
:1006300020BCBE0040787D01FEE7704772B6FEE741
:100640002DE9F84F4FF0000B0D46E54F0446CDF86D
:1006500000B0D94690F85010DFF888A3012907D0E0
:10066000012684F85060206802F087FF18B168E125
:100670000220BDE8F88F286800280DDB21680303FD
:10068000CA6927D090FAA0F0B0FA80F000F01F00FD
:1006900006FA00F00243CA61D5E900124FF00C0CD3
:1006A00020681F23C1F384610CEA921C02F01F0230
:1006B000604493409140026B9A430A43026320686E
:1006C00002F05BFF8046206802F053FF58EA00000A
:1006D00003D07FE0C0F38460D8E72068AA68296867
:1006E00002F04FFFC0480068B6EB107F06D12168CA
:1006F0006869C968C1F38201490008E02068C168DF
:10070000C906C1686869F5D501F01001490888403B
:10071000296904292ED023682A6803EB810102F09D
:10072000F8420B6E024303F0004010430866697EF6
:1007300022682869012917D05FF0000102EB8000D0
:10074000026E22F000420A430266297E20682A696E
:1007500001290CD00021036902F01F02914023F40B
:10076000F0420A43026135E04FF00041E6E74FF402
:100770000061F0E720682978026E02F0F842B2EBDF
:10078000816F03D1016E21F0004101662068297854
:10079000426E02F0F842B2EB816F03D1416E21F05C
:1007A0000041416620682978826E02F0F842B2EB7F
:1007B000816F03D1816E21F0004181662068297824
:1007C000C26E02F0F842B2EB816F03D1C16E21F02C
:1007D0000041C1662068816811F0010F76D150F8A0
:1007E000C02F95F80CC0814B29680CF0180823FA2B
:1007F00008F3C1F3130C0B4022EA0C021A43026007
:100800007B48E968814277D1286801031BD090FAC0
:10081000A0F1B1FA81F1491C01F01F0109294FEA49
:10082000003131D8002911D090FAA0F1B1FA81F14C
:1008300001F1010101F01F0106FA01F609D100BF23
:10084000C0F3846109E0C0F38461E4E7C0F384612C
:10085000EEE790FAA0F1B1FA81F101F1010101F0A6
:100860001F0146EA816102D1C0F3846003E090FA7F
:10087000A0F0B0FA80F000F1010000F01F0000EBE2
:10088000400041EA005133E000290ED090FAA0F177
:10089000B1FA81F101F1010101F01F0106FA01F63F
:1008A00006D100BFC0F3846106E0C0F38461F1E7C4
:1008B00090FAA0F1B1FA81F101F1010101F01F01FB
:1008C00046EA816103D1C0F3846004E03FE090FA1E
:1008D000A0F0B0FA80F0474A00F1010000F01F00DC
:1008E00000EB400002EB005041EA000141F00071D2
:1008F000AA68206802F045FE2E68002E27DA3E4ADC
:1009000020683E49DFF8F8C0904201D0B84201D1DA
:100910000B4600E063469B68904203F0E07301D011
:10092000B84209D19568D7F8088005F0010508F0AC
:10093000010845EA080503E0DAF8085005F001056A
:100940004DB1616D4FF0010941F0200060654846EE
:1009500084F850B08DE62B4DAE421CD11D021AD446
:100960005045F4D1904202D0B84200D061468A6826
:1009700043F4000022F0E07202438A6023492248D7
:100980000968B1FBF0F04000801C00E0401E0090C0
:100990000028FBD1DBE71E4DAE420CD1DD010AD4AD
:1009A0005045D4D1904202D0B84200D061468A6806
:1009B00043F080700EE0174DAE42C8D15D02C6D440
:1009C0005045C4D1904202D0B84200D061468A68F6
:1009D00043F4800022F0E07202438A60B7E700002F
:1009E00000210240006002580010005CFFFF0F0071
:1009F0000000FF47000020FE0020024000230240CC
:100A000000630258000084CB400D03000C0000245A
:100A1000000052C70000B8CFF8B54FF00006040040
:100A20003546009602D0606D10B107E00120F8BD98
:100A3000204600F005F9A66584F8506020688168BA
:100A4000C1F3407119B18168704A1140816020681A
:100A50008168C1F3007181B981686D4A114041F02C
:100A6000805181606C496B480968B1FBF0F0401C13
:100A700000E0401E00900028FBD120688168C1F38F
:100A8000007141B9616D012541F010016165A16DF1
:100A900041F00101A16502F070FD616DC90600D44D
:100AA00020B1606D012540F0100093E0606D20F4EE
:100AB000807040F0020060652068816811F0010FCD
:100AC0001FD1564A564B904201D0984207D19168A7
:100AD0009E6801F0010106F00106314303E051492F
:100AE000896801F0010161B9904201D0984201D1B9
:100AF0004D4800E04D488268616822F47C120A4348
:100B0000826000F039FA41F20301884202D9A068FC
:100B100010280CD0617D227FA368206B490341EA35
:100B2000024118430843217F01290CD010E0607D69
:100B3000227F216B400340EA024241F01000104343
:100B400040F00C00EFE7218C394A02EB41410843A9
:100B5000616A29B1A26A01F47871014342EA010095
:100B60002168344BCA681A400243CA60206802F008
:100B700004FD0646206802F0FCFC30431DD12168CC
:100B800044F20303267DE26AC86842EA863298434B
:100B90001043C86094F8380001281ED0206801690D
:100BA00021F0010101612068626B016921F070414F
:100BB000114301612046FFF7BBFCE0680128206873
:100BC0001CD0016B21F00F010163606D20F0020069
:100BD00040F0010060652846F8BD2068A28F164FDE
:100BE000D4E9101C154E07EB0247A36C026941EAD9
:100BF0000C013B43324019431143D3E7A269016B17
:100C0000521E21F00F011143DEE70000C0FFFF5F1D
:100C1000C0FFFF7F400D03000C00002400200240B5
:100C20000021024000600258002302400063025885
:100C30000000FEFF03C0F0FF0100FFFF1EF800FCF4
:100C400070B5B6B00446142130A8FFF70CFCC021E3
:100C50006846FFF708FC2C492068884251D10225DC
:100C600081220021CDE9032520230595CDE90651F8
:100C70004FF40020089109910C4629918DE80B0052
:100C8000684600F0E9FE08B1FFF7D8FC1F4801688C
:100C900041F020010160006800F0200035901B4801
:100CA0000830016841F004010160016801F00401AD
:100CB0003591016841F001010160016801F0010115
:100CC0003591016841F0020101600068032630A9F6
:100CD000329400F0020035901320CDE930060C4824
:100CE00000F02EF84C203294CDE93006094830A9A6
:100CF00000F026F8309530A90748CDE9316400F0BE
:100D00001FF836B070BD000000210240D8440258E0
:100D100000080258000002580004025870B504464A
:100D200000F030F90546601C02D004480078044405
:100D300000F028F9401BA042FAD370BD0000002447
:100D40002DE9F84F03247D4D00234FF001094FF0AA
:100D5000B04B4FF00F0AE9E009FA03F73A4076D0BA
:100D60000E7906F00306012E01D0022E18D1D0F81C
:100D700008C04FEA430ECE6804FA0EF82CEA080CBD
:100D800006FA0EF646EA0C068660D0F804C00E7924
:100D90002CEA070CC6F300169E4046EA0C06466095
:100DA0000E79F643B6070BD0C6684FEA43088F6842
:100DB00004FA08FC26EA0C0607FA08F73743C7606E
:100DC0000E7906F00306022E12D1DE080F694FEAF3
:100DD000437C00EB8606B646366A4FEADC6C0AFABC
:100DE0000CF807FA0CF726EA08063743CEF820700D
:100DF0000F7906684FEA430807F0030704FA08FC76
:100E000007FA08F726EA0C06374307604E6816F41F
:100E1000403F1CD04A4E376847F0020737603668BB
:100E20009F0706F00206009623F0030606F1B0467F
:100E3000B6463F0FD6F80864DFF808810AFA07FCC7
:100E4000404526EA0C0603D14FF0000C41E06CE06F
:100E5000DFF8F4C0604502D14FF0010C39E0DFF853
:100E6000ECC0604502D14FF0020C32E0DFF8E0C088
:100E7000604502D14FF0030C2BE0DFF8D8C060458D
:100E800002D14FF0040C24E0DFF8CCC0604502D161
:100E90004FF0050C1DE0DFF8C4C0604502D14FF0F3
:100EA000060C16E0DFF8B8C0604502D14FF0070C21
:100EB0000FE0DFF8B0C0604502D14FF0080C08E049
:100EC000DFF8A4C0604502D14FF0090C01E04FF0FB
:100ED0000A0C0CFA07FC4CEA060CCEF808C44F6862
:100EE000DBF80060FF0226EA020600D516435F46E3
:100EF000CBF80060D1F804C0DBF804605FEA8C2C0A
:100F000026EA020600D516437E606E684F6826EA20
:100F10000206BF0300D516436E602E684F6826EAAE
:100F20000206FF0300D516432E605B1C0A6832FAE6
:100F300003F67FF411AFBDE8F88F00008000005881
:100F4000F4440258000002580004025800080258F5
:100F5000000C0258001002580014025800180258E1
:100F6000001C025800200258002402580AB1816176
:100F700070470904FBE7000001480068000C704757
:100F80000010005C014880687047000000000024E9
:100F900030B590F84120202A24D190F84020012A31
:100FA00020D0012380F84030242280F841202023E3
:100FB00000240268156825F00105156002681568AF
:100FC00025F480551560026815680D4315600168A9
:100FD0000A6842F001020A6080F8413080F840401F
:100FE000002030BD022030BD30B590F84120202ACD
:100FF00022D190F84020012A1ED0012380F84030F1
:10100000242280F84120202400250268136823F060
:10101000010313600268136823F4706343EA01213B
:10102000116001680A6842F001020A6080F84140DC
:1010300080F84050002030BD022030BD70B5040063
:1010400004D094F84100002510B106E0012070BDE5
:10105000204684F8405000F051F8242084F84100E4
:101060002068016821F001010160D4E9001020F03E
:10107000706008612068816821F400418160E06847
:1010800021680128A06830D040F404408860E068FE
:101090000228206841682BD021F40061416020685B
:1010A0002021154A4368134343602068C26822F434
:1010B0000042C26054F8106B0DCC104340EA03208C
:1010C000F06054F81C3CD4E900021043186054F856
:1010D0001C0D026842F001020260656484F8411050
:1010E000256384F84250002070BD40F40040CDE7F5
:1010F00041F40061D2E700000080000210B5B6B0F4
:101100000446142130A8FFF7AEF9C0216846FFF766
:10111000AAF91849206888422AD100202190082184
:101120000446CDE90010684600F096FC08B1FFF7D0
:1011300085FA1148016841F002010160006830AB96
:10114000122100F002003590C020042283E8130031
:101150000A4830A9CDE93342FFF7F2FD06480830CE
:10116000016841F400110160006800F4001035903E
:1011700036B010BD00540040E0440258000402584C
:1011800002488168027811448160704700000024A1
:10119000032010B500F0C6F801F0A8FA0F4A104974
:1011A00014681368C4F3032203F00F038A5CC95C5C
:1011B00002F01F0201F01F01D0400A4A20FA01F19B
:1011C0001160094908600F2000F010F808B10120F3
:1011D00010BD00F079F8002010BD0000184402583E
:1011E000224A0008100000240C00002470B50D4DA8
:1011F00004462878A0B14FF47A71B1FBF0F00A49A7
:101200000968B1FBF0F001F0CEFD48B9102C07D20F
:1012100000222146501E00F065F800206C6070BD71
:10122000012070BD000000240C000024154BF0B517
:10123000083B427813491A600B680A1F23F0010328
:101240000B6043681360057BC67A827A437B2D0767
:10125000847B45EA0665C77B90F809C0067A90F85A
:1012600000E045EAC24040EA834040EA444040EAA8
:10127000074040EA0C2040EA460040EA0E000860C1
:10128000F0BD0000A0ED00E0BFF35F8F0448002137
:101290000368034A23F4803303607032116070479F
:1012A00024ED00E0074A40F001000649703210606A
:1012B000086840F480300860BFF34F8FBFF36F8F32
:1012C0007047000024ED00E0054808B5016841F0D2
:1012D00002010160006800F00200009008BD0000FB
:1012E000F44402580E4BF0B41B680D46C3F30223BE
:1012F000C3F10706042E00D90426191D072901D2BF
:10130000002300E0DB1E012404FA06F19C40491E84
:101310002940641E994014402143F0BC03F0E1BA17
:101320000CED00E0064900F0070210B54FF6FF048F
:101330000868044B204040EA02201843086010BDB2
:101340000CED00E00000FA05134970B50A68D243BD
:10135000520705D5096801F00701814213D118E051
:101360000A6822F0070202430A60FFF70BFE0A4DEB
:101370004FF47A760446083D07E000BFFFF702FE0F
:10138000001BB04201D9012070BD2868C043800411
:10139000F4D4002070BD00000C48025810B501F0D4
:1013A0005FF905490968054AC1F30211515C01F072
:1013B0001F01C84010BD000020440258224A000806
:1013C0004A4930B5494C0B1D0A680C3409681D6840
:1013D000246802F0030305F00102C1F30511C4F310
:1013E000CC04002914FB02F200EE102AF8EE400AA9
:1013F00076D0414A9FED3E1ADFED3E1AB7EE000A65
:1014000023B1012B5AD0022B18D15CE0374C283C79
:1014100023689B0612D5394B246801EE901A116897
:10142000C4F3C104F8EE612AE34001EE903AC1F33F
:101430000801F8EE611A81EEA22A07E002EE101A06
:101440001168F8EE422A81EEA22A45E001EE901AD8
:101450001168F8EE611A40EE811A71EE800A62EEB0
:10146000200AC1F3462101EE101AB8EE411A31EEFE
:10147000001AC0EE811ABCEEE11A80ED001A116864
:10148000C1F3064101EE101AB8EE411A31EE001A0E
:10149000C0EE811ABCEEE11A80ED011A1168C1F3A9
:1014A000066101EE101AB8EE411A31EE000A80EE24
:1014B000801ABCEEC10A80ED020A30BD01EE901A1E
:1014C000DFED0F2A03E001EE901ADFED0E2A11681E
:1014D000F8EE611A82EEA12AC1F30801B6E7FFE730
:1014E000002101604160816030BD00002844025845
:1014F000000000390024744C304402580090D0039E
:101500000024744A001B374C494930B5484C0B1D28
:101510000A68143409681D68246802F00303C5F3DF
:101520000012C1F30531C4F3CC04002914FB02F20C
:1015300000EE102AF8EE400A75D03F4A9FED3D1AA2
:10154000B7EE000A6BB1DFED3D1A012B01D0022B83
:1015500064D002EE101A1168F8EE422A81EEA22A37
:1015600021E0334C283C23689B0612D5344B246879
:1015700001EE901A1168C4F3C104F8EE612AE34049
:1015800001EE903AC1F30801F8EE611A81EEA22A49
:101590000BE001EE901ADFED2B2A00BFF8EE611A86
:1015A000116882EEA12AC1F3080101EE901A1168B8
:1015B000F8EE611A40EE811A71EE800A62EE200A9E
:1015C000C1F3462101EE101AB8EE411A31EE001AAD
:1015D000C0EE811ABCEEE11A80ED001A1168C1F369
:1015E000064101EE101AB8EE411A31EE001AC0EEB3
:1015F000811ABCEEE11A80ED011A1168C1F306618F
:1016000001EE101AB8EE411A31EE000A80EE801A8F
:10161000BCEEC10A80ED020A30BD04E001EE901A72
:10162000DFED092ABAE70021016041608160F3E73C
:101630002844025800000039384402580024744AF3
:101640000090D0030024744C001B374C494930B53E
:10165000484C0B1D0A681C3409681D68246802F098
:101660000303C5F30022C1F30551C4F3CC040029E0
:1016700014FB02F200EE102AF8EE400A75D03F4A41
:101680009FED3D1AB7EE000A6BB1DFED3D1A012B5D
:1016900001D0022B64D002EE101A1168F8EE422A33
:1016A00081EEA22A21E0334C283C23689B0612D508
:1016B000344B246801EE901A1168C4F3C104F8EEAB
:1016C000612AE34001EE903AC1F30801F8EE611A95
:1016D00081EEA22A0BE001EE901ADFED2B2A00BF6B
:1016E000F8EE611A116882EEA12AC1F3080101EE39
:1016F000901A1168F8EE611A40EE811A71EE800AB4
:1017000062EE200AC1F3462101EE101AB8EE411A2A
:1017100031EE001AC0EE811ABCEEE11A80ED001A1B
:101720001168C1F3064101EE101AB8EE411A31EE0C
:10173000001AC0EE811ABCEEE11A80ED011A1168A0
:10174000C1F3066101EE101AB8EE411A31EE000A3B
:1017500080EE801ABCEEC10A80ED020A30BD04E0C2
:1017600001EE901ADFED092ABAE70021016041601D
:101770008160F3E7284402580000003940440258D1
:101780000024744A0090D0030024744C001B374C92
:101790002DE9F04FAC4A0546DFF8A8A280F480702E
:1017A000DFF8AC9289B01311AA4C0843A748AAF1FC
:1017B00004064FF0805C4FF000582CD085F4007781
:1017C0000F4357D0DFF87CB285F480670F430BF1ED
:1017D000080B61D085F400670F4374D085F48057FF
:1017E0000F436ED085F400570F434FF480394FF408
:1017F000003E67D085F400270F4371D085F4803711
:101800000F436ED085F480460E436BD085F40042C2
:101810000A4368D02AE0DAF8001001F00701052930
:1018200024D2DFE801F075BC7D25B10006A8FFF7E2
:10183000C7FD079809B0BDE8F08F6846FFF764FE62
:101840000098F7E703A8FFF701FF0398F2E7206885
:10185000C0F3C10022FA00F0ECE72268D20571D58E
:1018600061456FD11846E5E74145E3D00020E1E747
:101870004846DFE7DAF8001001F4E07180294FD024
:1018800004DC002944D04029F0D188E0C029EFD001
:10189000B1F5807FEAD177E0DBF8001001F4600158
:1018A000B1F5800F3CD004DC91B3B1F5001FDDD160
:1018B00075E0B1F5C00FDBD0B1F5000FD6D163E014
:1018C00001E018E030E0DBF8001001F0E061B1F178
:1018D000007F25D008DCD9B1B1F1807FC6D15EE0B0
:1018E00049E06CE079E09CE0B1F1407FC0D0B1F11B
:1018F000806FBBD148E0DAF8001001F4E041B1F5A7
:10190000005F0DD005DC19B1B1F5805FAED146E0C6
:1019100094E0B1F5405FABD0B1F5804FA6D133E094
:1019200020688000A2D58DE7DAF8001001F4E021EC
:10193000B1F5403F6CD006DC61B149457AD07145C4
:1019400094D157E037E0B1F5802F65D0B1F5A02FE5
:101950008CD10CE000F0A6FE6CE76846FFF7D4FDE2
:10196000019867E703A8FFF771FE049862E7216812
:101970008903F1D47AE7DBF8001011F440310ED07E
:10198000494510D07145F5D13168256801F04051C5
:101990006D077FF562AF00297FF45FAF57E72068DE
:1019A0000001E7D549E720688000E3D503A8FFF7E9
:1019B0004DFE05983EE722689203DBD554E7306878
:1019C00010F480303AD04845D4D120680001D1D5F8
:1019D0006846FFF799FD02982CE7DBF8001001F04C
:1019E000E041B1F1405F13D008DC71B1614521D015
:1019F0004145BFD120688000B4D437E7B1F1804FB2
:101A00000AD0B1F1A04FB2D030E7FFF7C7FC11E721
:101A100020684007AED51AE72068C005AAD521E79F
:101A200008E0DAF8001011F04051A0D0614505D06F
:101A300041459FD1206800018FD417E720688001BD
:101A400098D5F3E6504402580090D003006CDC02B5
:101A50000080BB00004402582DE9FE4F0546DFF828
:101A6000E48350F8081B0024F64FC943019005F1A8
:101A70002800264608F12408009008011DD4A86E0D
:101A800050B1B0F5801F0CD0B0F5001F0ED0B0F5EE
:101A9000401F1ED001240FE0386840F40030386049
:101AA00017E00198022101F0F3FF03E00098022102
:101AB00002F07EF804000CD026462888C043C005FA
:101AC00023D4A86D05281ED2DFE800F00C11161BE8
:101AD0001B00AA6ED8F8001021F440111143C8F879
:101AE0000010EAE7386840F40030386009E00198F7
:101AF000002101F0CDFF03E00098002102F058F82A
:101B0000044674B100E0012426462888C0438005BD
:101B100028D4E86D80281ED00CDC90B140280ED16E
:101B200014E0AA6DD8F8001021F007011143C8F89D
:101B30000010EAE7C02813D0B0F5807F10D0012450
:101B40000FE0386840F40030386009E00198002167
:101B500001F09EFF03E00098002102F029F80446FE
:101B60009CB126462888DFF8DC92C04309F12C0995
:101B700040052CD4D5F8A800B0F5800F20D00DDC9E
:101B8000A0B1B0F5001F0FD115E0EA6DD8F8001034
:101B900021F4E0711143C8F80010E3E7B0F5C00F7D
:101BA00013D0B0F5000F10D001240FE0386840F4D6
:101BB0000030386009E00198002101F069FF03E07E
:101BC0000098002101F0F4FF04467CB126462888E5
:101BD000C04300052DD4D5F8AC00B0F1007F21D072
:101BE0000EDCA8B1B0F1807F10D116E0D5F8A820A6
:101BF000D9F8001021F460011143C9F80010E6E79C
:101C0000B0F1407F13D0B0F1806F10D001240FE00D
:101C1000386840F40030386009E00198002101F094
:101C200037FF03E00098002101F0C2FF044674B1C1
:101C300026462868C04380011FD4E86CD8B110281C
:101C40000FD0202812D0302815D0012414E0D5F868
:101C5000AC20D9F8001021F0E0611143C9F8001060
:101C6000E7E7386840F40030386004E0019802216A
:101C700001F00EFF044674B126462888C043C00414
:101C80002BD4286EB0F5005F20D00DDCA0B1B0F5EC
:101C9000805F0FD115E06B48EA6C2030016821F0BD
:101CA000300111430160E8E7B0F5405F13D0B0F5B3
:101CB000804F10D001240FE0386840F400303860C5
:101CC00009E00198002101F0E3FE03E00098002103
:101CD00001F06EFF04468CB126462888C04380047C
:101CE00029D4686EB0F5403F23D010DC08B3B0F5BE
:101CF000803F14D0B0F5003F0FD115E02A6ED8F820
:101D0000001021F4E0411143C8F80010E5E7B0F5F8
:101D1000802F0ED0B0F5A02F0BD001240AE001983F
:101D2000012101F0B5FE03E00098012101F040FF20
:101D3000044694B126462888C04340042AD4D5F8E6
:101D4000B000B0F1405F23D010DC08B3B0F1805F89
:101D500014D0B0F1005F0FD115E06A6ED8F8001012
:101D600021F4E0211143C8F80010E4E7B0F1804FFE
:101D70000ED0B0F1A04F0BD001240AE00198012150
:101D800001F086FE03E00098012101F011FF0446F6
:101D900074B126462888C04300041FD4286FD8B1E8
:101DA000B0F1805F0ED0B0F1005F10D0012414E0DC
:101DB000D5F8B020D9F8001021F0E0411143C9F85E
:101DC0000010E7E7386840F40030386004E001981C
:101DD000012101F05DFE044674B126462868C04327
:101DE000C0011ED4A86CD0B101280ED0022811D099
:101DF000032814D0012413E02A6FD8F8001021F032
:101E000040511143C8F80010E8E7386840F400304A
:101E1000386004E00198022101F03AFE0446ACB1BA
:101E200026462868DFF81CB0C043ABF11C0B40020B
:101E300052D40548016841F480710160FFF7A2F8AF
:101E4000824611E02C44025800480258FA48AA6C15
:101E5000016821F0030111430160E2E7FFF792F806
:101E6000A0EB0A00642835D8F4480068C005F5D511
:101E70008CBBDFF8C4A3B5F8B4100AF1240ADAF871
:101E8000000001F4407100F44070884211D0DAF88B
:101E90000010DAF8002021F4407142F48032CAF8D0
:101EA0000020DAF8002022F48032CAF80020CAF8B4
:101EB0000010D5F8B400B0F5807F1AD1FFF762F8B2
:101EC000029012E0FFF75EF80299411A41F2883061
:101ED00081420AD9032426462878DFF85CA3C04350
:101EE0000AF1080AC00721D03CE0DAF800008007B8
:101EF000E8D5D5F8B410C1F30120032858460DD019
:101F0000016821F47C510160B5F8B420DAF80010C2
:101F1000C2F30B021143CAF80010DDE7C84A036898
:101F200002EA111223F47C511143ECE7E86F182800
:101F300016D005DCA0B1082808D0102804D10AE08A
:101F400020280DD028280BD001240AE00198012177
:101F500001F09EFD03E00098012101F029FE0446F6
:101F600064B126462878C04380071ED4A86F06288F
:101F700019D2DFE800F0160C11161616EA6FDAF81F
:101F8000001021F038011143CAF80010EAE7019867
:101F9000012101F07DFD03E00098012101F008FE20
:101FA00004467CB100E0012426462878C04340075F
:101FB0001FD4D5F89400062819D2DFE800F0160CDB
:101FC00011161616AA6FDAF8001021F00701114356
:101FD000CAF80010E9E70198012101F059FD03E07A
:101FE0000098012101F0E4FD0446A4B100E00124C1
:101FF00026462878C04380062BD4D5F89000B0F14F
:10200000405F24D011DC10B3B0F1805F15D0B0F187
:10201000005F10D116E0D5F89420D9F8001021F017
:1020200007011143C9F80010E3E7B0F1804F0ED06B
:10203000B0F1A04F0BD001240AE00198002101F07B
:1020400027FD03E00098022101F0B2FD044694B19F
:1020500026462878C04340062BD4D5F89C00B0F51E
:10206000406F24D011DC10B3B0F5806F15D0B0F5FF
:10207000006F10D116E0D5F89020DAF8001021F0AA
:10208000E0411143CAF80010E3E7B0F5805F0ED0DD
:10209000B0F5A05F0BD001240AE00198002101F007
:1020A000F7FC03E00098022101F082FD044694B1A0
:1020B00026462878C04300062BD4D5F8A000B0F5FA
:1020C000C04F24D011DC10B3B0F5005F15D0B0F5CF
:1020D000804F10D116E0D5F89C20D9F8001021F4DB
:1020E000E0511143C9F80010E3E7B0F5004F0ED0FE
:1020F000B0F5204F0BD001240AE00198002101F037
:10210000C7FC03E00098022101F052FD044654B1DF
:1021100026462878C04300071ED4D5F88400B0F5C1
:10212000805F0AD00FE0D5F8A020D9F8001021F484
:1021300060411143C9F80010EBE70098022101F05B
:1021400037FD00B10126D5F88420DAF8001021F41B
:1021500040511143CAF800102878C043C00613D478
:10216000D5F89800B0F5807F05D10098022101F0E4
:102170001FFD00B10126D5F89820D9F8001021F4F0
:1021800040711143C9F800102868C043000316D4F9
:10219000D5F8A40038B1B0F5803F09D0B0F5003FC4
:1021A0000BD001240AE00198002101F071FC03E04A
:1021B0000098022101F0FCFC04468CB126462868F8
:1021C000C043400322D4D5F88800B0F5801F11D059
:1021D000B0F5001F13D0B0F5401F15D0012414E056
:1021E000D5F8A420D9F8001021F440311143C9F8E2
:1021F0000010E4E7386840F40030386004E00098EC
:10220000012101F0D5FC04465CB126462868C04394
:10221000C00323D4286DA8B1B0F5803F17D00124A6
:102220001BE0D5F88820DAF8001021F440111143A2
:10223000CAF80010EAE700004C440258004802586F
:10224000CFFFFF00386840F40030386004E00198A8
:10225000022101F01DFC0446E4B126462868C04373
:10226000800005D40098022101F0A2FC00B10126F3
:102270002868C04380031BD4D5F88000B0B1B0F506
:10228000807F0FD0B0F5007F10D0B0F5407F0DD02B
:1022900001240CE05A482A6D016821F48031114371
:1022A0000160DBE7386840F400303860ECB3264664
:1022B0002868C043C00207D46A6FD8F8001021F024
:1022C00000411143C8F800102868C043C00008D47A
:1022D000D5F8B820DBF8001021F480411143CBF889
:1022E00000102868C043800207D4EA6ED8F80010B6
:1022F00021F080711143C8F800102868C0434000E5
:102300000CD4DBF8001021F40041CBF80010DBF80E
:102310000010D5F8BC201143CBF800102868C0434A
:1023200008D437486A6D016800E018E021F0405198
:10233000114301602868C043000208D4D5F88C20FE
:10234000DAF8001021F440011143CAF8001028798E
:102350000024C04300F0010020430AD00FE0D5F86C
:102360008020DAF8001021F440711143CAF80010FF
:102370009EE70198002101F08BFB00B10646287909
:10238000C04300F00200204305D10198012101F073
:102390007FFB00B106462879C04300F004002043CB
:1023A00005D10198022101F073FB00B1064628799E
:1023B000C04300F00800204305D10098002101F03F
:1023C000F7FB00B106462879C04300F01000204317
:1023D00005D10098012101F0EBFB00B106462879F8
:1023E000C04300F02000044304D10098022101F012
:1023F000DFFB00B916B10120BDE8FE8F0020FBE72E
:102400004C4402582DE9F05F04000F467ED0DFF8FF
:102410003882D8F8000000F00F00B8420CD2D8F88B
:10242000001021F00F013943C8F80010D8F800005F
:1024300000F00F00B84269D12078844D40070AD5DA
:102440002069296801F07001884204D9296821F0C7
:1024500070010143296020787C4E361D00070AD5A3
:102460006069316801F07001884204D9316821F057
:102470007001014331602078C0060AD5A069316837
:1024800001F4E061884204D9316821F4E06101433C
:1024900031602078DFF8B4B180060BF1080B0CD561
:1024A000E1695846DBF8002002F07002914204D93D
:1024B000026822F070020A430260207880070AD581
:1024C000E068296801F00F01884204D9296821F0E9
:1024D0000F01014329602078C0073ED05B49A26804
:1024E0002868183920F4706010432860606802285A
:1024F00018D0032819D00968012819D049070029E4
:102500004ADADFF848A1AAF1080A00E044E0DAF864
:10251000002022F007020243CAF80020FEF732FD35
:10252000814612E009688903E9E709688901E6E75D
:10253000C905E4E7FEF726FDA0EB090141F288306A
:10254000814202D90320BDE8F09F6168DAF80000FB
:1025500000F03800B0EBC10FECD1207880070AD52D
:10256000E068296801F00F01884204D2296821F04F
:102570000F0101432960D8F80010404601F00F0117
:10258000B9420BD9016821F00F013943016000689D
:1025900000F00F00B84201D00120D4E720784007B6
:1025A0000AD52069296801F07001884204D229689F
:1025B00021F0700101432960207800070AD5606985
:1025C000316801F07001884204D2316821F0700155
:1025D000014331602078C0060AD5A069316801F452
:1025E000E061884204D2316821F4E0610143316046
:1025F000207880060CD5E1695846DBF8002002F00F
:102600007002914204D2026822F070020A43026012
:1026100000F06CF80E492A682B68C2F3032203F01D
:102620000F038A5CC95C02F01F0201F01F01D04059
:10263000084A20FA01F1116007490860074800685C
:10264000BDE8F05FFEF7D2BD0020005218440258EA
:10265000224A0008100000240C000024040000247A
:1026600030B500F043F80B4A0B490C4B1568146861
:10267000C5F3032204F00F048A5C095D02F01F0217
:1026800001F01F01D040064A20FA01F119601060E4
:10269000084630BD18440258224A000810000024A1
:1026A0000C00002400B5FFF7DBFF05490968054A67
:1026B000C1F30211515C01F01F01C84000BD0000D0
:1026C0001C440258224A000800B5FFF7C9FF05491B
:1026D0000968054AC1F30221515C01F01F01C8409D
:1026E00000BD00001C440258224A0008454970B54C
:1026F00045480968434B103B11F0380208D00111DE
:10270000082A03D0102A0BD0182A0BD0084670BD17
:1027100019688906FBD51968C1F3C101C84070BDAD
:102720003A4870BD3749374D18310C1D24350A68B9
:10273000096826682D6802F0030406F00102C1F35F
:102740000511C5F3CC0515FB02F200EE102AB8EE18
:10275000400AE9B32F4ADFED2E0AB7EE001A6CB13A
:10276000DFED2D1A012C01D0022C43D002EE101AFD
:102770001068F8EE422A81EEA22A1EE01C68A40628
:1027800011D51B6801EE901A1168C3F3C103F8EE6E
:10279000612AD84001EE900AC1F30800F8EE611AF0
:1027A00081EEA22A0BE001EE901ADFED1C2A00BF99
:1027B000F8EE611A106882EEA12AC0F3080001EE5B
:1027C000900AF8EE611A40EE201A31EE810A00E01C
:1027D00015E022EE000A1068C0F34620401C00EE0F
:1027E000900AF8EE600A80EE201ABCEEC10A10EEE4
:1027F000100A70BD01EE901ADFED092AD8E700201B
:1028000070BD0000104402580090D003006CDC0240
:1028100000000039304402580024744A0024744CEB
:10282000001B374C2DE9F05F04007DD0FF4F20786E
:10283000FE4D1837DFF8F493103DC00748D0D9F8A3
:102840000000396800F03800102815D0182803D18E
:1028500001F0030002280FD06068B0F5803F12D06D
:1028600010B1B0F5A02F18D0286820F4803028606F
:10287000286820F4802009E02868800328D5606853
:102880000028D2D024E0286840F4803028606068B6
:1028900088B1FEF777FB064609E0286840F48020FF
:1028A0002860F0E7FEF76EFB801B64286FD828686D
:1028B0008003F7D50CE0FEF765FB064605E000BF98
:1028C000FEF760FB801B6428F0D828688003F7D4EB
:1028D000207841F20308D54E0C3E800769D5D9F81F
:1028E0000000396810F038000ED0182801D1880790
:1028F0000AD0E06890B3296821F0190101432960EA
:10290000FEF740FB824631E02868400702D5E068C8
:1029100000288AD0E168286820F019000843286060
:10292000FEF730FB824607E0DFE000BFFEF72AFB40
:10293000A0EB0A000228B9D828684007F6D500BFE6
:10294000FEF71AFB40451BD82069402812D0316899
:1029500021F47C3141EA003030602AE018E000BF09
:10296000FEF710FBA0EB0A0002289FD8286840075A
:10297000F6D5E5E7306820F47C3040F40030EBE732
:10298000207C316821F0FE4141EA0060E4E70DE17E
:10299000286820F001002860FEF7F4FA824605E07E
:1029A000FEF7F0FAA0EB0A0002288DD8286840074D
:1029B000F6D42078C0065DD5D9F80000DFF86CB2F7
:1029C000396800F03800ABF1040B082810D0182843
:1029D00003D101F0030001280AD0E069002828682B
:1029E00038D040F080002860FEF7CCFA824623E021
:1029F0002868C00523D5E069802876D11FE0206AC9
:102A0000202821D0316821F0F84141EA806030600F
:102A100030E000BF94F82010DBF8002022F07C5258
:102A200042EA0161CBF8001024E000BFFEF7AAFAE9
:102A3000A0EB0A00022898D82868C005F6D5FEF752
:102A40009BFA4045E6D8DAE7306820F0F84040F0DD
:102A50008040DCE720F080002860FEF793FA06460D
:102A600005E000BFFEF78EFA801B02289DD828687B
:102A7000C005F7D42078000729D56C486169643017
:102A800000298046016811D041F001010160FEF784
:102A900079FA064605E000BFFEF774FA801B0228AB
:102AA000C9D8D8F800008007F6D510E021F0010160
:102AB0000160FEF767FA064605E000BFFEF762FA1E
:102AC000801B022872D8D8F800008007F6D420783E
:102AD000800623D5A0690028286810D040F48050D3
:102AE0002860FEF74FFA064605E036E1FEF74AFA9F
:102AF000801B02285AD828688004F7D50EE020F4FD
:102B000080502860FEF73EFA064604E0FEF73AFAE7
:102B1000801B02284AD828688004F7D42078400710
:102B20004FD5DFF80C81D8F8001041F48071C8F857
:102B30000010FEF727FA064605E000BFFEF722FA6E
:102B4000801B642832D8D8F80000C005F6D5374E6F
:102B5000A068603601280AD008B1052813D0306873
:102B600020F001003060306820F0040002E030689E
:102B700040F001003060A06841F2883A90B1FEF761
:102B800001FA80460AE0306840F004003060EEE769
:102B9000FEF7F8F9A0EB0801514507D83068800727
:102BA000F6D50EE0FEF7EEF9804607E084E000BFC0
:102BB000FEF7E8F9A0EB080151457DD830688007A1
:102BC000F6D4606AB0B3DFF86480D9F8001008F179
:102BD00020084FF6F87B08F10409C1F3C20103296C
:102BE000A8F1040A69D00228286820F080702860C3
:102BF00003D0FEF7C7F9044684E0FEF7C3F90646A2
:102C000005E000BFFEF7BEF9801B022877D82868D0
:102C10008001F7D4E26A40F2F331386854F8283F73
:102C2000884340EA02101843386004E01044025818
:102C300000480258B5E0217B434622894FF4FE0C40
:102C4000208A4FF0FE474902267D521E401EA1F504
:102C50000071C2F308088AB2761E0CEA004042EA0C
:102C600008020243504607EA06610A431A60DAF88E
:102C7000002022F00102CAF80020D9F80020266ABC
:102C800022EA0B0242EAC602C9F80020DAF8001074
:102C9000A26921F00C011143CAF800100168E26931
:102CA00021F0020111430160016841F480310160AB
:102CB000016841F4003101E021E027E00160016892
:102CC00041F480210160016841F001010160286840
:102CD00040F080702860FEF755F9044605E000BF1B
:102CE000FEF750F9001B022809D828688001F7D5A3
:102CF00057E000BFFEF746F9001B022802D9032067
:102D0000BDE8F09F28688001F4D44AE039680128C2
:102D1000D8F8000021D0A26A01F0030393421CD12D
:102D2000E26AC1F305118A4217D1216BC0F3080290
:102D3000491E8A4211D1616BC0F34622491E91425D
:102D40000BD1A16BC0F30642491E914205D1E16B44
:102D5000C0F30660491E814201D00120D0E7A16C7A
:102D60004E46D9F80000C0F3CC00814219D0DAF801
:102D70000000554620F00100CAF80000FEF702F9F5
:102D80004FEA0007FEF7FEF8B842FBD0A26C3068AD
:102D900020EA0B0040EAC2003060286840F00100E1
:102DA00028600020ACE7401EB0F1807F10B501D351
:102DB000012010BD4FF0E02460610F21601701F089
:102DC00090FD0020A0610721216110BD2DE9F04395
:102DD00090F83C20012A42D0012280F83C2051F892
:102DE0000C4BDFF880804FF0000991E8680051E952
:102DF000022723F44073B1F80CC03B43CF6923F49E
:102E000080631343026823F40063234323F4805355
:102E100043EA050323F4005343EA060323F4804303
:102E200043EA07030C3923F47023424543EA0C4379
:102E300002D00D4CA2420CD18D8C23F47006D1E946
:102E4000073446EA055121F08071194321F00073DF
:102E50002343536480F83C900020BDE8F0830220B7
:102E6000FBE700000000014000040140F0B590F8CD
:102E70003C20012A3BD01F4E012480F83C40022216
:102E800080F83D2002681C4D5368B242D2F808C059
:102E900001D0AA4203D14F6823F470033B430F686B
:102EA00023F070031F4357600268B24213D0B2F19F
:102EB000804F10D0114B9A420DD0114B9A420AD03C
:102EC000104B9A4207D0AA4205D00F4B9A4202D02B
:102ED0000E4B9A4204D189682CF08003194391600B
:102EE000002180F83D4080F83C100846F0BD0220EB
:102EF000F0BD00000000014000040140000400405B
:102F000000080040000C0040001800400040014054
:102F10002DE9F04104000D4603D094F83D0018B1AE
:102F200008E00120BDE8F081002084F83C00204644
:102F300000F04CF8244A022084F83D0020688168A3
:102F4000114081602068211D00F0A2FF226840F23C
:102F50000336AF6940F60C4C2B684FF2F00EA868B0
:102F600091680B439169B14341EA07210843D5E9D0
:102F7000031720EA0C00D5E9076C20EA0E00D2F80E
:102F800020E03F0140EA062668686D69314347EA60
:102F90000C37936023680F4301219F612EF0AA0232
:102FA00042EA051322681843106284F8481084F836
:102FB0003E1084F83F1084F8441084F8451084F8DB
:102FC0003D100020AEE70000F8BFFEFF70B586B0F0
:102FD000054614216846FDF746FA2A4900242B6865
:102FE0000225284A08392848B3F1804F1ED0274EC1
:102FF000B34219D1136843F008031360126802F05A
:10300000080205920A6842F001020A60096801F0AC
:103010000101059103210091CDE90154CDE903455A
:10302000694600BFFDF78CFE06B070BD136843F023
:1030300001031360126802F0010205920A6842F06F
:1030400001020A600A6802F0010205920A6842F071
:1030500002020A600968012601F002010591F103EC
:103060000091CDE90154CDE903466946FDF768FEBC
:1030700008200090CDE9015405486946CDE9034692
:10308000D0E70000E844025800000258000C00405D
:103090000004025810B586B0044614216846FDF7B6
:1030A000E2F9194A00202368184993424FF00202BE
:1030B00012D10B6843F010030B600968012301F083
:1030C000100105914FF420610091CDE90120CDE977
:1030D00003030F48694612E00E4CA34211D10B685E
:1030E00043F004030B60096801F0040105914021DD
:1030F0000091CDE90120CDE9030207486946FDF7BB
:103100001FFE06B010BD000000000140E044025860
:1031100000100258000400400008025870B5044630
:1031200090F83C0000260D4601280BD0012084F8C1
:103130003C000C2A4AD007DC82B1042A20D0082A9D
:1031400006D131E0022070BD102A53D0142A63D07A
:103150000126002084F83C00304670BD206800F055
:10316000FFFE2068816941F0080181612068816962
:1031700021F00401816120682A698169114311E00D
:10318000206800F03FFF2068816941F4006181619F
:103190002068816921F480618161206829698269E0
:1031A00042EA01218161D4E7206800F077FF2068BE
:1031B000C16941F00801C1612068C16921F00401C1
:1031C000C16120682A69C169114311E0206800F0DB
:1031D000B1FF2068C16941F40061C1612068C16923
:1031E00021F48061C16120682969C26942EA012134
:1031F000C161AEE7206800F0D9FF2068416D41F061
:10320000080141652068416D21F004014165206895
:103210002A69416D114311E0206801F001F820682E
:10322000416D41F4006141652068416D21F4806188
:10323000416520682969426D42EA0121416588E7BC
:1032400010B5040003D094F83D0010B107E0012050
:1032500010BD002084F83C00204600F023F8022036
:1032600084F83D002068211D00F012FE012084F842
:10327000480084F83E0084F83F0084F8400084F859
:10328000410084F8420084F8430084F8440084F844
:10329000450084F8460084F8470084F83D0000208B
:1032A00010BD000008B500680C49884208D10C48E0
:1032B000016841F001010160006800F001000BE0CD
:1032C0000849884209D106480838016841F00201DE
:1032D0000160006800F00200009008BD000001409D
:1032E000F04402580004004030B590F884100129E1
:1032F00018D0012280F884202421C0F888100022F0
:10330000202401680B680D6823F0005325F00105A7
:103310000D60426601680B60C0F8884080F8842028
:10332000104630BD022030BD70B5044690F88400D0
:1033300001281DD0012284F884202420C4F88800AC
:1033400020680568026822F0010202602068826835
:1033500022F060620A438260204600F09BFF2268F0
:10336000202100201560C4F8881084F8840070BD06
:10337000022070BD70B5044690F8840001281DD06D
:10338000012284F884202420C4F88800206805687D
:10339000026822F0010202602068826822F0604226
:1033A0000A438260204600F075FF22682021002039
:1033B0001560C4F8881084F8840070BD022070BDC8
:1033C00010B5040003D0D4F8880010B107E0012044
:1033D00010BD002084F88400204600F027F8242047
:1033E000C4F888002068016821F001010160A06A2A
:1033F00010B1204600F070FF204601F051F801287E
:10340000E6D02068416821F49041416020688168DD
:1034100021F02A0181602068016841F0010101600A
:103420002046BDE8104000F0BBBF00002DE9F0438E
:10343000B7B00446142130A8FDF715F8C02168463E
:10344000FDF711F84549022720680024414DDFF8B7
:103450000891884226D100201F940121CDE9001057
:103460006846FEF7F9FA08B1FDF7E8F83948103078
:10347000016841F010010160006800F01000359013
:10348000286840F0020028602868042100F002004B
:1034900035904FF440403090CDE93174CDE933415F
:1034A00030A954E02E494FF007082E4E884228D10B
:1034B00000201E940221CDE900106846FEF7CCFAE8
:1034C00008B1FDF7BBF8306840F400303060306878
:1034D00000F400303590286840F008002860286823
:1034E0006021309130A900F00800CDE931743394A7
:1034F000CDE934801C4800BFFDF722FC37B0BDE8A1
:10350000F0831A498842F9D100201E940221CDE9A6
:1035100000106846FEF7A0FA08B1FDF78FF8306892
:1035200040F480203060306800F4802035902868B6
:1035300040F00200286028684FF44061309130A9C3
:1035400000F00200CDE931743394CDE9348048466F
:10355000D2E70000E0440258000402580010014085
:1035600000440040E8440258000C02580048004063
:10357000FEE78068C0F3C00070478068C0F3800039
:10358000704710B5042404EAD1540723C1F3045151
:1035900020448B408A40416999431143416110BDE9
:1035A00070B588B01C216846FCF75DFF1B4D0426F2
:1035B0001B49002401202960C5E903462C756C7560
:1035C000A8612C776C62AC62EC622C636C6385F84A
:1035D0003840E8632846FDF71FFA08B172B6FEE7E7
:1035E0006C600E48AC60FDF717FA08B172B6FEE7E2
:1035F0000C48062140F2FF7203928DE81300074841
:103600006946CDE904648DF81940FDF719F80028E2
:1036100001D072B6FEE708B070BD000014000024AF
:10362000002102400800900C2DE9F04186B01421E1
:103630006846FCF718FF3348016841F0100101604B
:10364000016801F010010591016841F080010160FD
:10365000016801F080010591016841F004010160F9
:10366000016801F004010591016841F00101016068
:10367000016801F001010591016841F0020101605A
:10368000016801F002010591016841F00801016043
:1036900000684FF44656DFF87080002200F0080002
:1036A000314605904046FDF761FC184F00220F217E
:1036B0003846FDF75BFC002469467C200294CDE986
:1036C00000044046FDF73CFB01250096CDE901547E
:1036D000694640460394FDF733FB0F200090CDE987
:1036E0000154694638460394FDF72AFB03204FF442
:1036F00088118DE8130069464046FDF721FB06B0AE
:10370000BDE8F081E044025800100258000C025855
:103710001248002110B5104C0123114A0460C0E981
:103720000121C0E9033141618161C1610162FDF79D
:1037300085FC08B172B6FEE708480021FDF728FCB9
:1037400008B172B6FEE705480021FDF74DFC0028E0
:1037500001D072B6FEE710BD00540040780000248E
:10376000B175703010B596B000241C210BA81294CE
:1037700013941494FCF777FE2C216846FCF773FE33
:1037800026484FF6FF722449C0E90014C0E90242FE
:10379000046144618461FFF753FD08B172B6FEE72E
:1037A0001E4812A9129413941494FFF75FFB08B1FA
:1037B00072B6FEE76020CDE90B04184800220BA981
:1037C0000D940E940F9410941194FFF7A7FC08B178
:1037D00072B6FEE7114804220BA9FFF79FFC08B15F
:1037E00072B6FEE74FF40050009401940103029476
:1037F000CDE9044003940694CDE9074107486946A2
:1038000009940A94FFF7E2FA08B172B6FEE703489A
:10381000FFF740FC16B010BD00000140CC000024B2
:1038200010B58CB024216846FCF71DFE1448002416
:10383000012109948A1E0A948B070B94C0E9003475
:10384000C0E9024204618461CDE90014CDE90214AB
:103850000494CDE90541694607940894FFF758FBA5
:1038600008B172B6FEE7064809A909940B94FFF760
:10387000FDFA002801D072B6FEE70CB010BD0000C2
:103880001801002410B58AB0002468461C21079452
:1038900008940994FCF7E7FD15484FF6FF71134AA9
:1038A000C0E90024C0E9024104618461FFF7C8FC5B
:1038B00008B172B6FEE70E4807A907940994FFF70E
:1038C000D5FA08B172B6FEE760206946CDE900047A
:1038D0000748002202940494FFF720FC08B172B656
:1038E000FEE70348FFF7D6FB0AB010BD0004004016
:1038F0006401002410B58CB024216846FCF7B3FDA8
:10390000154800240121134B8A1E09940A940B9434
:10391000C0E90034C0E9024204618461CDE90014C9
:10392000CDE902140494CDE9054169460794089451
:10393000FFF7EEFA08B172B6FEE7074809A9099445
:103940000B94FFF793FA002801D072B6FEE70CB093
:1039500010BD0000000C0040B001002417480021F9
:1039600010B5154C0C224FF4E1330460C0E901316D
:10397000C160C0E904128161C1610162416281627A
:10398000FFF71EFD08B172B6FEE70C480021FFF7F5
:10399000F1FC08B172B6FEE708480021FFF7C4FC4D
:1039A00008B172B6FEE70548FFF79EFC002801D07B
:1039B00072B6FEE710BD000000100140FC010024BB
:1039C0001748002110B5154C0C224FF4E133046068
:1039D000C0E90131C160C0E904128161C1610162C5
:1039E00041628162FFF7ECFC08B172B6FEE70C4859
:1039F0000021FFF7BFFC08B172B6FEE708480021BE
:103A0000FFF792FC08B172B6FEE70548FFF76CFCC1
:103A1000002801D072B6FEE710BD0000004400404F
:103A2000900200241748002110B5154C0C224FF4C9
:103A3000E1330460C0E90131C160C0E90412816171
:103A4000C161016241628162FFF7BAFC08B172B6DE
:103A5000FEE70C480021FFF78DFC08B172B6FEE7C7
:103A600008480021FFF760FC08B172B6FEE7054880
:103A7000FFF73AFC002801D072B6FEE710BD000047
:103A80000048004024030024FEE7FEE770470000E2
:103A90002DE9F047454D044689464FF0000A286855
:103AA000C04380070AD0414E283E306820F0806035
:103AB0003060FDF767FA0746B04608E00120BDE830
:103AC000F08700BFFDF75EFAC01B022867D8D8F860
:103AD00000000001F6D4206829684FF4FE0721F4A5
:103AE0007C313E0241EA00302860207AA389B4F894
:103AF00004C040022D4D2D495B1E227CACF1010C0F
:103B00001035091DA0F5007080B2521ECCF3080CD0
:103B100007EA034340EA0C00184306EA0262104336
:103B200028600868626920F0C000104308600A68D5
:103B3000A06922F0200202430A60281D0A6822F0D0
:103B400010020A6002684FF6F873E4699A4342EA89
:103B5000C40202600868B9F1000F40F010020A6068
:103B600011D00868B9F1010F11D040F400100860BD
:103B7000D8F80000444640F08060C8F80000FDF727
:103B800001FA05460DE0086840F40020EFE740F434
:103B90008010ECE7FDF7F6F9401B022801D903205D
:103BA0008DE720680001F5D5504688E72844025883
:103BB0002DE9F047454D044689464FF0000A286834
:103BC000C04380070AD0414E283E306820F0805024
:103BD0003060FDF7D7F90746B04608E00120BDE8A0
:103BE000F08700BFFDF7CEF9C01B022867D8D8F8D0
:103BF00000008000F6D4208829684FF4FE0721F0E9
:103C00007C713E0241EA00502860207AA389B4F812
:103C100004C040022D4D2D495B1E227CACF1010CED
:103C20001835091DA0F5007080B2521ECCF3080CA7
:103C300007EA034340EA0C00184306EA0262104315
:103C400028600868626920F44060104308600A68D0
:103C5000A06922F4007202430A60281D0A6822F457
:103C600080720A6002684FF6F873E4699A4342EA88
:103C7000C40202600868B9F1000F40F480720A6063
:103C800011D00868B9F1010F11D040F080700860C0
:103C9000D8F80000444640F08050C8F80000FDF716
:103CA00071F905460DE0086840F48000EFE740F444
:103CB0000000ECE7FDF766F9401B022801D903205C
:103CC0008DE720688000F5D5504688E728440258E3
:103CD0007047FDF755BA000030B59DB04C216846DD
:103CE000FCF7C1FB202113A8FCF7BDFB0220FDF768
:103CF0002BFB2D4800242D49026822F001020260AE
:103D000002680A6842F440420A600A6802F44042CB
:103D10001B920A689204FCD5254A136843F00203FB
:103D20001360126802F002021B920A6842F44042D9
:103D30000A600A68026842F001020260006800F04E
:103D400001001B9008688004FCD5022009903C23E8
:103D50000E900325CDE90C30012100910FABC20379
:103D600001920C21CDE90A0583E8130068461294FC
:103D7000FEF758FD08B172B6FEE740201594082200
:103D80001A900301CDE916203F21CDE91803CDE9B2
:103D90001315042113A8FEF735FB002801D072B6D5
:103DA000FEE71DB030BD00002C0400581848025832
:103DB000F44402582C48F0B52C4A016841F47001D3
:103DC0000160106800F00F00072804D2106820F08E
:103DD0000F00C01D106026490020254C10340B68D0
:103DE000244D43F001030B6020600B682B400B60F7
:103DF000136803F00F03072B04D9136823F00F0394
:103E0000DB1D13601A4C1C4A18341C4B261D371D31
:103E10002060174C1A4D28343060261D3860371D3D
:103E200023603B1D35601C1D3A60251D2E1D18604A
:103E3000331D22602860326018600A680C4B114CF8
:103E400022F4802260330A60186020686FF30F004C
:103E5000B0F1005F03D20C490120C1F8080143F220
:103E6000D2000A490860F0BD88ED00E00020005251
:103E7000004402587FEDF6EA8002010100020202CE
:103E80000000FF010010005C008000510040005263
:103E90002DE9F0472A4B4FF0804A2A4D026898429C
:103EA000294E2A4F2A4C09D0504507D0A84205D0A8
:103EB000B04203D0B84201D0A04205D1D1F804C02D
:103EC00022F070024CEA0202DFF888C0DFF8888036
:103ED0009842DFF888900FD050450DD0A8420BD003
:103EE000B04209D0B84207D0A04205D0604503D007
:103EF000404501D0484503D1CD6822F440722A43A1
:103F00004D6922F080022A43026098428A68C262A8
:103F10000A68826207D0A04205D0604503D04045C0
:103F200001D0484501D1096901630121416101695D
:103F3000C90703D0016921F001010161BDE8F087E3
:103F4000000001400004004000080040000C004058
:103F5000000401400040014000440140004801408D
:103F60002DE9F04FDFF88480214EDFF88890DFF8EC
:103F700088B0026A036AB042DFF880A022F0020C27
:103F80001F4F23F001020262426885698B680C684A
:103F900005EA080525F0030543EA0C0344EA050495
:103FA00007D0484505D0584503D0504501D0B84208
:103FB00005D1CD6823F008031D4325F00403B0426A
:103FC00007D0484505D0584503D0504501D0B842E8
:103FD00005D122F44076D1E9055235432A434260A7
:103FE0008461496841630362BDE8F08F8FFFFEFF83
:103FF0000000014000040140004001400044014035
:1040000000480140F0B5DFF87CE01F4C1F4D026A0C
:10401000036AA04222F0200623F0100303624268E4
:104020008369D1F808C00F6803EA0E0323F4407EC9
:1040300046EA0C134EEA072601D0A84206D1CF6803
:1040400023F0800343EA071323F04003A0420AD081
:10405000A84208D00E4CA04205D00E4CA04202D07F
:104060000D4CA04207D1D1E9054522F4406242EA55
:10407000840242EA85024260866149688163036284
:10408000F0BD0000FF8FFFFE000001400004014072
:10409000004001400044014000480140F0B5DFF815
:1040A0007CE01F4D1F4E026A036AA84222F400778B
:1040B00023F4807303624368C269D1F808C002EA3E
:1040C0000E020C6822F0030E47EA0C2244EA0E04AA
:1040D00001D0B04206D1CF6822F4006242EA072242
:1040E00022F48062A8420AD0B04208D00E4DA84205
:1040F00005D00E4DA84202D00D4DA84207D1D1E9FE
:10410000055623F4405343EA051343EA061343607C
:10411000C4614968C1630262F0BD00008FFFFEFF09
:104120000000014000040140004001400044014003
:1041300000480140F0B5046A026A22F4805202622B
:104140004268C36924F40054DFF848C08E680D68E3
:1041500003EA0C03104F23F4407344EA0634B842D8
:1041600043EA05230BD00D4DA84208D00C4DA842C0
:1041700005D00C4DA84202D00B4DA84204D14D6988
:1041800022F4804242EA85124260C36149680164B8
:104190000462F0BDFF8FFFFE0000014000040140FB
:1041A000004001400044014000480140F0B5164F76
:1041B000164B026A046A984222F4003524F48033D4
:1041C00003624268436D0E890C6803EA070344EA00
:1041D000030445EA06430BD00D4DA84208D00D4D0F
:1041E000A84205D00C4DA84202D00C4DA84204D1E3
:1041F0004D6922F4803242EA0522426044654968F2
:1042000081650362F0BD00008FFFFEFF00000140EA
:1042100000040140004001400044014000480140CA
:10422000F0B5164F164B026A046A984224F48013C4
:10423000036222F400144268436D0E890D6803EA9C
:10424000070344EA065443EA05230BD00D4DA84268
:1042500008D00D4DA84205D00C4DA84202D00C4DFF
:10426000A84204D14D6922F4802242EA85224260AC
:1042700043654968C1650462F0BD0000FF8FFFFE21
:1042800000000140000401400040014000440140A2
:104290000048014030B5416EB9B101680D4B03F1E2
:1042A00008048A688968C2F34262490F5D5C615CF8
:1042B0002D01B5FBF1F1A0F86A10995CA25C09012F
:1042C000B1FBF2F1A0F8681030BD0121A0F86A102E
:1042D000F8E70000124A000890F82810090706D5F0
:1042E0000168836B4A6822F400421A434A6090F8DE
:1042F0002810C90706D00168C36A4A6822F4003250
:104300001A434A6090F82810890706D50168036BA4
:104310004A6822F480321A434A6090F8281049070C
:1043200006D50168436B4A6822F480221A434A602A
:1043300090F82810C90606D50168C36B8A6822F474
:1043400080521A438A6090F82810890606D50168C1
:10435000036C8A6822F400521A438A6090F828108D
:10436000490611D50168436C4A6822F480121A4349
:104370004A60416CB1F5801F06D10168836C4A68C0
:1043800022F4C0021A434A6090F82810090606D5A4
:104390000168C26C486820F40020104348607047F0
:1043A0002DE9F84300250446C0F89050FCF7EAFDDB
:1043B0008046206820266FF07E470068000713D5EE
:1043C0000022434631042046009700F03FFA58B1DE
:1043D000216851E8000F20F0800041E80002002A27
:1043E000F6D1C4F8886021E020680068400722D533
:1043F000002243464FF480012046009700F026FA41
:10440000C8B1206850E8001F21F4907140E8001204
:10441000002AF6D12068083050E8001F21F0010181
:1044200040E80012002AF5D1C4F88C60032084F81B
:104430008450BDE8F883C4F88860C4F88C60E566F1
:104440002567002084F88450F3E7000010B5026867
:1044500052E8001F21F4907142E80013002BF6D1BE
:104460000E4B0268083252E8001F194042E800145F
:10447000002CF6D1C16E012908D1026852E8001F54
:1044800021F0100142E80013002BF6D10021202278
:10449000C0F88C20C166416710BD0000FEFFFFEF31
:1044A0002DE9F04304468068D84E87B0D84B216888
:1044B000D4E90427D4F81CC010430A68002547EA51
:1044C0000C073843324002430A602068E2684168C2
:1044D00021F44051114341602268A1699A4201D000
:1044E000206A01439768DFF82CC3CB4ECB4807EA1C
:1044F0000C070F4397602168676ACA6A22F00F02AF
:104500003A43CA622268B2420ED1006800F0380015
:10451000182873D047DCB8B3082879D010286FD199
:1045200078E028287ED17BE0BD498A4209D1006825
:1045300000F00700062875D2DFE800F0546A6C6EC0
:104540007072B8498A4209D1006800F00700062855
:1045500068D2DFE800F0475D5F616365B2498A4277
:1045600009D1006800F0070006285BD2DFE800F000
:104570003A5052545658AD498A420BD1006800F067
:10458000070006284ED200E010E0DFE800F02B41E3
:1045900043454749A6498A420AD1006800F03800DD
:1045A000182839D0B7DD2028BBD13CE001203AE003
:1045B000A0498A4209D1006800F00700062831D2DC
:1045C000DFE800F01026282A2C2E9B498A420BD1C6
:1045D000006800F00700062824D2DFE800F0031985
:1045E0001B1D1F2100201EE09A421BD18B48001D7D
:1045F000006800F00700062814D202E00CE007E093
:1046000010E0DFE800F0030507090B0D02200AE0C7
:10461000042008E0082006E0102004E0202002E04A
:10462000402000E080208549DFF814829A42854AC4
:104630004FF400434FEA21174FF000064ED11028E7
:104640001AD006DC022809D004280BD008287CD117
:104650000DE020283ED0402877D13DE0FCF79EFEBB
:10466000014610E06846FCF74FFF01990BE003A8F4
:10467000FCF7ECFF049906E01068800605D5106889
:10468000C0F3C100C140002970D0606A676838F883
:10469000102007EB4703B1FBF2F0834255D8B0EB93
:1046A000073F52D8002308461946FBF765FE02462D
:1046B0007808130E120243EA012110183A4671419C
:1046C0000023FBF759FE604AA0F5407191423CD8A7
:1046D00021688FE03946D8E71946D6E7D4F81CC0E0
:1046E0004FF6EF799C4546D1082819D005DC58B122
:1046F00001280CD0042875D10DE0102815D02028F1
:1047000035D040286ED134E0FDF7CCFF01E0FDF755
:10471000DBFF014610E06846FCF7F6FE01990BE06E
:1047200003A8FCF793FF049906E01068800604D5FF
:104730001068C0F3C100C140C1B1636A606838F855
:104740001330B1FBF3F1490000E04BE001EB500105
:10475000B1FBF0F0A0F11001494543D84FF6F073DA
:104760002168C0F342021840104343E043E0394659
:10477000E3E71946E1E7082819D005DC58B101281C
:104780000CD004282ED10DE0102815D020282BD0D5
:10479000402827D12AE0FDF785FF01E0FDF794FFCF
:1047A000014610E06846FCF7AFFE01990BE003A854
:1047B000FCF74CFF049906E01068800604D51068E9
:1047C000C0F3C100C140B1B1636A606838F813300A
:1047D000B1FBF3F101EB5001B1FBF0F0A0F11001DE
:1047E000494505D9012506E03946EDE71946EBE7CD
:1047F000216880B2C8600120A4F86A00A4F86800AB
:1048000028466667A66707B0BDE8F083F369FFCF67
:10481000000C0058FFF4FF110010014054440258EE
:104820000044004000480040004C00400050004060
:104830000014014000780040007C00400090D0034C
:10484000FA49000800440258FFFC0F002DE9F04728
:10485000994617460D460446089E4FF0000833E07F
:10486000701C31D0FCF78EFBA0EB0900B04218D8C9
:10487000BEB120680168490726D5802D24D0402D7F
:1048800022D0C169C94309070DD408250562204615
:10489000FFF7DCFDC4F89050012084F88480BDE867
:1048A000F0870320FBE7C069C04300050CD42168F2
:1048B0004FF4006008622046FFF7C8FD2021C4F8CD
:1048C000901084F88480ECE72068C06935EA000025
:1048D00004D00020B842C3D00020E0E70120F9E76F
:1048E000FEE7090700284FEA116104DB00F1E02030
:1048F00080F80014704700F00F0000F1E02080F80D
:10490000141D70471FB50024009401940294039471
:10491000FCF7BAFC01208DF80C001F218DF808105F
:1049200087228DF809208DF80D008DF8000068466B
:104930008DF80A408DF80E408DF8014001948DF8F5
:104940000B408DF80F40FCF771FC0420FCF7AAFC2B
:10495000FCF71EFCFFF7C0F9FEF766FEFEF760FFEE
:10496000FEF71EFEFEF7D4FEFEF7FCFEFEF78AFF02
:10497000FEF7C0FFFEF7F2FFFFF722F8FFF752F84D
:104980001A4C012211462046FCF7F0FAC820FCF729
:10499000C5F9002220460121FCF7E8FA0122204651
:1049A0000221FCF7E3FAC820FCF7B8F90022204600
:1049B0000221FCF7DBFA012220460421FCF7D6FA9B
:1049C000C820FCF7ABF9002220460421FCF7CEFA00
:1049D000012220460821FCF7C9FAC820FCF79EF9FD
:1049E000002220460821FCF7C1FACAE7000C025851
:1049F0004FF04070E1EE100A704701000200040021
:104A0000060008000A000C00100020004000800092
:104A1000000101010103070100000804020408016C
:104A20000101000000000102030401020304060763
:104A300008090000544A0008000000241400000087
:104A4000D4020008684A000814000024040A000088
:104A5000F00200080100000010000000000000004B
:084A60000090D0030090D00388
:040000050800029954
:00000001FF
