:020000040800F2
:10000000D80E00247903000823680008E96200087C
:10001000216800086D0C00088978000800000000C5
:10002000000000000000000000000000696A0008F5
:10003000B510000800000000256800086B6A000881
:100040009303000893030008930300089303000838
:100050009303000893030008930300089303000828
:10006000930300089303000893030008710C000831
:100070009303000893030008930300089303000808
:100080009303000893030008810700089303000806
:1000900093030008930300089303000893030008E8
:1000A00093030008930300089303000893030008D8
:1000B00093030008930300089303000893030008C8
:1000C00093030008930300089303000893030008B8
:1000D000930300087D780008930300089303000849
:1000E0009303000893030008000000009303000836
:1000F0009303000893030008930300089303000888
:100100009303000893030008930300089303000877
:10011000930300089303000893030008296C000868
:100120009303000893030008930300089303000857
:100130009303000893030008930300089303000847
:1001400000000000000000000000000000000000AF
:100150009303000893030008930300089303000827
:100160009303000893030008930300089303000817
:1001700093030008930300089303000800000000A5
:1001800093030008930300089303000893030008F7
:1001900093030008930300089303000893030008E7
:1001A00093030008930300089303000893030008D7
:1001B00093030008930300089303000893030008C7
:1001C00093030008930300089303000893030008B7
:1001D00093030008930300089303000893030008A7
:1001E0009303000893030008930300089303000897
:1001F0009303000893030008930300089303000887
:100200009303000893030008930300089303000876
:100210009303000893030008930300089303000866
:1002200093030008930300089303000800000000F4
:1002300093030008930300080000000093030008E4
:100240009303000893030008930300089303000836
:100250009303000893030008930300089303000826
:100260009303000893030008930300089303000816
:1002700093030008930300089303000800000000A4
:100280009303000893030008930300080000000094
:10029000000000009303000800F002F800F05CF892
:1002A0000AA090E8000C82448344AAF10107DA45D1
:1002B00001D100F051F8AFF2090EBAE80F0013F0C7
:1002C000010F18BFFB1A43F001031847BC8300005D
:1002D000DC8300000A444FF0000C10F8013B13F0DF
:1002E000070408BF10F8014B1D1108BF10F8015B8F
:1002F000641E05D010F8016B641E01F8016BF9D182
:1003000013F0080F1EBF10F8014BAD1C0C1B09D1D8
:100310006D1E58BF01F801CBFAD505E014F8016B4A
:1003200001F8016B6D1EF9D59142D6D370470000DC
:100330000023002400250026103A28BF78C1FBD8EE
:10034000520728BF30C148BF0B6070471FB508F087
:10035000B5F81FBD10B510BD00F005F91146FFF747
:10036000F5FF07F0D1FF00F023F903B4FFF7F2FF28
:1003700003BC00F027F900000948804709480047FE
:10038000FEE7FEE7FEE7FEE7FEE7FEE7FEE7FEE745
:10039000FEE7FEE704480549054A064B70470000A2
:1003A0004D6B000899020008D8080024D80E0024DC
:1003B000D80A0024D80A002453EA020C00F069800D
:1003C0002DE9F04B4FF00006002B1FBFB3FA83F569
:1003D00003FA05F424FA05F65E4012BF1643B2FA9A
:1003E00082F502FA05F4C5F120051EBF22FA05FCCC
:1003F00044EA0C04203556EA044C4FEA144418BF72
:10040000641C4FF000084FF00009904271EB030CA0
:1004100039D3002919BFB1FA81F701FA07F6B0FA0A
:1004200080F700FA07F6C7F120071EBF20FA07FC85
:1004300046EA0C062037B6FBF4FCA7EB0507103F95
:1004400007F01F0BCBF120060CFA0BFB2CFA06F67B
:1004500044BFB3460026202FA4BF5E464FF0000BDA
:100460005BEA060C08BF4FF0010B19EB0B09ABFB65
:10047000027C48EB0608C01B06FB02CC0BFB03CC3E
:1004800071EB0C01C1E70B46024641464846BDE808
:10049000F08B13B54FF000004FF00001AFF3008078
:1004A000BDE81C4070474FF000020429C0F01280E4
:1004B00010F0030C00F01B80CCF1040CBCF1020F17
:1004C00018BF00F8012BA8BF20F8022BA1EB0C01EC
:1004D00000F00DB85FEAC17C24BF00F8012B00F8E2
:1004E000012B48BF00F8012B70474FF0000200B508
:1004F000134694469646203922BFA0E80C50A0E847
:100500000C50B1F12001BFF4F7AF090728BFA0E8F4
:100510000C5048BF0CC05DF804EB890028BF40F8C0
:10052000042B08BF704748BF20F8022B11F0804F02
:1005300018BF00F8012B704770477047704710B51F
:1005400000F00CF8006810BD10B5044600F006F885
:10055000046010BD004870477808002400487047C8
:100560007808002470477546FFF7F4FFAE46050093
:100570006946534620F00700854618B020B5FFF7BE
:1005800009FFBDE820404FF000064FF000074FF094
:1005900000084FF0000B21F00701AC46ACE8C009A1
:1005A000ACE8C009ACE8C009ACE8C0098D467047AA
:1005B00010B50446AFF300802046BDE81040FFF7B9
:1005C000D4BE000001491820ABBEFEE726000200A1
:1005D00070B53A4905460068884202D0384A9042D0
:1005E00002D1D1F8080302E03648D0F8080310F42D
:1005F000403F11D004F0F0F804466868B0F5803F41
:1006000006D0B0F5003F03D0B0F5403F27D101E060
:10061000000C18E0A40822E000214FF4002003F0B1
:1006200073F9044668688103890B18D181140C2979
:1006300015D2DFE801F0140606060606060B0D0FBC
:100640001113800C4000B4FBF0F408E0240906E02C
:10065000640904E0A40902E0E40900E0240A02F0CD
:1006600031FE41F20301884208D8174884422868C5
:10067000816813D821F48071816070BD13496008CE
:10068000884204D82868816821F44071F4E7104951
:10069000884206D82868816821F4407141F480714D
:1006A000EAE70C4988422868816804D821F440713F
:1006B00041F40071E0E741F44071DDE700200240C1
:1006C0000021024000600258002D3101105E5F00E1
:1006D00020BCBE0040787D0170B50446006881688A
:1006E00011F0010F40D18168204A11422DD181685B
:1006F000D5432940491C816002F0EAFD1C490646A9
:1007000020681C4B884201D0984201D11A4A00E06F
:100710001A4A9268984202F01F0200D001468142B4
:100720001DD0E2B120E0816811F0010F03D1816892
:100730002940491C816002F0CBFD801B02280ED9A4
:1007400020680068C043C00709D0606D40F0100009
:100750006065A06D40F00100A065012070BD2068BB
:100760000168C943C907DED1002070BD3F00008089
:100770000020024000210240002302400063025892
:10078000014800F03DBF00008C05002464209FED6F
:10079000020A00F003B8000000803B4510B5044693
:1007A0001B492DED028BB0EE408A18EE100A8842EC
:1007B00002DD9FED188A06E018EE100A16498842FD
:1007C00001DAB3EE0E8A1548002105F0B1F814489D
:1007D000124A008800EE100A1068B8EE400AC0EE17
:1007E000080ABCEEE00A10EE101A491EC162D16080
:1007F0004808116848630021104605F011F82046AA
:1008000002F02EFCBDEC028BBDE8104000F010B8E9
:1008100000401C4600401C460000F04188060024B1
:10082000080000240148002104F0FABF88060024D3
:100830000748002110B505F07BF805480168002045
:1008400048630146BDE81040014804F0E9BF0000DC
:100850008806002401480068406A70473C0600246E
:1008600001480068406A7047D406002405483C21CE
:1008700010B504F0BDFDBDE8104003483C2104F074
:10088000B7BD00003C060024D406002404480E2115
:1008900010B5FFF708FEBDE81040024801F084B92A
:1008A000900300248C0500240349002231F8101025
:1008B000024802F002BD000000000024000C0258B3
:1008C0000349012231F81010024802F0F6BC000082
:1008D00000000024000C0258034890ED060B90ED38
:1008E000041B30EE410B70474803002470B5184CD0
:1008F0002DED028B606805F0F4F84FF47A756068AE
:1009000003222B46611C05F096FC9FED128B0520FF
:1009100084ED048B84ED028B84ED068B02F0A0FB4A
:1009200060680322611C2B4605F085FC84ED048B76
:1009300084ED028B052084ED068B02F091FB60684C
:1009400021220649BDEC028BBDE8704005F0E8BBF2
:10095000480300240000000000000000D803002429
:1009600010B5054C6060FFF7C1FF60682122BDE84B
:100970001040024905F0D4BB48030024D8030024EA
:1009800010B52DED028BB0EE408BFFF7A5FF0C4CA0
:10099000204684ED000B84ED048B00F0CDF894ED3F
:1009A000020BBDEEC00BBDEC028BBDE8104010EE9B
:1009B000101A10EE100A5A31C0F15A0000F04CB86B
:1009C000C00100242DE9F041214D6428214E044648
:1009D0004FF480784FF6FF77286801DD642407E044
:1009E0006FF063018C4201DA0C4610E0002C0DDD43
:1009F0004FF001024FF0800102F05FFC28680022F6
:100A0000414602F05AFC04EB84000EE013DA4FF08A
:100A100000024FF0800102F050FC2868012241469C
:100A200002F04BFC604200EB8000316807EA4000B6
:100A30004863BDE8F0810022802102F03EFC286876
:100A40000022414602F039FC31680020F0E7000046
:100A500030000024F005002410B50C46FFF7B2FF6B
:100A60002046BDE8104000F001B800002DE9F0413B
:100A70001F4D64281F4E04464FF480514FF6FF77F8
:100A80004FF40058286801DD642407E06FF063022A
:100A9000944201DA14460EE0002C0BDD4FF0000208
:100AA00002F00BFC28680122414602F006FC04EB30
:100AB00084000CE011DA4FF0010202F0FEFB28681E
:100AC0000022414602F0F9FB604200EB80003168F1
:100AD00007EA40008863BDE8F081002202F0EDFBE8
:100AE00028680022414602F0E8FB31680020F1E767
:100AF00030000024F0050024064810B504F018FB6F
:100B00000448002104F08CFEBDE810400148042197
:100B100004F086BEF005002400210846FFF79CBFC4
:100B2000014804F08BBB000020070024014804F0BA
:100B30003FBB00002007002410B504462DED0C8BB0
:100B400002F0C6FB0146D4E91620081A824277D883
:100B500000EE100A94ED049B94ED002BB8EE407B60
:100B6000B8EE406B39EE420B94ED181B94ED08CBB8
:100B7000B6EE008B94ED1A5B2CEE088B94ED064BD1
:100B800094ED143B00EE061B35EE005B28EE077B70
:100B900024EE006B07EE051B84ED181BB4EEC31B9F
:100BA000F1EE10FA06DC94ED123BB4EEC31BF1EE4D
:100BB00010FA01D284ED183B01EE100AB0EE003BB2
:100BC00094ED0C4BB8EE418B94ED0A7B94ED1EBB7B
:100BD00094ED1CAB04EE438BB8EE411B94ED189BD7
:100BE00094ED105B27EE03DB32EE4BBB28EE0A8B55
:100BF00004EE031B0DEE4B8B2CEE093B36EE034B44
:100C000088EE013B84ED1C3B27EE031B34EE011BF9
:100C100084ED021BB4EEC51BF1EE10FA02DD84ED8B
:100C2000025B08E094ED0E3BB4EEC31BF1EE10FA4C
:100C300001D284ED023B84ED1E2B84ED1A0BE1659D
:100C400094ED020BBDEC0C8B10BD0000064910B5F5
:100C500031F8101004480C38806802F029FB08B104
:100C6000002010BD012010BD18000024FEE7000088
:100C7000014801F051BB000000080024294A016826
:100C800091423AD0274A1832914236D0254A303222
:100C9000914232D0234A483291422ED0214A6032CA
:100CA00091422AD01F4A7832914226D01D4A903272
:100CB000914222D01B4AA83291421ED01A4A914238
:100CC0001BD0194A1832914217D0174A303291423C
:100CD00013D0154A483291420FD0134A60329142E4
:100CE0000BD0114A7832914207D00F4A903291428C
:100CF00003D00D4AA832914211D1CAB21823103A3A
:100D0000B2FBF3F26FF30901032A02F00703074A6B
:100D1000D25CC26500D9091D81650846704721F083
:100D2000FF01F9E71000024010040240B6850008F8
:100D300030B5224A012301689142CAB21BD01F4C30
:100D40001434A14217D01D4C2834A14213D01B4C9F
:100D50003C34A1420FD0194C5034A1420BD0174C57
:100D60006434A14207D0154C7834A14203D0134C0F
:100D70008C34A1420CD11421114C083AB2FBF1F190
:100D80000F4A803201F01F0504EB8101AB4010E0F7
:100D90000C4D1824103A0D44B2FBF4F1A82D00D8E4
:100DA0000831094A01F01F0402EB8101064AA34001
:100DB0008032603080E80E0030BD000008540258D8
:100DC00000580258F0FBFDBF0008024010B5027940
:100DD000531E072B2DD8174C0168A1421BD0154C70
:100DE0001434A14217D0134C2834A14213D0114C13
:100DF0003C34A1420FD00F4C5034A1420BD00D4CCB
:100E00006434A14207D00B4C7834A14203D0094C82
:100E10008C34A14203D10849074C443102E0074910
:100E2000064C443104EB8202C0E91B2101219940A8
:100E3000416710BD08540258FC580258FC08024093
:100E400010B583694FF0C074826A0146002053B127
:100E5000B3F5005F15D072B1012A0CD0022A0AD076
:100E6000032A09D104E01AB1012A06D0022A03D1CB
:100E7000C96AC90100D5012010BDC96AA142FAD0D2
:100E800010BD002AF7D0012AF2D0022AF3D0032A9B
:100E9000F3D010BD2DE9F04F804E804FDFF8FC916C
:100EA0001836DFF8F8A148370468856D0AF1300A72
:100EB000DFF8ECB14C45DFF8ECC1DFF8ECE16DD0C8
:100EC000B4426BD0544569D0BC4267D0DFF8D081C2
:100ED000A8F11808444561D05C455FD064455DD0F9
:100EE00074455BD0DFF8C481444557D0DFF8BC813E
:100EF00008F11808444551D0DFF8B08108F13008F6
:100F000044454BD0DFF8A48108F14808444545D05A
:100F1000DFF8988108F1600844453FD0DFF88C8104
:100F200008F17808444539D0DFF8808108F190084D
:100F3000444533D0DFF8748108F1A80844452DD02A
:100F4000DFF86C81444529D0DFF8648108F114088A
:100F5000444523D0DFF8588108F1280844451DD0C6
:100F6000DFF84C8108F13C08444517D0DFF8408198
:100F700008F15008444511D0DFF8348108F16408C5
:100F800044450BD0DFF8288108F17808444505D0A6
:100F9000DFF81C8108F18C08444509D1D0E91948D3
:100FA000C4F80480C46E1CB1D0E91C48C4F80480A5
:100FB00004684C452ED0B4422CD054452AD0BC42B3
:100FC00028D0374E183EB44224D05C4522D0644528
:100FD00020D074451ED0354EB4421BD0334E183647
:100FE000B44217D0314E3036B44213D02F4E48366B
:100FF000B4420FD02D4E6036B4420BD02B4E783613
:10100000B44207D0294E9036B44203D0274EA836BA
:10101000B44215D190F85C603F2406F01F06B4403E
:10102000AC600468256825F4802525602EE09A6070
:101030000068C160BDE8F08F99600068C260F9E7A0
:101040001B4EB4421BD01A4E1436B44217D0184E61
:101050002836B44213D0164E3C36B4420FD0144E4C
:101060005036B4420BD0124E6436B44207D0104E04
:101070007836B44203D00E4E8C36B442DAD190F8B2
:101080005C60012406F01F06B4406C600468636075
:101090008368402B0368CFD1C9E7000010000240ED
:1010A00088000240A0000240B80002401004024044
:1010B00008540258704772B6FEE770477047704791
:1010C000704770472DE9F84F4FF0000B0D46E54F84
:1010D0000446CDF800B0D94690F85010DFF888A348
:1010E000012907D0012684F85060206805F001F935
:1010F00018B168E10220BDE8F88F286800280DDBF0
:1011000021680303CA6927D090FAA0F0B0FA80F0F2
:1011100000F01F0006FA00F00243CA61D5E9001290
:101120004FF00C0C20681F23C1F384610CEA921C61
:1011300002F01F02604493409140026B9A430A43BD
:101140000263206805F0D5F88046206805F0CDF8E8
:1011500058EA000003D07FE0C0F38460D8E720683D
:10116000AA68296805F0D1F8C0480068B6EB107F7E
:1011700006D121686869C968C1F38201490008E0A5
:101180002068C168C906C1686869F5D501F0100119
:1011900049088840296904292ED023682A6803EB6E
:1011A000810102F0F8420B6E024303F0004010434D
:1011B0000866697E22682869012917D05FF000015E
:1011C00002EB8000026E22F000420A430266297E92
:1011D00020682A6901290CD00021036902F01F024E
:1011E000914023F4F0420A43026135E04FF00041A0
:1011F000E6E74FF40061F0E720682978026E02F01C
:10120000F842B2EB816F03D1016E21F0004101661B
:1012100020682978426E02F0F842B2EB816F03D168
:10122000416E21F00041416620682978826E02F00B
:10123000F842B2EB816F03D1816E21F000418166EB
:1012400020682978C26E02F0F842B2EB816F03D1B8
:10125000C16E21F00041C1662068816811F0010F64
:1012600076D150F8C02F95F80CC0814B29680CF04E
:10127000180823FA08F3C1F3130C0B4022EA0C02FE
:101280001A4302607B48E968814277D128680103EC
:101290001BD090FAA0F1B1FA81F1491C01F01F01B5
:1012A00009294FEA003131D8002911D090FAA0F174
:1012B000B1FA81F101F1010101F01F0106FA01F615
:1012C00009D100BFC0F3846109E0C0F38461E4E7A1
:1012D000C0F38461EEE790FAA0F1B1FA81F101F177
:1012E000010101F01F0146EA816102D1C0F384606F
:1012F00003E090FAA0F0B0FA80F000F1010000F0F5
:101300001F0000EB400041EA005133E000290ED0FD
:1013100090FAA0F1B1FA81F101F1010101F01F0190
:1013200006FA01F606D100BFC0F3846106E0C0F3FF
:101330008461F1E790FAA0F1B1FA81F101F10101C4
:1013400001F01F0146EA816103D1C0F3846004E02B
:101350003FE090FAA0F0B0FA80F0474A00F10100B7
:1013600000F01F0000EB400002EB005041EA0001DA
:1013700041F00071AA68206804F0C7FF2E68002EB3
:1013800027DA3E4A20683E49DFF8F8C0904201D093
:10139000B84201D10B4600E063469B68904203F0DF
:1013A000E07301D0B84209D19568D7F8088005F0FC
:1013B000010508F0010845EA080503E0DAF80850DD
:1013C00005F001054DB1616D4FF0010941F02000BC
:1013D0006065484684F850B08DE62B4DAE421CD176
:1013E0001D021AD45045F4D1904202D0B84200D028
:1013F00061468A6843F4000022F0E07202438A608A
:10140000234922480968B1FBF0F04000801C00E04D
:10141000401E00900028FBD1DBE71E4DAE420CD1F0
:10142000DD010AD45045D4D1904202D0B84200D058
:1014300061468A6843F080700EE0174DAE42C8D115
:101440005D02C6D45045C4D1904202D0B84200D00B
:1014500061468A6843F4800022F0E07202438A60A9
:10146000B7E7000000210240006002580010005C55
:10147000FFFF0F000000FF47000020FE0020024099
:101480000023024000630258000084CB400D03009B
:1014900084030024000052C70000B8CF70B5414A51
:1014A0002DED088B0168914278D100F0A6F83E4CF2
:1014B00080B23E4D9FED3E8B9FED3F9B2178B2EE7B
:1014C00004BB25F81100E1B300EE100AB0EE001BDA
:1014D000B8EE400B20EE080B20EE090B06F000FAE8
:1014E00020789FED373B9FED38AB9FED392B35F8DA
:1014F000100001EE100AB8EE411B21EE081B21EE90
:10150000091B01EE03ABB0EE081B00EE02AB00EED0
:10151000100AB8EE400B20EE080B20EE090B06F087
:10152000DFF99FED2D1B207800EE01AB35F81000A0
:1015300000EE100AB8EE400B20EE080B20EE090B6F
:1015400000E00AE0B1EE001B06F0CAF99FED241B93
:1015500000EE01AB2AEE0B0B12E028889FED221B58
:1015600000EE100AB8EE400B20EE080B20EE090B3F
:1015700006F0B6F99FED1E1B20EE010B20EE0B0BC3
:1015800020780A4A411C103202EBC002C8B282ED38
:10159000000B0728207001D100202070BDEC088BC3
:1015A00070BD00000021024040030024900300248D
:1015B0006666666666660A40000000000000F03E4F
:1015C00000000000006051C03333333333F3404038
:1015D0006666666666264F4066666666666639C0FB
:1015E000A4703D0AD7A30E4021B0726891EDF0BF00
:1015F000295C8FC2F528284070470068006C70474E
:101600002DE9F05F0446006806684568DFF87082DF
:10161000DFF870B2DFF87092404501D0484501D143
:10162000584600E09948806800F01F07B0070ED5C3
:10163000A8070CD5606DC00603D4606D40F400604F
:1016400060652046FFF739FD2168022008607007B9
:1016500001D5680703D4300737D5280735D5606D25
:10166000C00603D4606D40F400706065206804F02B
:1016700044FE20B32068484501D1424600E00246BE
:10168000824208D03FB1052F05D0092F03D048452D
:1016900003D1414602E0C16801E00146C9688904FE
:1016A0000DD4016809070AD504F023FE58B3606D14
:1016B00040F010006065A06D40F00100A06520467C
:1016C000FFF7ECFE21680C200860B00601D5A806E3
:1016D00003D4700658D5680656D5606DC00603D48D
:1016E000606D40F4005060652068C16C11F4C07FEB
:1016F0001AD000218A4604F000FE024620684845C0
:1017000014D1434613E02068416821F00C01416088
:10171000606D20F480706065606DC004CFD4606D32
:1017200040F001006065CAE70121E3E70346834218
:1017300008D03FB1062F05D0072F03D0484503D16D
:10174000414602E0C16801E00146C968BAF1000FF4
:1017500014D08B0102D58AB18A040FD402685206D4
:101760000CD589020AD404F0C0FDE8B3606D40F0E6
:1017700010006065A06D40F00100A0652046FFF7F5
:101780009DFC21686020086030060BD5280609D52D
:10179000606D40F480306065204600F08DF921686E
:1017A00080200860F0050CD5E8050AD5606D40F48E
:1017B000003060652046FFF783FC21684FF480709D
:1017C0000860B0050CD5A8050AD5606D40F48020EE
:1017D00060652046FFF775FC21684FF400700860D3
:1017E000F00631D5E80600E00AE02DD5206BE8B11F
:1017F0002068EFB3404501D0484512D1584611E06A
:101800002068416821F060014160606D20F48050E3
:101810006065606DC005B1D4606D40F00100606529
:10182000ACE71A48806800F4404050B1606D40F465
:1018300080606065A06D40F00200A0652046FFF763
:10184000DBFE216810200860700517D5680515D5E6
:10185000616D4FF4806041F480416165A16D41F09C
:101860000801A165216808602046BDE8F05F00E03E
:1018700001E0FFF724BCC0688007D6E7BDE8F09F11
:101880000020024000230240002102400063025871
:10189000F8B54FF0000604003546009602D0606DA2
:1018A00010B107E00120F8BD204600F007F9A66559
:1018B00084F8506020688168C1F3407119B1816873
:1018C000704A1140816020688168C1F3007181B95C
:1018D00081686D4A114041F0805181606C496B48CC
:1018E0000968B1FBF0F0401C00E0401E00900028A9
:1018F000FBD120688168C1F3007141B9616D012598
:1019000041F010016165A16D41F00101A16504F094
:10191000F0FC616DC90600D420B1606D012540F076
:10192000100093E0606D20F4807040F0020060656C
:101930002068816811F0010F1FD1564A564B904222
:1019400001D0984207D191689E6801F0010106F02C
:101950000106314303E05149896801F0010161B991
:10196000904201D0984201D14D4800E04D48826834
:10197000616822F47C120A43826001F0A3FC41F208
:101980000301884202D9A06810280CD0617D227F13
:10199000A368206B490341EA024118430843217FB1
:1019A00001290CD010E0607D227F216B400340EACA
:1019B000024241F01000104340F00C00EFE7218C90
:1019C000394A02EB41410843616A29B1A26A01F434
:1019D0007871014342EA01002168344BCA681A4019
:1019E0000243CA60206804F084FC0646206804F0C4
:1019F0007CFC30431DD1216844F20303267DE26A5A
:101A0000C86842EA863298431043C86094F83800A8
:101A100001281ED02068016921F0010101612068C0
:101A2000626B016921F07041114301612046FEF7AC
:101A3000CFFDE068012820681CD0016B21F00F0168
:101A40000163606D20F0020040F0010060652846EF
:101A5000F8BD2068A28F164FD4E9101C154E07EB75
:101A60000247A36C026941EA0C013B43324019432F
:101A70001143D3E7A269016B521E21F00F011143FC
:101A8000DEE70000C0FFFF5FC0FFFF7F400D0300E7
:101A9000840300240020024000210240006002581C
:101AA00000230240006302580000FEFF03C0F0FF65
:101AB0000100FFFF1EF800FC7047000070B5B6B0D3
:101AC0000446142130A8FEF710FDC0216846FEF739
:101AD0000CFD30492068884259D10225812200211D
:101AE000CDE9032520230595CDE906514FF40020CB
:101AF000089109910C4629918DE80B00684602F087
:101B000067F808B1FFF7D7FA2348016841F02001D0
:101B10000160006800F0200035901F48083001681F
:101B200041F004010160016801F004013591016890
:101B300041F001010160016801F001013591016886
:101B400041F0020101600068032630A9329400F0E0
:101B5000020035901320CDE93006104801F092FACA
:101B60004C203294CDE930060D4830A901F08AFAB4
:101B7000309530A90B48CDE9316401F083FA002299
:101B80001220114601F06AFC122001F059FC36B017
:101B900070BD000000210240D844025800080258DD
:101BA00000000258000402582DE9F0415B4D044644
:101BB00000685B4FA84201D0B84201D1594900E00A
:101BC0005949896801F01F0604F093FB18B10222FD
:101BD0001046BDE8F08194F8500001280CD0012097
:101BE00084F850002046FEF777FD02004FF0000118
:101BF00004D084F85010EBE70220EAE7636D40F66A
:101C0000016C206823EA0C03B84243F480736365D7
:101C100001D12B4600E00346834200D01EB9636D1C
:101C200023F480136365636DDB0404D5A36D23F097
:101C30000603A36500E0A1651C23036084F850102F
:101C40002068416821F01C01416020690828206853
:101C5000416802D041F0040101E041F00801416017
:101C6000206B20B92068416841F010014160206874
:101C7000B84201D1294600E00146814220D0FEB1A0
:101C8000052E1DD0092E1BD0616DB84241F4801184
:101C9000616500D00546E968890199D5616D2369C0
:101CA00021F40051082B41F48051616541682BD02B
:101CB00021F0400141602068416841F020012AE0A4
:101CC000C168890119D5636D216923F4005308297E
:101CD00043F480536365416807D021F040014160BF
:101CE0002068416841F0200106E021F020014160B8
:101CF0002068416841F04001416020680B4B8168D9
:101D00001940091D816063E721F0200141602068CE
:101D1000416841F0400141605AE700000020024064
:101D2000002102400023024000630258C0FFFF7FF1
:101D30002DE9F84F044601F0CBFA00903CB194F83D
:101D40003500022806D0802161650020E4E00120F2
:101D5000BDE8F88FC74DC74EC649183520683036E4
:101D6000DFF81483DFF814938842DFF814A3DFF858
:101D700014B32ED0A8422CD0B0422AD0404528D04F
:101D8000484526D0504524D0584522D0BD4A183267
:101D900090421ED0BC4A90421BD0BB4A183290429F
:101DA00017D0B94A3032904213D0B74A48329042E5
:101DB0000FD0B54A603290420BD0B34A783290428D
:101DC00007D0B14A9032904203D0AF4AA832904235
:101DD00009D1026822F01E0202602068426922F0E6
:101DE0008002426103E0026822F00E02026027686E
:101DF0008F4238464DD0A8424BD0B04249D04045E2
:101E000047D0484545D0504543D0584541D09D4ADC
:101E1000183290423DD09C4A90423AD09A4A1832A9
:101E2000904236D0984A3032904232D0964A483268
:101E300090422ED0944A603290422AD0924A783210
:101E4000904226D0904A9032904222D08E4AA832B8
:101E500090421ED08D4A90421BD08C4A1432904240
:101E600017D08A4A2832904213D0884A3C32904296
:101E70000FD0864A503290420BD0844A643290424E
:101E800007D0824A7832904203D0804A8C329742FF
:101E900004D1206E026822F48072026075492068C5
:101EA000884228D0A84226D0B04224D0404522D033
:101EB000484520D050451ED058451CD07149183196
:101EC000884218D07049884215D06F49183188422D
:101ED00011D06D49303188420DD06B49483188426C
:101EE00009D069496031884205D067497831884214
:101EF00001D065499031016821F0010101600EE0D7
:101F000001F0E6F90099401A052808D920226265F7
:101F10000321002084F8351084F8340017E738686E
:101F2000C007EDD1534A0121206890422ED0A8422B
:101F30002CD0B0422AD0404528D0484526D0504524
:101F400024D0584522D04F4B183398421ED04E4BC8
:101F500098421BD04C4B1833984217D04A4B303321
:101F6000984213D0484B483398420FD0464B6033C9
:101F700098420BD0444B7833984207D0424B903371
:101F8000984203D0404BA833984208D194F85C7033
:101F90003F23A06D07F01F07BB40836007E094F864
:101FA0005C30A06D03F01F0301FA03F34360206867
:101FB00090424DD0A8424BD0B04249D0404547D086
:101FC000484545D0504543D0584541D02D4A183258
:101FD00090423DD02C4A90423AD02B4A183290423F
:101FE00036D0294A3032904232D0274A4832904285
:101FF0002ED0254A603290422AD0234A783290422D
:1020000026D0214A9032904222D01F4AA8329042D4
:102010001ED01E4A90421BD01C4A1432904217D048
:102020001A4A2832904213D0184A3C3290420FD0BC
:10203000164A503290420BD0144A6432904207D074
:10204000124A7832904203D0104A8C3290420BD11F
:10205000D4E919024260E06E30B1026822F4807265
:102060000260D4E91C024260002084F8351084F834
:1020700034006DE61000024058000240700002403B
:1020800088000240A0000240100402400854025898
:102090002DE9F05F28B190F83510022904D0802195
:1020A00041650120BDE8F09F904C904B0168183CC1
:1020B00018338E4ADFF83C92A1428D4CDFF838E2AB
:1020C0008E4FDFF83CB2DFF83CA28F4D8F4E31D0FF
:1020D00091422FD099422DD0A1422BD0494529D0F1
:1020E000714527D0B94225D0DFF810C20CF1180C89
:1020F00061451FD0DFF808C2ACF1600C614519D012
:10210000DFF8FCC1ACF1480C614513D0DFF8F0C139
:10211000ACF1300C61450DD0DFF8E4C1ACF1180C26
:10212000614507D0594505D0514503D0A94201D09A
:10213000B1422CD1DFF8B4C14FF0040880F83580EB
:10214000ACF1180C61451DD091421BD0994219D0B9
:10215000A14217D0494515D0714513D0B94211D0CD
:102160006648183081420DD065486038814209D0F8
:1021700063484838814205D061483038814201D0F7
:102180005F481838086820F001000860ABE0D1F81B
:1021900000C02CF00E08DFF854C1C1F80080ACF18B
:1021A000180C0168614527D0914225D0994223D06F
:1021B000A14221D049451FD071451DD0B9421BD045
:1021C000DFF838C10CF1180C614515D0DFF830C1CB
:1021D000ACF1600C61450FD0DFF824C1ACF1480CC4
:1021E000614509D0DFF818C1ACF1300C614503D06E
:1021F000DFF80CC1ACF1180CD1F800C02CF0010CC8
:10220000C1F800C0DFF8E4804FF0010C0168A8F1CC
:102210001808414546D0914244D0994242D0A1424B
:1022200040D049453ED071453CD0B9423AD0334ABE
:102230001832914236D0324A603A914232D0304A16
:10224000483A91422ED02E4A303A91422AD02C4A16
:10225000183A914226D0594524D0514522D0A9425E
:1022600020D0B1421ED02A4A91421BD0284A1432B3
:10227000914217D0264A2832914213D0244A3C3248
:1022800091420FD0224A503291420BD0204A643200
:10229000914207D01E4A7832914203D01C4A8C32B8
:1022A000914218D1016E0A6822F480720A6090F897
:1022B0005C20816D02F01F020CFA02F24A60D0E944
:1022C00019124A60C16E31B10A6822F480720A6044
:1022D000D0E91C124A600022016D80F835C080F8F8
:1022E000342001B188470020DCE6000028000240CD
:1022F000580002407000024088000240A0000240E6
:102300007004024088040240A0040240B804024065
:1023100008540258406D70472DE9FC5F0446F74EA3
:102320000020DFF8D88300904FF41652F44808F1EB
:102330001808A56DDFF8C493DFF8C0A3016809F1A0
:10234000300920680AF1480AB1FBF2F1B04201916C
:102350002F68D5F800C0DFF8ACB335D041468842CD
:1023600032D0484530D050452ED058452CD0E54984
:102370001831884228D0E3493031884224D0E149DD
:102380004831884220D0E04988421DD0DE491831CA
:10239000884219D0DC493031884215D0DA494831B9
:1023A000884211D0DFF860E30EF1600E70450BD06B
:1023B000D54A7832904207D0D34B9033984203D01D
:1023C000D149A83188427DD194F85C20082102F0DF
:1023D0001F0201FA02F23A424AD0B04232D04045DE
:1023E00030D048452ED050452CD058452AD0C54A2B
:1023F0001832904226D0C34A3032904222D0C14A8D
:10240000483290421ED0C04A90421BD0BE4A183279
:10241000904217D0BC4A3032904213D0BA4A483268
:1024200090420FD0B84A603290420BD0B64A783210
:10243000904207D0B44A9032904203D0B24AA832B8
:10244000904203D1026802F0040202E0026802F046
:1024500008026AB1026822F00402026094F85C008B
:1024600000F01F008140A960606D40F001006065D0
:1024700094F85C00012100F01F008140394240D0F7
:102480002068B04234D0404532D0484530D0504525
:102490002ED058452CD09B4A1832904228D0994AC9
:1024A0003032904224D0974A4832904220D0964A07
:1024B00090421DD0944A1832904219D0924A30323C
:1024C000904200E0AFE113D08F4A483290420FD0E3
:1024D0008D4A603290420BD08B4A7832904207D0BE
:1024E000894A9032904203D0874AA83290427DD1E7
:1024F000406910F0800F04D0A960606D40F00200C8
:10250000606594F85C00042100F01F0081403942AE
:102510003ED02068B04232D0404530D048452ED021
:1025200050452CD058452AD0764A1832904226D0B1
:10253000744A3032904222D0724A483290421ED0C1
:10254000714A90421BD0704A1832904217D06E4A9E
:102550003032904213D06C4A483290420FD06A4ACF
:10256000603290420BD0684A7832904207D0664A77
:102570009032904203D0644AA83290424ED1006813
:1025800010F0020F04D0A960606D40F00400606597
:1025900094F85C00102100F01F008140394258D0AF
:1025A0002068B04234D0404532D0484530D0504504
:1025B0002ED058452CD0534A1832904228D0514A38
:1025C0003032904224D04F4A4832904220D04E4A76
:1025D00090421DD04C4A1832904219D04A4A3032AB
:1025E000904215D0484A4832904200E014E00FD0A3
:1025F000454A603290420BD0434A7832904207D02D
:10260000414A9032904203D03F4AA832904207D1CB
:10261000006800F0080006E0006872E70068B7E7AD
:10262000006800F00400A0B1A960206801684903B7
:1026300004D50068000308D5A16C07E00168C9054E
:1026400003D4016821F008010160216C09B1204622
:10265000884794F85C00202100F01F008140394237
:1026600079D02068B04232D0404530D048452ED095
:1026700050452CD058452AD0224A1832904226D0B4
:10268000204A3032904222D01E4A483290421ED018
:102690001D4A90421BD01C4A1832904217D01A4A49
:1026A0003032904213D0184A483290420FD0164A26
:1026B000603290420BD0144A7832904207D0124ACE
:1026C0009032904203D0104AA832904203D1006861
:1026D00000F0100002E0006800F00200B0B3A96052
:1026E00094F835000428206801680FD049037ED58E
:1026F000006800032BD4616C2AE000001000024047
:1027000084030024700002401004024021F01601EE
:1027100001602068416921F080014161206C08B9A5
:10272000A06C20B12068016821F00801016094F8D4
:102730005C303F21012003F01F0300229940A96073
:1027400084F8350084F83420216D65E003E0E16B06
:1027500009B120468847606D00287DD0606DC007B4
:1027600059D02068042184F83510B0422BD0404560
:1027700029D0484527D0504525D0584523D09D49DC
:10278000884220D09B49183188421CD09949303169
:10279000884218D09849884215D097491831884204
:1027A00011D09549303188420DD093494831884243
:1027B00009D091496031884205D08F4978318842EB
:1027C00001D08D499031016821F00101016020683C
:1027D0000099019A491C0091914202D80168C907E9
:1027E000F6D10068C00710D003200FE0FFE70168B2
:1027F000C905ACD403680121002223F01003036053
:1028000084F8351084F83420A1E7012084F83500DD
:10281000002084F83400E16C00291DD002B020466D
:10282000BDE8F05F0847754988421DD073491431EF
:10283000884219D071492831884215D06F493C31FE
:10284000884211D06D49503188420DD06B496431B6
:10285000884209D0694900E084E07831884203D099
:1028600066498C3188427DD194F85C8004270168E8
:1028700008F01F0807FA08F717EA0C0F009746D070
:102880004F0744D500980F04686003D5C8033CD4B3
:10289000A16CC1E7880638D42068B0422DD05549D4
:1028A0006039884229D0484527D0504525D0584521
:1028B00023D05049884220D04E49183188421CD03C
:1028C0004C493031884218D04B49884215D04A498A
:1028D0001831884211D04849303188420DD04649DC
:1028E0004831884209D0704507D0904205D09842BF
:1028F00003D04149A831884203D1016821F0080181
:1029000002E0016821F004010160216C84E70227E4
:1029100007FA08F717EA0C0F00974ED08F074CD52F
:1029200000980F04686003D5C80344D4616C73E752
:10293000880640D42068B0422FD02E4960398842A2
:102940002BD0484529D0504527D0584525D0294976
:10295000884222D02749183188421ED0254930317B
:10296000884200E044E018D02349884215D022492B
:102970001831884211D02049303188420DD01E498B
:102980004831884209D0704507D0904205D098421E
:1029900003D01949A831884203D1016821F01401FC
:1029A00002E0016821F00A010160012184F835107C
:1029B000002084F83400E16B2EE7082202FA08F2C6
:1029C00012EA0C0F14D0090712D5016821F00E018C
:1029D000016094F85C100120002201F01F0100FA50
:1029E00001F16960606584F8350084F8342012E7ED
:1029F000BDE8FC9F880002401004024008540258C1
:102A00002DE9F05F044600F063FC002C07467DD002
:102A1000E34E022120684FF00308DFF888934FF05F
:102A20000005DFF884A3B042DFF880B334D0DC4A7D
:102A30001832904230D048452ED050452CD05845C1
:102A40002AD0DA4A1832904226D0D84A3032904200
:102A500022D0D64A483290421ED0D54A90421BD04E
:102A6000D34A1832904217D0D14A3032904213D014
:102A7000CF4A483290420FD0CD4A603290420BD0BC
:102A8000CB4A7832904207D0C94A9032904203D064
:102A9000C74AA83290427DD184F83510B04284F8FC
:102AA00034502ED0BE49183188422AD0484528D00B
:102AB000504526D0584524D0BC491831884220D0F2
:102AC000BA49303188421CD0B8494831884218D0C0
:102AD000B749884215D0B6491831884211D0B44957
:102AE000303188420DD0B2494831884209D0B049CE
:102AF0006031884205D0AE497831884201D0AC4976
:102B00009031016821F00101016008E027E100BF78
:102B100000F0DEFBC01B052801D920211CE1206844
:102B20000068C007F4D104F108002168D4E9053C2D
:102B30008E4685C809681043D4E907281F43636A95
:102B400038439C4F40EA0C001043394040EA0800EB
:102B5000042B40EA010003D1D4E90B1211430843CE
:102B6000954909686FF30F01B1F1005F0FD36168F8
:102B7000A1F12902052A08D9163A032A05D9083AEB
:102B8000012A02D94F39032901D840F48010CEF828
:102B9000000000E023E02068676A4069042F20F00D
:102BA000070047EA00070DD1D4E90A01074349B1FC
:102BB0002046FEF745F928B140206065012184F8E0
:102BC0003510CCE0206847612046FEF757F894F8AE
:102BD0005C203F2102F01F029140816054E0774A5F
:102BE00090421BD0754B1433984217D0734B283347
:102BF000984213D0714B3C3398420FD06F4B5033F7
:102C000098420BD06D4B6433984207D06B4B7833AE
:102C1000984203D0694B8C3398427DD184F83510AB
:102C200084F83450664B0168A26801EA030E402A1A
:102C300073D0802A72D00022D4E90378D4E9053118
:102C400042EAD70242EAD8085C4AD4E9077C48EA5B
:102C5000D30848EAD10141EAD701524241EA1C11A6
:102C6000142341EA0E01016020681044B0FBF3F028
:102C70008000E0652046FEF701F894F85C20012111
:102C800002F01F02914041602068B04257D0444991
:102C90001831884253D0484551D050454FD05845FF
:102CA0004DD042491831884249D04049303188429C
:102CB00045D03E494831884241D03D4988423ED0C6
:102CC0003B49183188423AD039493031884236D0B0
:102CD00037494831884232D03549603188422ED058
:102CE0003349783188422AD031499031884226D000
:102CF0002F49A831884222D0304988421FD02F491D
:102D0000143188421BD02D492831884217D02B49D5
:102D10003C31884213D002E01DE017E018E027495B
:102D2000503188420BD025496431884207D023496D
:102D30007831884203D021498C31884229D12046FC
:102D4000FDF7F6FFA06880280CD00CE0102273E796
:102D50004FF4804270E74021616584F8358001209E
:102D6000BDE8F09F6560216E20790860D4E9190103
:102D700041606068401E072808D82046FEF726F804
:102D8000E06E0560D4E91C01416002E0E56625675C
:102D900065670120656584F835000020E0E70000E4
:102DA0001000024040000240580002407000024003
:102DB000100402403F8010FE0010005C08540258CE
:102DC0000F00FEFF2DE9F84F04008C464FF0000085
:102DD000009014D094F83400012812D094F83550A3
:102DE0000120002184F83400012D0CD0C002606560
:102DF0000120009084F834100098BDE8F88F01207D
:102E0000FBE70220F9E78C4D0226206884F8356044
:102E1000A8428A4D61658A4E8A4FDFF82C82DFF81E
:102E20002C92DFF82CA2DFF82CB226D0A84224D0B6
:102E3000B04222D0B84220D040451ED048451CD0D8
:102E400050451AD0584518D08349884215D0824938
:102E50001831884211D08049303188420DD07E49E6
:102E60004831884209D07C496031884205D07A498E
:102E70007831884201D078499031016821F0010110
:102E8000016061462046FEF705F86B4920688842DC
:102E90002CD0A8422AD0B04228D0B84226D04045F3
:102EA00024D0484522D0504520D058451ED06A4AEB
:102EB00090421BD0684A1832904217D0664A30328E
:102EC000904213D0644A483290420FD0624A603236
:102ED00090420BD0604A7832904207D05E4A9032DE
:102EE000904203D05C4AA83290420CD1026822F092
:102EF0001E0242F016020260206C88B1206802684F
:102F000042F008020BE0026822F00E0242F00A02D0
:102F10000260206C20B12068026842F00402026066
:102F2000206888424BD0A84249D0B04247D0B8422E
:102F300045D0404543D0484541D050453FD0584505
:102F40003DD0454A90423AD0434A1832904236D05A
:102F5000414A3032904232D03F4A483290422ED0DD
:102F60003D4A603290422AD03B4A7832904226D085
:102F7000394A9032904222D0374AA83290421ED02D
:102F8000364A90421BD0354A1432904217D0334A09
:102F90002832904213D0314A3C3290420FD02F4A0F
:102FA000503290420BD02D4A6432904207D02B4AC7
:102FB0007832904203D0294A8C3290420DD1206E53
:102FC0000268D20303D5026842F480720260E06EA8
:102FD00018B1026842F4807202602068884226D0EC
:102FE000A84224D0B04222D0B84220D040451ED0C2
:102FF00048451CD050451AD0584518D0164988422B
:1030000015D015491831884211D013493031884202
:103010000DD011494831884209D00F4960318842AA
:1030200005D00D497831884201D00B4990310168B3
:1030300041F001010160DFE610000240280002407B
:1030400040000240580002407000024088000240E8
:10305000A0000240B8000240100402400854025888
:1030600070B5044600F034F90546601C02D00448EF
:103070000078044400F02CF9401BA042FAD370BD44
:10308000780300242DE9F84F03247D4D00234FF0F1
:1030900001094FF0B04B4FF00F0AE9E009FA03F7CE
:1030A0003A4076D00E7906F00306012E01D0022EAA
:1030B00018D1D0F808C04FEA430ECE6804FA0EF8D3
:1030C0002CEA080C06FA0EF646EA0C068660D0F8E2
:1030D00004C00E792CEA070CC6F300169E4046EA9F
:1030E0000C0646600E79F643B6070BD0C6684FEA69
:1030F00043088F6804FA08FC26EA0C0607FA08F76A
:103100003743C7600E7906F00306022E12D1DE089F
:103110000F694FEA437C00EB8606B646366A4FEAF3
:10312000DC6C0AFA0CF807FA0CF726EA08063743B3
:10313000CEF820700F7906684FEA430807F00307BE
:1031400004FA08FC07FA08F726EA0C06374307607A
:103150004E6816F4403F1CD04A4E376847F00207CD
:10316000376036689F0706F00206009623F00306D4
:1031700006F1B046B6463F0FD6F80864DFF808817E
:103180000AFA07FC404526EA0C0603D14FF0000C72
:1031900041E06CE0DFF8F4C0604502D14FF0010C73
:1031A00039E0DFF8ECC0604502D14FF0020C32E0AC
:1031B000DFF8E0C0604502D14FF0030C2BE0DFF8F0
:1031C000D8C0604502D14FF0040C24E0DFF8CCC039
:1031D000604502D14FF0050C1DE0DFF8C4C060452A
:1031E00002D14FF0060C16E0DFF8B8C0604502D1FE
:1031F0004FF0070C0FE0DFF8B0C0604502D14FF090
:10320000080C08E0DFF8A4C0604502D14FF0090CBB
:1032100001E04FF00A0C0CFA07FC4CEA060CCEF861
:1032200008C44F68DBF80060FF0226EA020600D5FA
:1032300016435F46CBF80060D1F804C0DBF80460A9
:103240005FEA8C2C26EA020600D516437E606E6883
:103250004F6826EA0206BF0300D516436E602E684B
:103260004F6826EA0206FF0300D516432E605B1C5A
:103270000A6832FA03F67FF411AFBDE8F88F000058
:1032800080000058F444025800000258000402581C
:1032900000080258000C025800100258001402588E
:1032A00000180258001C025800200258002402583E
:1032B0000069084000D0012070470AB18161704761
:1032C0000904FBE701480068000C70470010005C2F
:1032D0000148806870470000780300240248816834
:1032E000027811448160704778030024032010B5F0
:1032F00000F0D4F801F0B6FA0F4A104914681368C8
:10330000C4F3032203F00F038A5CC95C02F01F02BE
:1033100001F01F01D0400A4A20FA01F11160094969
:1033200008600F2000F010F808B1012010BD00F077
:1033300079F8002010BD000018440258E685000806
:10334000880300248403002470B50D4D04462878BA
:10335000A0B14FF47A71B1FBF0F00A490968B1FBF2
:10336000F0F001F0DCFD48B9102C07D20022214614
:10337000501E00F073F800206C6070BD012070BD1D
:103380007803002484030024154BF0B5083B4278F1
:1033900013491A600B680A1F23F001030B6043688E
:1033A0001360057BC67A827A437B2D07847B45EACE
:1033B0000665C77B90F809C0067A90F800E045EAF8
:1033C000C24040EA834040EA444040EA074040EAC5
:1033D0000C2040EA460040EA0E000860F0BD000004
:1033E000A0ED00E0BFF35F8F044800210368034AAB
:1033F00023F48033036070321160704724ED00E0E5
:10340000074A40F00100064970321060086840F435
:1034100080300860BFF34F8FBFF36F8F704700009D
:1034200024ED00E0054808B5016841F002010160A3
:10343000006800F00200009008BD0000F44402584B
:10344000002809DB410900F01F028900012001F179
:10345000E0219040C1F80001704700000E4BF0B42D
:103460001B680D46C3F30223C3F10706042E00D9DF
:103470000426191D072901D2002300E0DB1E0124C8
:1034800004FA06F19C40491E2940641E99401440EC
:103490002143F0BC04F011BA0CED00E0064900F045
:1034A000070210B54FF6FF040868044B204040EABD
:1034B00002201843086010BD0CED00E00000FA0582
:1034C000134970B50A68D243520705D5096801F05F
:1034D0000701814213D118E00A6822F00702024373
:1034E0000A60FFF7F5FE0A4D4FF47A760446083D70
:1034F00007E000BFFFF7ECFE001BB04201D901203E
:1035000070BD2868C0438004F4D4002070BD000062
:103510000C48025810B501F05FF905490968054AE1
:10352000C1F30211515C01F01F01C84010BD000041
:1035300020440258E68500084A4930B5494C0B1D25
:103540000A680C3409681D68246802F0030305F05A
:103550000102C1F30511C4F3CC04002914FB02F2EB
:1035600000EE102AF8EE400A76D0414A9FED3E1A4E
:10357000DFED3E1AB7EE000A23B1012B5AD0022B21
:1035800018D15CE0374C283C23689B0612D5394B98
:10359000246801EE901A1168C4F3C104F8EE612AA0
:1035A000E34001EE903AC1F30801F8EE611A81EEB2
:1035B000A22A07E002EE101A1168F8EE422A81EE04
:1035C000A22A45E001EE901A1168F8EE611A40EE69
:1035D000811A71EE800A62EE200AC1F3462101EEE3
:1035E000101AB8EE411A31EE001AC0EE811ABCEE84
:1035F000E11A80ED001A1168C1F3064101EE101ABC
:10360000B8EE411A31EE001AC0EE811ABCEEE11A92
:1036100080ED011A1168C1F3066101EE101AB8EECF
:10362000411A31EE000A80EE801ABCEEC10A80ED2C
:10363000020A30BD01EE901ADFED0F2A03E001EE21
:10364000901ADFED0E2A1168F8EE611A82EEA12AB7
:10365000C1F30801B6E7FFE7002101604160816026
:1036600030BD000028440258000000390024744C8A
:10367000304402580090D0030024744A001B374C99
:10368000494930B5484C0B1D0A68143409681D6857
:10369000246802F00303C5F30012C1F30531C4F33B
:1036A000CC04002914FB02F200EE102AF8EE400AC6
:1036B00075D03F4A9FED3D1AB7EE000A6BB1DFEDC2
:1036C0003D1A012B01D0022B64D002EE101A1168B2
:1036D000F8EE422A81EEA22A21E0334C283C2368EE
:1036E0009B0612D5344B246801EE901A1168C4F37E
:1036F000C104F8EE612AE34001EE903AC1F30801FB
:10370000F8EE611A81EEA22A0BE001EE901ADFEDCD
:103710002B2A00BFF8EE611A116882EEA12AC1F3CC
:10372000080101EE901A1168F8EE611A40EE811A54
:1037300071EE800A62EE200AC1F3462101EE101AF2
:10374000B8EE411A31EE001AC0EE811ABCEEE11A51
:1037500080ED001A1168C1F3064101EE101AB8EEAF
:10376000411A31EE001AC0EE811ABCEEE11A80ED6A
:10377000011A1168C1F3066101EE101AB8EE411A80
:1037800031EE000A80EE801ABCEEC10A80ED020A1A
:1037900030BD04E001EE901ADFED092ABAE70021FE
:1037A000016041608160F3E728440258000000395D
:1037B000384402580024744A0090D0030024744C0A
:1037C000001B374C494930B5484C0B1D0A681C3466
:1037D00009681D68246802F00303C5F30022C1F3E1
:1037E0000551C4F3CC04002914FB02F200EE102AA8
:1037F000F8EE400A75D03F4A9FED3D1AB7EE000A39
:103800006BB1DFED3D1A012B01D0022B64D002EE2B
:10381000101A1168F8EE422A81EEA22A21E0334CF8
:10382000283C23689B0612D5344B246801EE901A7D
:103830001168C4F3C104F8EE612AE34001EE903A46
:10384000C1F30801F8EE611A81EEA22A0BE001EE45
:10385000901ADFED2B2A00BFF8EE611A116882EE94
:10386000A12AC1F3080101EE901A1168F8EE611A5D
:1038700040EE811A71EE800A62EE200AC1F3462101
:1038800001EE101AB8EE411A31EE001AC0EE811A9C
:10389000BCEEE11A80ED001A1168C1F3064101EE99
:1038A000101AB8EE411A31EE001AC0EE811ABCEEC1
:1038B000E11A80ED011A1168C1F3066101EE101AD8
:1038C000B8EE411A31EE000A80EE801ABCEEC10A51
:1038D00080ED020A30BD04E001EE901ADFED092A06
:1038E000BAE70021016041608160F3E72844025893
:1038F00000000039404402580024744A0090D0036C
:103900000024744C001B374C2DE9F04FAC4A05469F
:10391000DFF8A8A280F48070DFF8AC9289B01311B0
:10392000AA4C0843A748AAF104064FF0805C4FF068
:1039300000582CD085F400770F4357D0DFF87CB2C5
:1039400085F480670F430BF1080B61D085F40067A5
:103950000F4374D085F480570F436ED085F4005721
:103960000F434FF480394FF4003E67D085F40027B1
:103970000F4371D085F480370F436ED085F48046B5
:103980000E436BD085F400420A4368D02AE0DAF88F
:10399000001001F00701052924D2DFE801F075BC11
:1039A0007D25B10006A8FFF7C7FD079809B0BDE85F
:1039B000F08F6846FFF764FE0098F7E703A8FFF76B
:1039C00001FF0398F2E72068C0F3C10022FA00F07B
:1039D000ECE72268D20571D561456FD11846E5E75D
:1039E0004145E3D00020E1E74846DFE7DAF8001080
:1039F00001F4E07180294FD004DC002944D0402933
:103A0000F0D188E0C029EFD0B1F5807FEAD177E02E
:103A1000DBF8001001F46001B1F5800F3CD004DC4C
:103A200091B3B1F5001FDDD175E0B1F5C00FDBD06A
:103A3000B1F5000FD6D163E001E018E030E0DBF82B
:103A4000001001F0E061B1F1007F25D008DCD9B1B0
:103A5000B1F1807FC6D15EE049E06CE079E09CE0A6
:103A6000B1F1407FC0D0B1F1806FBBD148E0DAF84E
:103A7000001001F4E041B1F5005F0DD005DC19B193
:103A8000B1F5805FAED146E094E0B1F5405FABD0D8
:103A9000B1F5804FA6D133E020688000A2D58DE734
:103AA000DAF8001001F4E021B1F5403F6CD006DCFB
:103AB00061B149457AD0714594D157E037E0B1F50D
:103AC000802F65D0B1F5A02F8CD10CE000F0A6FEC0
:103AD0006CE76846FFF7D4FD019867E703A8FFF796
:103AE00071FE049862E721688903F1D47AE7DBF874
:103AF000001011F440310ED0494510D07145F5D178
:103B00003168256801F040516D077FF562AF0029EB
:103B10007FF45FAF57E720680001E7D549E72068E9
:103B20008000E3D503A8FFF74DFE05983EE7226825
:103B30009203DBD554E7306810F480303AD0484522
:103B4000D4D120680001D1D56846FFF799FD0298CD
:103B50002CE7DBF8001001F0E041B1F1405F13D039
:103B600008DC71B1614521D04145BFD1206880009A
:103B7000B4D437E7B1F1804F0AD0B1F1A04FB2D041
:103B800030E7FFF7C7FC11E720684007AED51AE71A
:103B90002068C005AAD521E708E0DAF8001011F086
:103BA0004051A0D0614505D041459FD1206800011A
:103BB0008FD417E72068800198D5F3E65044025867
:103BC0000090D003006CDC020080BB00004402586F
:103BD0002DE9FE4F0546DFF8E48350F8081B00246A
:103BE000F64FC943019005F12800264608F1240844
:103BF000009008011DD4A86E50B1B0F5801F0CD004
:103C0000B0F5001F0ED0B0F5401F1ED001240FE00C
:103C1000386840F40030386017E00198022102F063
:103C200003FE03E00098022102F08EFE04000CD097
:103C300026462888C043C00523D4A86D05281ED277
:103C4000DFE800F00C11161B1B00AA6ED8F800105C
:103C500021F440111143C8F80010EAE7386840F435
:103C60000030386009E00198002102F0DDFD03E03A
:103C70000098002102F068FE044674B100E00124BF
:103C800026462888C043800528D4E86D80281ED0A9
:103C90000CDC90B140280ED114E0AA6DD8F80010C9
:103CA00021F007011143C8F80010EAE7C02813D03B
:103CB000B0F5807F10D001240FE0386840F4003068
:103CC000386009E00198002102F0AEFD03E00098A1
:103CD000002102F039FE04469CB126462888DFF810
:103CE000DC92C04309F12C0940052CD4D5F8A8007A
:103CF000B0F5800F20D00DDCA0B1B0F5001F0FD1C2
:103D000015E0EA6DD8F8001021F4E0711143C8F80D
:103D10000010E3E7B0F5C00F13D0B0F5000F10D0DE
:103D200001240FE0386840F40030386009E0019861
:103D3000002102F079FD03E00098002102F004FE6A
:103D400004467CB126462888C04300052DD4D5F80A
:103D5000AC00B0F1007F21D00EDCA8B1B0F1807FC3
:103D600010D116E0D5F8A820D9F8001021F4600190
:103D70001143C9F80010E6E7B0F1407F13D0B0F16D
:103D8000806F10D001240FE0386840F400303860B4
:103D900009E00198002102F047FD03E000980021AE
:103DA00002F0D2FD044674B126462868C043800163
:103DB0001FD4E86CD8B110280FD0202812D030289A
:103DC00015D0012414E0D5F8AC20D9F8001021F06A
:103DD000E0611143C9F80010E7E7386840F40030AB
:103DE000386004E00198022102F01EFD044674B11F
:103DF00026462888C043C0042BD4286EB0F5005F47
:103E000020D00DDCA0B1B0F5805F0FD115E06B487C
:103E1000EA6C2030016821F0300111430160E8E7CD
:103E2000B0F5405F13D0B0F5804F10D001240FE003
:103E3000386840F40030386009E00198002102F051
:103E4000F3FC03E00098002102F07EFD04468CB1F3
:103E500026462888C043800429D4686EB0F5403FC8
:103E600023D010DC08B3B0F5803F14D0B0F5003F8C
:103E70000FD115E02A6ED8F8001021F4E04111436B
:103E8000C8F80010E5E7B0F5802F0ED0B0F5A02FF0
:103E90000BD001240AE00198012102F0C5FC03E0E7
:103EA0000098012102F050FD044694B1264628886E
:103EB000C04340042AD4D5F8B000B0F1405F23D00D
:103EC00010DC08B3B0F1805F14D0B0F1005F0FD107
:103ED00015E06A6ED8F8001021F4E0211143C8F80B
:103EE0000010E4E7B0F1804F0ED0B0F1A04F0BD03E
:103EF00001240AE00198012102F096FC03E00098F9
:103F0000012102F021FD044674B126462888C043F1
:103F100000041FD4286FD8B1B0F1805F0ED0B0F18B
:103F2000005F10D0012414E0D5F8B020D9F80010BB
:103F300021F0E0411143C9F80010E7E7386840F488
:103F40000030386004E00198012102F06DFC044665
:103F500074B126462868C043C0011ED4A86CD0B1F5
:103F600001280ED0022811D0032814D0012413E018
:103F70002A6FD8F8001021F040511143C8F8001002
:103F8000E8E7386840F40030386004E00198022126
:103F900002F04AFC0446ACB126462868DFF81CB0A3
:103FA000C043ABF11C0B400252D40548016841F4F8
:103FB00080710160FFF78CF9824611E02C440258B1
:103FC00000480258FA48AA6C016821F00301114325
:103FD0000160E2E7FFF77CF9A0EB0A00642835D81E
:103FE000F4480068C005F5D58CBBDFF8C4A3B5F86C
:103FF000B4100AF1240ADAF8000001F4407100F468
:104000004070884211D0DAF80010DAF8002021F46C
:10401000407142F48032CAF80020DAF8002022F41D
:104020008032CAF80020CAF80010D5F8B400B0F504
:10403000807F1AD1FFF74CF9029012E0FFF748F9A0
:104040000299411A41F2883081420AD90324264656
:104050002878DFF85CA3C0430AF1080AC00721D022
:104060003CE0DAF800008007E8D5D5F8B410C1F3D9
:104070000120032858460DD0016821F47C510160CD
:10408000B5F8B420DAF80010C2F30B021143CAF8F5
:104090000010DDE7C84A036802EA111223F47C51DC
:1040A0001143ECE7E86F182816D005DCA0B108280A
:1040B00008D0102804D10AE020280DD028280BD0E1
:1040C00001240AE00198012102F0AEFB03E0009810
:1040D000012102F039FC044664B126462878C04329
:1040E00080071ED4A86F062819D2DFE800F0160C4E
:1040F00011161616EA6FDAF8001021F03801114394
:10410000CAF80010EAE70198012102F08DFB03E0F4
:104110000098012102F018FC04467CB100E0012463
:1041200026462878C04340071FD4D5F894000628B7
:1041300019D2DFE800F0160C11161616AA6FDAF87D
:10414000001021F007011143CAF80010E9E70198B7
:10415000012102F069FB03E00098012102F0F4FB69
:104160000446A4B100E0012426462878C043800616
:104170002BD4D5F89000B0F1405F24D011DC10B3FF
:10418000B0F1805F15D0B0F1005F10D116E0D5F826
:104190009420D9F8001021F007011143C9F800104C
:1041A000E3E7B0F1804F0ED0B0F1A04F0BD0012467
:1041B0000AE00198002102F037FB03E00098022199
:1041C00002F0C2FB044694B126462878C04340065C
:1041D0002BD4D5F89C00B0F5406F24D011DC10B37F
:1041E000B0F5806F15D0B0F5006F10D116E0D5F89E
:1041F0009020DAF8001021F0E0411143CAF80010D5
:10420000E3E7B0F5805F0ED0B0F5A05F0BD00124DE
:104210000AE00198002102F007FB03E00098022168
:1042200002F092FB044694B126462878C04300066B
:104230002BD4D5F8A000B0F5C04F24D011DC10B3BA
:10424000B0F5005F15D0B0F5804F10D116E0D5F86D
:104250009C20D9F8001021F4E0511143C9F8001056
:10426000E3E7B0F5004F0ED0B0F5204F0BD001249E
:104270000AE00198002102F0D7FA03E00098022139
:1042800002F062FB044654B126462878C04300077A
:104290001ED4D5F88400B0F5805F0AD00FE0D5F8C1
:1042A000A020D9F8001021F460411143C9F8001092
:1042B000EBE70098022102F047FB00B10126D5F898
:1042C0008420DAF8001021F440511143CAF800109C
:1042D0002878C043C00613D4D5F89800B0F5807F85
:1042E00005D10098022102F02FFB00B10126D5F87C
:1042F0009820D9F8001021F440711143C9F800103A
:104300002868C043000316D4D5F8A40038B1B0F52E
:10431000803F09D0B0F5003F0BD001240AE001989E
:10432000002102F081FA03E00098022102F00CFB68
:1043300004468CB126462868C043400322D4D5F8F1
:104340008800B0F5801F11D0B0F5001F13D0B0F574
:10435000401F15D0012414E0D5F8A420D9F800108E
:1043600021F440311143C9F80010E4E7386840F403
:104370000030386004E00098012102F0E5FA0446BC
:104380005CB126462868C043C00323D4286DA8B179
:10439000B0F5803F17D001241BE0D5F88820DAF86B
:1043A000001021F440111143CAF80010EAE70000A0
:1043B0004C44025800480258CFFFFF00386840F4D0
:1043C0000030386004E00198022102F02DFA044622
:1043D000E4B126462868C043800005D40098022135
:1043E00002F0B2FA00B101262868C04380031BD452
:1043F000D5F88000B0B1B0F5807F0FD0B0F5007F68
:1044000010D0B0F5407F0DD001240CE05A482A6D41
:10441000016821F4803111430160DBE7386840F422
:1044200000303860ECB326462868C043C00207D489
:104430006A6FD8F8001021F000411143C8F800104D
:104440002868C043C00008D4D5F8B820DBF80010B5
:1044500021F480411143CBF800102868C04380024A
:1044600007D4EA6ED8F8001021F080711143C8F823
:1044700000102868C04340000CD4DBF8001021F481
:104480000041CBF80010DBF80010D5F8BC20114338
:10449000CBF800102868C04308D437486A6D01681B
:1044A00000E018E021F04051114301602868C0434A
:1044B000000208D4D5F88C20DAF8001021F440016D
:1044C0001143CAF8001028790024C04300F001000D
:1044D00020430AD00FE0D5F88020DAF8001021F44C
:1044E00040711143CAF800109EE70198002102F0C4
:1044F0009BF900B106462879C04300F00200204332
:1045000005D10198012102F08FF900B10646287902
:10451000C04300F00400204305D10198022102F0BD
:1045200083F900B106462879C04300F00800204313
:1045300005D10098002102F007FA00B1064628795B
:10454000C04300F01000204305D10098012102F083
:10455000FBF900B106462879C04300F0200004436F
:1045600004D10098022102F0EFF900B916B1012040
:10457000BDE8FE8F0020FBE74C4402582DE9F05FB8
:1045800004000F467ED0DFF83882D8F8000000F033
:104590000F00B8420CD2D8F8001021F00F013943B7
:1045A000C8F80010D8F8000000F00F00B84269D138
:1045B0002078844D40070AD52069296801F07001F0
:1045C000884204D9296821F07001014329602078CC
:1045D0007C4E361D00070AD56069316801F0700114
:1045E000884204D9316821F070010143316020789C
:1045F000C0060AD5A069316801F4E061884204D997
:10460000316821F4E061014331602078DFF8B4B112
:1046100080060BF1080B0CD5E1695846DBF8002049
:1046200002F07002914204D9026822F070020A433B
:104630000260207880070AD5E068296801F00F0140
:10464000884204D9296821F00F01014329602078AC
:10465000C0073ED05B49A2682868183920F4706012
:10466000104328606068022818D0032819D0096810
:10467000012819D0490700294ADADFF848A1AAF130
:10468000080A00E044E0DAF8002022F007020243C2
:10469000CAF80020FEF71CFE814612E00968890373
:1046A000E9E709688901E6E7C905E4E7FEF710FED6
:1046B000A0EB090141F28830814202D90320BDE814
:1046C000F09F6168DAF8000000F03800B0EBC10F2D
:1046D000ECD1207880070AD5E068296801F00F0145
:1046E000884204D2296821F00F0101432960D8F8DB
:1046F0000010404601F00F01B9420BD9016821F0CA
:104700000F0139430160006800F00F00B84201D08A
:104710000120D4E7207840070AD52069296801F0F4
:104720007001884204D2296821F070010143296098
:10473000207800070AD56069316801F0700188426D
:1047400004D2316821F07001014331602078C00645
:104750000AD5A069316801F4E061884204D2316869
:1047600021F4E06101433160207880060CD5E169D5
:104770005846DBF8002002F07002914204D2026831
:1047800022F070020A43026000F06CF80E492A68B9
:104790002B68C2F3032203F00F038A5CC95C02F0AA
:1047A0001F0201F01F01D040084A20FA01F11160F8
:1047B0000749086007480068BDE8F05FFEF7C4BD20
:1047C0000020005218440258E6850008880300249F
:1047D000840300247C03002430B500F043F80B4A26
:1047E0000B490C4B15681468C5F3032204F00F0441
:1047F0008A5C095D02F01F0201F01F01D040064AE9
:1048000020FA01F119601060084630BD18440258C2
:10481000E6850008880300248403002400B5FFF720
:10482000DBFF05490968054AC1F30211515C01F03B
:104830001F01C84000BD00001C440258E685000866
:1048400000B5FFF7C9FF05490968054AC1F3022110
:10485000515C01F01F01C84000BD00001C4402581B
:10486000E6850008454970B545480968434B103B4B
:1048700011F0380208D00111082A03D0102A0BD0F9
:10488000182A0BD0084670BD19688906FBD519682F
:10489000C1F3C101C84070BD3A4870BD3749374DBA
:1048A00018310C1D24350A68096826682D6802F045
:1048B000030406F00102C1F30511C5F3CC0515FB95
:1048C00002F200EE102AB8EE400AE9B32F4ADFEDFB
:1048D0002E0AB7EE001A6CB1DFED2D1A012C01D0B3
:1048E000022C43D002EE101A1068F8EE422A81EE34
:1048F000A22A1EE01C68A40611D51B6801EE901ABE
:104900001168C3F3C103F8EE612AD84001EE900AA2
:10491000C1F30800F8EE611A81EEA22A0BE001EE65
:10492000901ADFED1C2A00BFF8EE611A106882EEC3
:10493000A12AC0F3080001EE900AF8EE611A40EED9
:10494000201A31EE810A00E015E022EE000A10681C
:10495000C0F34620401C00EE900AF8EE600A80EE9C
:10496000201ABCEEC10A10EE100A70BD01EE901ABA
:10497000DFED092AD8E7002070BD0000104402587E
:104980000090D003006CDC02000000393044025873
:104990000024744A0024744C001B374C2DE9F05F4E
:1049A00004007DD0FF4F2078FE4D1837DFF8F493D8
:1049B000103DC00748D0D9F80000396800F0380031
:1049C000102815D0182803D101F0030002280FD0B9
:1049D0006068B0F5803F12D010B1B0F5A02F18D0AC
:1049E000286820F480302860286820F4802009E0BE
:1049F0002868800328D560680028D2D024E0286881
:104A000040F480302860606888B1FEF761FC06469B
:104A100009E0286840F480202860F0E7FEF758FCA1
:104A2000801B64286FD828688003F7D50CE0FEF758
:104A30004FFC064605E000BFFEF74AFC801B6428D9
:104A4000F0D828688003F7D4207841F20308D54EC7
:104A50000C3E800769D5D9F80000396810F038009D
:104A60000ED0182801D188070AD0E06890B32968D1
:104A700021F0190101432960FEF72AFC824631E04A
:104A80002868400702D5E06800288AD0E1682868D5
:104A900020F0190008432860FEF71AFC824607E060
:104AA000DFE000BFFEF714FCA0EB0A000228B9D833
:104AB00028684007F6D500BFFEF704FC40451BD828
:104AC0002069402812D0316821F47C3141EA00305D
:104AD00030602AE018E000BFFEF7FAFBA0EB0A0006
:104AE00002289FD828684007F6D5E5E7306820F40B
:104AF0007C3040F40030EBE7207C316821F0FE414F
:104B000041EA0060E4E70DE1286820F00100286038
:104B1000FEF7DEFB824605E0FEF7DAFBA0EB0A00BB
:104B200002288DD828684007F6D42078C0065DD5C5
:104B3000D9F80000DFF86CB2396800F03800ABF14A
:104B4000040B082810D0182803D101F00300012815
:104B50000AD0E0690028286838D040F0800028603A
:104B6000FEF7B6FB824623E02868C00523D5E0693E
:104B7000802876D11FE0206A202821D0316821F0DA
:104B8000F84141EA8060306030E000BF94F82010C6
:104B9000DBF8002022F07C5242EA0161CBF80010E1
:104BA00024E000BFFEF794FBA0EB0A00022898D88F
:104BB0002868C005F6D5FEF785FB4045E6D8DAE75C
:104BC000306820F0F84040F08040DCE720F08000C2
:104BD0002860FEF77DFB064605E000BFFEF778FB88
:104BE000801B02289DD82868C005F7D420780007CC
:104BF00029D56C486169643000298046016811D06C
:104C000041F001010160FEF763FB064605E000BFCD
:104C1000FEF75EFB801B0228C9D8D8F80000800789
:104C2000F6D510E021F001010160FEF751FB0646C8
:104C300005E000BFFEF74CFB801B022872D8D8F8B5
:104C400000008007F6D42078800623D5A0690028CC
:104C5000286810D040F480502860FEF739FB0646E3
:104C600005E036E1FEF734FB801B02285AD828689D
:104C70008004F7D50EE020F480502860FEF728FB72
:104C8000064604E0FEF724FB801B02284AD8286869
:104C90008004F7D4207840074FD5DFF80C81D8F88E
:104CA000001041F48071C8F80010FEF711FB0646B1
:104CB00005E000BFFEF70CFB801B642832D8D8F853
:104CC0000000C005F6D5374EA068603601280AD02E
:104CD00008B1052813D0306820F00100306030683A
:104CE00020F0040002E0306840F001003060A0686D
:104CF00041F2883A90B1FEF7EBFA80460AE030685C
:104D000040F004003060EEE7FEF7E2FAA0EB0801A5
:104D1000514507D830688007F6D50EE0FEF7D8FA7F
:104D2000804607E084E000BFFEF7D2FAA0EB08015E
:104D300051457DD830688007F6D4606AB0B3DFF89B
:104D40006480D9F8001008F120084FF6F87B08F1CC
:104D50000409C1F3C2010329A8F1040A69D0022899
:104D6000286820F08070286003D0FEF7B1FA04466E
:104D700084E0FEF7ADFA064605E000BFFEF7A8FAAC
:104D8000801B022877D828688001F7D4E26A40F2B5
:104D9000F331386854F8283F884340EA021018433A
:104DA000386004E01044025800480258B5E0217B06
:104DB000434622894FF4FE0C208A4FF0FE474902F9
:104DC000267D521E401EA1F50071C2F308088AB26A
:104DD000761E0CEA004042EA08020243504607EA07
:104DE00006610A431A60DAF8002022F00102CAF8CC
:104DF0000020D9F80020266A22EA0B0242EAC60205
:104E0000C9F80020DAF80010A26921F00C01114362
:104E1000CAF800100168E26921F002011143016043
:104E2000016841F480310160016841F4003101E022
:104E300021E027E00160016841F480210160016800
:104E400041F001010160286840F080702860FEF7A1
:104E50003FFA044605E000BFFEF73AFA001B0228BD
:104E600009D828688001F7D557E000BFFEF730FA6F
:104E7000001B022802D90320BDE8F09F28688001AA
:104E8000F4D44AE039680128D8F8000021D0A26A99
:104E900001F0030393421CD1E26AC1F305118A4277
:104EA00017D1216BC0F30802491E8A4211D1616BF0
:104EB000C0F34622491E91420BD1A16BC0F30642BA
:104EC000491E914205D1E16BC0F30660491E814243
:104ED00001D00120D0E7A16C4E46D9F80000C0F304
:104EE000CC00814219D0DAF80000554620F00100CC
:104EF000CAF80000FEF7ECF94FEA0007FEF7E8F900
:104F0000B842FBD0A26C306820EA0B0040EAC20035
:104F10003060286840F0010028600020ACE7401EA7
:104F2000B0F1807F10B501D3012010BD4FF0E02417
:104F300060610F21601702F0C0FC0020A061072112
:104F4000216110BD70477047704700002DE9F043A4
:104F500090F83C20012A42D0012280F83C2051F8F0
:104F60000C4BDFF880804FF0000991E8680051E9B0
:104F7000022723F44073B1F80CC03B43CF6923F4FC
:104F800080631343026823F40063234323F48053B4
:104F900043EA050323F4005343EA060323F4804362
:104FA00043EA07030C3923F47023424543EA0C43D8
:104FB00002D00D4CA2420CD18D8C23F47006D1E9A5
:104FC000073446EA055121F08071194321F000733E
:104FD0002343536480F83C900020BDE8F083022016
:104FE000FBE700000000014000040140F0B590F82C
:104FF0003C20012A3BD01F4E012480F83C40022275
:1050000080F83D2002681C4D5368B242D2F808C0B7
:1050100001D0AA4203D14F6823F470033B430F68C9
:1050200023F070031F4357600268B24213D0B2F1FD
:10503000804F10D0114B9A420DD0114B9A420AD09A
:10504000104B9A4207D0AA4205D00F4B9A4202D089
:105050000E4B9A4204D189682CF080031943916069
:10506000002180F83D4080F83C100846F0BD022049
:10507000F0BD0000000001400004014000040040B9
:1050800000080040000C00400018004000400140B3
:1050900010B5040003D094F83D0010B107E00120E2
:1050A00010BD002084F83C00204600F023F80220C8
:1050B00084F83D002068211D01F0BCFD012084F82A
:1050C000480084F83E0084F83F0084F8400084F8EB
:1050D000410084F8420084F8430084F8440084F8D6
:1050E000450084F8460084F8470084F83D0000201D
:1050F00010BD000008B500680B49884212D10B486A
:10510000016841F02001016000680022022100F0E6
:10511000200000903720FEF7A1F9BDE808403720B5
:10512000FEF78EB908BD000000140040E8440258A4
:1051300090F83D10012901D001207047144B022244
:10514000016880F83D20994214D0B1F1804F11D010
:10515000104881420ED0104881420BD00F48814246
:1051600008D00F48814205D00E48814202D00E4837
:10517000814207D188680D4A1040062806D0B0F554
:10518000803F03D0086840F00100086000207047AD
:10519000000001400004004000080040000C0040F6
:1051A00000040140001800400040014007000100D9
:1051B00090F83D10012901D001207047174A0221C3
:1051C00080F83D100168CB6843F00103CB600068B4
:1051D000904214D0B0F1804F11D0114988420ED0C6
:1051E000104988420BD01049884208D00F498842A4
:1051F00005D00F49884202D00E49884207D1816804
:105200000D4A1140062906D0B1F5803F03D0016850
:1052100041F00101016000207047000000000140E2
:105220000004004000080040000C00400004014061
:10523000001800400040014007000100016841F2F1
:105240001113CA6822F00102CA6001680A6A1A4290
:1052500007D10A6A9B101A4203D10A6822F00102A0
:105260000A60012180F83D10002070472DE9F041CF
:1052700004000D4603D094F83D0018B108E0012069
:10528000BDE8F081002084F83C00204600F04CF896
:10529000244A022084F83D00206881681140816022
:1052A0002068211D01F0C6FC226840F20336AF6978
:1052B00040F60C4C2B684FF2F00EA86891680B4337
:1052C0009169B14341EA07210843D5E9031720EA70
:1052D0000C00D5E9076C20EA0E00D2F820E03F016F
:1052E00040EA062668686D69314347EA0C379360E7
:1052F00023680F4301219F612EF0AA0242EA0513A1
:1053000022681843106284F8481084F83E1084F82C
:105310003F1084F8441084F8451084F83D100020B4
:10532000AEE70000F8BFFEFF70B586B00546142159
:105330006846FBF7DAF82A4900242B680225284A38
:1053400008392848B3F1804F1ED0274EB34219D1F7
:10535000136843F008031360126802F00802059214
:105360000A6842F001020A60096801F00101059132
:1053700003210091CDE90154CDE90345694600BF01
:10538000FDF780FE06B070BD136843F001031360A3
:10539000126802F0010205920A6842F001020A60F6
:1053A0000A6802F0010205920A6842F002020A60ED
:1053B0000968012601F002010591F1030091CDE990
:1053C0000154CDE903466946FDF75CFE08200090D4
:1053D000CDE9015405486946CDE90346D0E7000010
:1053E000E844025800000258000C00400004025833
:1053F00070B504464FF0020094F83E2094F83F50F8
:1054000094F8446094F8453021B104290DD0012A64
:105410001AD113E0012A17D1012E15D184F83E00CC
:1054200084F844000021206820E0012D0CD1012BDC
:105430000AD184F83F0084F8450014E0012D03D11F
:10544000012E01D1012B01D0012070BD84F83E0056
:1054500084F83F0084F8440084F845000122206865
:10546000002101F04FFC20680122042101F04AFCD8
:105470002068016841F001010160002070BD7047A3
:105480002DE9F041044600680027C6680569A907B0
:1054900013D5B10711D5FA1E0261012121772068C9
:1054A00080698007204602D0FFF7E9FF04E000F0A2
:1054B000CFF8204600F0B2F92777680716D57007B5
:1054C00014D5226802206FF0040111612077206852
:1054D000806910F4407F204602D0FFF7D0FF04E03F
:1054E00000F0B6F8204600F099F92777280715D57F
:1054F000300713D5226804206FF00801116120776E
:105500002068C0698007204602D0FFF7B8FF04E09A
:1055100000F09EF8204600F081F92777E80616D5BE
:10552000F00614D5226808206FF010011161207771
:105530002068C06910F4407F204602D0FFF79FFF2B
:1055400004E000F085F8204600F068F92777E807C6
:1055500008D0F00706D021686FF0010008612046EE
:1055600000F03EFA280601D4A80408D5300606D576
:1055700021686FF4025008612046FFF7E4FCE8055B
:1055800008D5300606D521686FF480700861204682
:10559000FFF7D8FC680608D5700606D521686FF0BD
:1055A00040000861204600F02BFAA8060AD5B00694
:1055B00008D521686FF0200008612046BDE8F04161
:1055C000FFF7C2BCBDE8F08110B586B004461421D7
:1055D0006846FAF78AFF194A00202368184993425F
:1055E0004FF0020212D10B6843F010030B60096800
:1055F000012301F0100105914FF420610091CDE9E4
:105600000120CDE903030F48694612E00E4CA34286
:1056100011D10B6843F004030B60096801F0040129
:10562000059140210091CDE90120CDE90302074811
:105630006946FDF727FD06B010BD000000000140DF
:10564000E0440258001002580004004000080258CC
:10565000704770B5044690F83C0000260D460128BE
:105660000BD0012084F83C000C2A4AD007DC82B120
:10567000042A20D0082A06D131E0022070BD102A69
:1056800053D0142A63D00126002084F83C00304611
:1056900070BD206801F044FB2068816941F0080179
:1056A00081612068816921F00401816120682A6993
:1056B0008169114311E0206801F084FB2068816951
:1056C00041F4006181612068816921F48061816118
:1056D00020682969826942EA01218161D4E7206852
:1056E00001F0BCFB2068C16941F00801C16120687C
:1056F000C16921F00401C16120682A69C1691143AF
:1057000011E0206801F0F6FB2068C16941F40061F6
:10571000C1612068C16921F48061C1612068296983
:10572000C26942EA0121C161AEE7206801F01EFCB6
:105730002068416D41F0080141652068416D21F00C
:105740000401416520682A69416D114311E0206818
:1057500001F046FC2068416D41F40061416520681C
:10576000416D21F48061416520682969426D42EAFA
:105770000121416588E710B5040003D094F83D008D
:1057800010B107E0012010BD002084F83C00204645
:1057900000F022F8022084F83D002068211D01F06D
:1057A00049FA012084F8480084F83E0084F83F005C
:1057B00084F8400084F8410084F8420084F84300F3
:1057C00084F8440084F8450084F8460084F84700D3
:1057D00084F83D00002010BD08B500680C498842DF
:1057E00008D10C48016841F001010160006800F037
:1057F00001000BE00849884209D1064808380168D1
:1058000041F002010160006800F00200009008BD54
:1058100000000140F04402580004004070470000BE
:1058200030B504464FF0020269B1042912D00829AC
:1058300017D00C291CD0102921D094F8430001283E
:1058400024D0012030BD94F83E000128F9D184F81D
:105850003E201DE094F83F000128F2D184F83F205B
:1058600016E094F840000128EBD184F840200FE0C6
:1058700094F841000128E4D184F8412008E094F82C
:1058800042000128DDD184F8422001E084F8432061
:105890000122206801F036FA1B4B20681B491C4A84
:1058A000984209D0884207D0904205D0194DA842AD
:1058B00002D0194DA84203D1456C45F4004545641A
:1058C0002068984212D0B0F1804F0FD0134B98420D
:1058D0000CD0134B984209D0124B984206D0884204
:1058E00004D01149884201D0904207D181680F4A03
:1058F0001140062906D0B1F5803F03D0016841F080
:1059000001010160002030BD0000014000040140A1
:1059100000400140004401400048014000040040B4
:1059200000080040000C0040001800400700010083
:1059300030B50022044600680D4601F0E3F941F25B
:105940001111224B20688A1098420BD0204B9842AC
:1059500008D0204B984205D01F4B984202D01F4BD5
:10596000984209D1036A0B4206D1036A134203D15C
:10597000436C23F4004343642068036A0B4206D15E
:10598000016A114203D1016821F0010101604FF069
:1059900001005DB1042D0CD0082D0DD00C2D0ED0C2
:1059A000102D0FD084F84300002030BD84F83E0055
:1059B000FAE784F83F00F7E784F84000F4E784F85A
:1059C0004100F1E784F84200EEE7000000000140EA
:1059D00000040140004001400044014000480140F3
:1059E000044900680968884203D19FED030BFAF768
:1059F000C7BF70472007002400000000000000001F
:105A0000704730B590F88410012918D0012280F831
:105A100084202421C0F888100022202401680B680B
:105A20000D6823F0005325F001050D604266016802
:105A30000B60C0F8884080F88420104630BD0220FA
:105A400030BD7047704770B5044690F88400012857
:105A50001DD0012284F884202420C4F88800206806
:105A60000568026822F0010202602068826822F064
:105A700060620A438260204601F0ECFA226820212D
:105A800000201560C4F8881084F8840070BD0220DE
:105A900070BD70B5044690F8840001281DD0012225
:105AA00084F884202420C4F88800206805680268EF
:105AB00022F0010202602068826822F060420A43FC
:105AC0008260204601F0C6FA22682021002015607D
:105AD000C4F8881084F8840070BD022070BD70473F
