:020000040800F2
:10000000603D00208502000879730008B969000886
:1000100075730008C13F000849880008000000000F
:10002000000000000000000000000000D17A00087D
:10003000DF4000080000000065790008077C000828
:100040009F0200089F0200089F0200089F0200080C
:100050009F0200089F0200089F020008E14000087C
:10006000EB400008F5400008FF4000089F02000830
:10007000C53F00089F0200089F0200089F02000879
:100080009F0200089F0200089F0200089F020008CC
:100090009F0200089F0200089F0200080941000813
:1000A000E57C0008FD7C00089F0200089F02000814
:1000B0009F0200089F0200089F0200089F0200089C
:1000C0009F0200089F0200089F0200089F0200088C
:1000D0009F0200089F0200089F0200089F0200087C
:1000E0009F0200089F0200089F0200089F0200086C
:1000F0009F0200089F0200089F0200089F0200085C
:100100009F0200089F0200089F0200089F0200084B
:100110009F0200089F0200089F0200089F0200083B
:100120009F0200089F0200089F0200089F0200082B
:100130009F0200089F0200089F0200089F0200081B
:100140009F0200089F0200089F0200089F0200080B
:100150009F0200089F0200089F0200089F020008FB
:100160009F0200089F0200089F0200089F020008EB
:100170009F0200089F0200089F0200080000000084
:100180009F0200089F02000800F002F800F06AF8E1
:100190000AA090E8000C82448344AAF10107DA45E2
:1001A00001D100F05FF8AFF2090EBAE80F0013F0CA
:1001B000010F18BFFB1A43F001031847A8D800002D
:1001C000C8D800000A444FF0000C10F8013B13F0AF
:1001D000070408BF10F8014B1D1108BF10F8015BA0
:1001E000641E05D010F8016B641E01F8016BF9D193
:1001F00013F0080F1EBF10F8014BAD1C0C1B09D1EA
:100200006D1E58BF01F801CBFAD505E014F8016B5B
:1002100001F8016B6D1EF9D59142D6D370470000ED
:100220000023002400250026103A28BF78C1FBD8FF
:10023000520728BF30C148BF0B6070471FB50DF093
:100240002BFB00F06FFC0400002000210CF092FD5D
:10025000401C6060002000210CF076FDE0601FBDB6
:1002600010B510BD00F0A0FE1146FFF7E7FF0BF040
:100270009BFF01F0FDF803B4FFF7F2FF03BC01F0B0
:1002800063F900000948804709480047FEE7FEE798
:10029000FEE7FEE7FEE7FEE7FEE7FEE7FEE7FEE736
:1002A00004480549054A064B70470000C17C000818
:1002B0008901000860370020603D0020603900207F
:1002C0006039002053EA020C00F069802DE9F04B00
:1002D0004FF00006002B1FBFB3FA83F503FA05F4B5
:1002E00024FA05F65E4012BF1643B2FA82F502FA0E
:1002F00005F4C5F120051EBF22FA05FC44EA0C04F2
:10030000203556EA044C4FEA144418BF641C4FF0E1
:1003100000084FF00009904271EB030C39D300291B
:1003200019BFB1FA81F701FA07F6B0FA80F700FABF
:1003300007F6C7F120071EBF20FA07FC46EA0C06A5
:100340002037B6FBF4FCA7EB0507103F07F01F0BA7
:10035000CBF120060CFA0BFB2CFA06F644BFB34691
:100360000026202FA4BF5E464FF0000B5BEA060C70
:1003700008BF4FF0010B19EB0B09ABFB027C48EBFC
:100380000608C01B06FB02CC0BFB03CC71EB0C0177
:10039000C1E70B46024641464846BDE8F08B13B51F
:1003A0004FF000004FF00001AFF30080BDE81C40AB
:1003B000704700000FB400B58DB010A909900091EE
:1003C0000B904FF0FF300A9000200C9006487844C4
:1003D0000690064878446A4607900F9909A800F0ED
:1003E00071FB0DB05DF814FB130700002B07000034
:1003F00040EA0103024630B59B0710D14FF00134AB
:1004000000E008C208C91D1B9D4315EAC41FF8D0AF
:1004100013F0FF0102F8011B0DD01B0AF8E711F8D9
:10042000013B002B02F8013B05D011F8013B002BEA
:1004300002F8013BF3D130BD032A40F2308010F0C6
:10044000030C00F0158011F8013BBCF1020F62446F
:1004500098BF11F801CB00F8013B38BF11F8013B00
:10046000A2F1040298BF00F801CB38BF00F8013BAD
:1004700011F0030300F02580083AC0F0088051F81D
:10048000043B083A51F804CBA0E80810F5E7121D28
:100490005CBF51F8043B40F8043BAFF30080D20747
:1004A00024BF11F8013B11F801CB48BF11F8012B13
:1004B00024BF00F8013B00F801CB48BF00F8012B36
:1004C000704710B5203AC0F00B80B1E81850203AC0
:1004D000A0E81850B1E81850A0E81850BFF4F5AFE4
:1004E0005FEA027C24BFB1E81850A0E8185044BF6E
:1004F00018C918C0BDE810405FEA827C24BF51F8DB
:10050000043B40F8043B08BF7047D20728BF31F8CE
:10051000023B48BF11F8012B28BF20F8023B48BF1F
:1005200000F8012B70474FF000020429C0F0128040
:1005300010F0030C00F01B80CCF1040CBCF1020F96
:1005400018BF00F8012BA8BF20F8022BA1EB0C016B
:1005500000F00DB85FEAC17C24BF00F8012B00F861
:10056000012B48BF00F8012B70474FF0000200B587
:10057000134694469646203922BFA0E80C50A0E8C6
:100580000C50B1F12001BFF4F7AF090728BFA0E874
:100590000C5048BF0CC05DF804EB890028BF40F840
:1005A000042B08BF704748BF20F8022B11F0804F82
:1005B00018BF00F8012B7047704770477047000064
:1005C0002DE9FF4F06468BB00878FF2806D0491C5E
:1005D0002D2805D000244FF0000908E000200CE091
:1005E0000124F8E709EB8903491C00EB430908786B
:1005F000FF28F7D114B1C9F1000081461078002519
:100600002C46AA4629462D2801D02B2804D1521C5D
:100610002D2813D0002082468B461078FF280FD05B
:100620004FF0000C0A21521CA5FB017804FB01814C
:1006300005FB0C11C5194BEB0104EEE70120EAE7BD
:10064000002108464FF00000BAF1000F02D000EB85
:1006500080004008C0F38157012F01DD4FF0FF37C4
:100660000E9955EA040009EB01080BD04FF002097E
:1006700018F5FA7F16DA4FEACA70002F706008DDAD
:10068000012007E04FEACA70C6E900B00FB0BDE82C
:10069000F08F0020306000F049FAC0F80090182177
:1006A000084616E0B8F5FA7F18DD002F02DAF748A1
:1006B000784401E0F6487844D0E90010C6E900101B
:1006C00040EACA70706000F031FAC0F8009014215E
:1006D00008460FB0BDE8F04F0DF0E8B8002108461D
:1006E0004FF00000B8F10001099002DAC7F10002F2
:1006F00000E03A4601DAC8F1000106A800F0DEFB8E
:1007000006AB93E8070003AB83E8070044F23E0022
:100710005BEA04010090584604D144F21E012C46C5
:100720005D460091210C0904014306D1009924047F
:1007300044EA15442D041039009104F07F4101432F
:1007400006D10099240244EA15642D02083900916B
:1007500004F07041014306D10099240144EA157464
:100760002D01091F009104F04041014306D1009979
:10077000A40044EA9574AD00891E009104F0004184
:10078000084304D100986D196441401E00904FF059
:1007900001033A466846B8F1000FCDE9014503A9C7
:1007A00002DD01F064F901E001F037F9BAF1000F60
:1007B00004460D4601D084F00044002108464FF065
:1007C0000000099940F2FF77484010F00C0F07D164
:1007D00024F00040284303D0C4F30A50B84212D199
:1007E00000F0A4F9C0F80090C4F30A50B8420AD14E
:1007F000A8487844D0E90010C6E9001004F0004190
:100800000843706042E7C6E900543FE72DE9FF4F17
:100810001F464FF0000A4FF0FF38454691B0D7E928
:100820000146CDF83CA000F07DF9C0680168405C4D
:100830001090B96912986D1C8847396A81468847BB
:100840000028F6D1B9F1FF3F0AD0002E24F4D0647D
:1008500011DDB9F12B0F08D0B9F12D0F0BD102E04A
:10086000404615B013E744F48064B96912986D1CD2
:100870008847761E8146600504A901D52D2000E039
:100880002B20002E01F1010B0DF130088DF8100026
:100890003FDDB9F1690F08D0B9F1490F05D0B9F1C1
:1008A0006E0F02D0B9F14E0F1CD13B4601A8009546
:1008B00080E85002DDE912126FF002000DF05DF8E1
:1008C000C11CCED10EE0B96912986D1C88478146D3
:1008D0001398761E44F4007405600F98401C002E97
:1008E0000F9016DDB9F1300FEDD0B9F1780F02D0CD
:1008F000B9F1580F0DD10F9801280AD13B46CDE927
:100900000054DDE91212001F02960DF034F8C11CEC
:10091000A7D1109989453ED144F0800406E013998F
:10092000681CAAF1010A44F400740860B9696D1CDE
:100930001298761E884730288146F0D02BE0109917
:10094000894505D1200603D4761E44F0800418E0C2
:1009500048460AF028FE08B3761E0DF123018B45A8
:1009600044F4007408D2A9F130000BF8010B200602
:1009700007D5AAF1010003E0200602D40AF1010024
:100980008246A00502D51399681C0860B9691298BF
:100990006D1C88478146002ED1DC53E0002E51DDCE
:1009A000B9F1650F02D0B9F1450F4BD1A00549D57A
:1009B000B9696D1C1298761E24F440748847002E85
:1009C00081460CDD2B2804D0B9F12D0F07D144F45A
:1009D0008074B96912986D1C8847761E8146E005BF
:1009E00001D52D2100E02B2108F8011BCDF8008056
:1009F00021E0761E0DF13901884544F400740CD2D3
:100A0000A9F1300010F0FF0088F8000002D1009931
:100A1000884509D908F1010806E0E00501D51E481E
:100A200001E042F20F708246B96912986D1C884746
:100A3000814613980560002E04DD48460AF0B3FD98
:100A40000028D6D1F96912988847FF2053468BF8C1
:100A5000000088F8000000200A900B9004AA0CA95E
:100A60000AA8FFF7ADFDA00502D46FF00100F8E67B
:100A700014F0240F12D0E0071CD13868DDE90A1207
:100A8000031D3B600068C0E9001213E0D8D30000EA
:100A9000CAD300008ED20000F1D8FFFF0AA9684631
:100AA0000AF06EFDE00705D13868009A011D396033
:100AB000006802602846D4E6026811441378016099
:100AC00018467047D1600549794451610449794419
:100AD000116200211161114600F036B8EDFFFFFFF1
:100AE00063000000426842B1016811F8013B23B184
:100AF000521EC0E90012184670470121C160881ECD
:100B0000704742685AB1C368016843B983688B4231
:100B100005D0491E521CC0E90012002070474FF05A
:100B2000FF3070470048704720370020004870476A
:100B30000037002010B5044600F05CFA0068005D44
:100B400000F0010010BD00002DE9F34F4FF0000A46
:100B50000C4656468DB001200C9001F10C000B9014
:100B600062690B9801219047051E2DD0252D2CD0B0
:100B7000216A8847C0B162690B9801219047216AB8
:100B800088470028F7D16269411E0B98904700E022
:100B9000761CA1690D988847216A88470028F7D1FB
:100BA000E1690D988847DBE7A1690D988847A8425D
:100BB000074601D1761CD3E7E1690D9888477F1C71
:100BC00002D1BAF1000F6FD06BE162690B98002778
:100BD0003D46394690472A2804D162690B98012185
:100BE00090470125DFF8D08262690B980121904778
:100BF000A0F130010A290AD24745E5DC07EB87015D
:100C000000EB4107303FDFD445F01005ECE7E90683
:100C100001D46FF000476C280AD04C2814D0682803
:100C200015D06A280DD074281CD07A281AD01DE05F
:100C300062690B98012190476C2802D045F00405A9
:100C400014E045F002050DE045F020050AE0626978
:100C50000B9801219047682802D045F0080505E06F
:100C600045F4006562690B9801219047C4E901577A
:100C700065283DD019DC58287AD00CDC452837D0BF
:100C800004DC252826D041289ED131E046282FD0EB
:100C9000472899D12CE05B2877D0612828D0632899
:100CA0007CD0642823D15AE0F6E06F2848D008DCD5
:100CB00066281DD067281BD0692821D06E2816D140
:100CC00027E0702845D0732868D0752847D0782849
:100CD0000DD14DE0A1690D988847252805463FF4C0
:100CE00069AFE1690D9888476D1C3FF46AAFD8E0A1
:100CF0000D9923466A466FF001000CF03AFEC5E0FC
:100D000045F0400023464FF000026060A80736D44B
:100D10003EE0E8077FF447AF2068011D21600068CE
:100D2000290501D506701BE7290701D5068017E7BD
:100D3000A90703D5F117C0E9006111E706600FE7C5
:100D400045F0400023464FF008026060A80716D423
:100D50001EE040F60E0125EA0100606016E045F055
:100D6000400023464FF00A026060A80707D40FE056
:100D700045F040006060A80708D5234610220D9971
:100D80006FF00100AFF3008080E007E010222346FF
:100D90000D996FF00100AFF3008077E04FF000098C
:100DA00063284F46C8464B46CB4602D05B2806D048
:100DB00038E0E80601D40120A060012732E0626932
:100DC000D4F80CB00B98012190475E2807D14FF062
:100DD000010949466269D4F80CB00B989047216923
:100DE00039B900210A4603AB43F82120491C0829E0
:100DF000FADBD8B3216949B308F1010862690B989D
:100E0000012190475D28F4D1B9F1000F09D00020ED
:100E100003A951F82020D24341F82020401C082883
:100E2000F7DB03AB2069002820794FEA40701ED021
:100E30005B462246CDF80080CDE901970D99002848
:100E40006FF0010020DAAFF300801FE0C11703AAA2
:100E500000EBD1614B1121F01F0102EB8302411A1B
:100E600013680120884003431360C7E719E00D9918
:100E7000224600286FF00100009702DAAFF30080ED
:100E800004E0AFF3008001E0AFF3008000280ADA4D
:100E9000401C06D10C9820B14FF0FF300FB0BDE8D8
:100EA000F08F5046FAE7E90701D10AF1010A06443A
:100EB00000200C9054E60000CCCCCC0C2DE9F0477F
:100EC000814616468AB0354878440DC88DE80D0035
:100ED00032487844801C03AC0DC884E80D0041F60C
:100EE0009B300844372190FBF1F290FBF1F5A5F11E
:100EF000800501FB12041B3C02D56442012000E086
:100F00000020DFF898A080460027FA44AAF1BE0A24
:100F10000EE0E0070AD03246684607EB470101239E
:100F20000AEB810100F08EFD8DE8070064107F1C44
:100F3000002CEED1194F7F44AE3F19E0E80715D0E1
:100F400007EB04100DF1180A90E80E008AE80E0075
:100F5000C068F04201D1981908903246012306A9D1
:100F600003A800F06FFD03AB83E807006D10641C5D
:100F7000002DE3D14FF0010332466946B8F1000F6E
:100F800003A802D000F034FD01E000F05BFDC9E9E8
:100F90000001C9F808200AB0BDE8F08780CB000046
:100FA00000487047003700207546FFF7F9FFAE464E
:100FB00005006946534620F00700854618B020B565
:100FC000FFF76EF9BDE820404FF000064FF0000734
:100FD0004FF000084FF0000B21F00701AC46ACE8E1
:100FE000C009ACE8C009ACE8C009ACE8C0098D464E
:100FF0007047000010B5FFF795FD001D10BD00BF44
:1010000075BD000010B5FFF791FD006810BD10B56B
:101010000446FFF78BFD046010BD00002DE9FF4F73
:101020001F464FF03C0987B04FF00042DDE9141035
:1010300001F10108DDF858A002EA405003900020B9
:1010400005908346054604460490B969461E0898F3
:101050008847AAF1010A0290BAF1000F3BDD02981D
:101060002E2815D0102100F060FA00282EDB4FF05A
:10107000010B0599014317D0B9F1000F0BDB4A466C
:10108000C11700F03FFA05430C43A9F1040905E03C
:10109000012004900BE008B145F001050120059006
:1010A000049820B9361D02E0049800B1361FB969D2
:1010B000089808F101088847BBF1000FAAF1010A5E
:1010C0000290C9D00999C1F80080C5E7029870283C
:1010D00008D0502806D0F96908988847BBF1000F5E
:1010E00014D04FE0002002900120BBF1000F0490CB
:1010F00009D0B969089808F101088847AAF10109DF
:10110000B9F1000F07DCF969089888476FF0010012
:101110000BB0BDE8F08F2B2804D02D280CD14FF058
:10112000FF300490B969089808F101088847A9F1CF
:101130000109B9F1000FE6DD411CE4D00A2100F0FD
:10114000F4F90028DFDB029908F1010801EB8101C5
:1011500000EB41000290B969089888470A2100F025
:10116000E4F9099AA9F10109B9F1000FC2F8008068
:1011700001DD0028E7DAF9690898884704990298A0
:1011800000FB016655EA040004D004F04041090068
:1011900002D006E0039898E0A40044EA9574AD00FC
:1011A000B61E04F00041080002D16D196441761E9C
:1011B000159810F0240F03D04FF00B095C4803E0A2
:1011C0004FF028096FF07D008246564507DAAAEBFA
:1011D00006018944B9F1410F01DD4FF041090120B9
:1011E0000021A9F1010200F08DF9024628400B46CA
:1011F0002140084301D0012100E00021501E02914E
:1012000043F1FF3128402140084301D0012000E094
:1012100000200299834651EA0B014FD00021084675
:101220004FF00000039900F4400039B100EB80005A
:101230004FF4400100EBD07001EA600080150128F6
:1012400002DD4FF0FF3000E013D0401C36D0029892
:1012500060B3BBF1000F0CD14A460120002100F021
:1012600051F928402140084301D0012000E000202E
:10127000E0B101204A46002100F044F9034640193C
:101280000A4661412D1A8C4111D3B9F1400F09DD95
:10129000159810F0240F02D0AAF1340603E0AAF149
:1012A000170600E0761C00254FF0004406E05B1EA8
:1012B00042F1FF3220EA030521EA0204CAF10100EB
:1012C000B04206DA1B4903980843019000200090C1
:1012D0000EE0039AC4F3D321E80A0A43164940EA10
:1012E00044500A433146CDE9000268460AF051F9FC
:1012F000159810F0240F0BD01598C00715D1386839
:10130000DDE90012031D3B600068C0E900120CE03B
:1013100002A869460AF034F91598C00705D1386863
:10132000029A011D3960006802604046F0E6000044
:1013300002FCFFFF0000F07F0000F03F2DE9FF4FAF
:1013400092461D4685B04FF00041DDE9124BDDE9C4
:1013500014727F1E01EA4B50414940F0FF4940EAB8
:101360000108002122F020004928049102D04E28D3
:1013700028D04CE03BA0012607C88DE80700A969EA
:101380000698641C88477F1E014606D41DF8060097
:1013900018B121F0200181420BD0E96906988847F5
:1013A000032E34D0082E32D06FF0010009B0BDE812
:1013B000F08F761C032E01D0082EE0D1601CCAF8F5
:1013C0000000DCE7A9690698641C88477F1E2AD4C0
:1013D00020F02000412826D1A9690698641C88477E
:1013E0007F1E20D420F020004E281CD1A969069829
:1013F000641C88477F1E48F4002849F48009CAF815
:10140000004001D4282806D0E969069888475FEA99
:10141000CB7012D022E0A9690698641C88477F1E11
:1014200001D4002803DAE96906988847BCE729282F
:10143000F1D1641CCAF80040E9E71BF0240F07D083
:1014400028680499031D2B600068C0E9001805E0B6
:101450002868021D2A600068C0F800902046A5E7B1
:101460000000F07F494E46494E49545900000000A3
:1014700010B50446AFF300802046BDE81040FEF7EB
:10148000FABE00004FF0013C50F8042B51F8043B29
:101490009A4221D1A2EB0C03934313EACC1317D148
:1014A00050F8042B51F8043B9A4215D1A2EB0C03DF
:1014B000934313EACC130BD150F8042B51F8043B9F
:1014C0009A4209D1A2EB0C03934313EACC13DBD06D
:1014D0004FF00000704700BFD01A01BAB1FA81F195
:1014E00001F0180122FA01F0CB40C1F12001DBB27A
:1014F000C0B2C01A2CFA01F3D11A914311EAC311F8
:10150000E6D17047B2F120030AD5C2F1200301FAF7
:1015100002F120FA03F300FA02F041EA03017047F6
:1015200000FA03F14FF0000070473A2800D230383B
:1015300020F02002412A01D3A2F13700884201D3D2
:101540004FF0FF307047000001491820ABBEFEE7A6
:1015500026000200704720F07F4C80EA030023F051
:101560007F47ACEB070303F57C5300F0004003F129
:10157000FF032DE980494FEA154B09B44FEA1443A4
:1015800025EA0B4E24EA03480FF2042606EB132744
:1015900049083E785FEA320203FB0667C7F5000799
:1015A00007FB06F64FEA54374FEAD64606F1020625
:1015B00007FB066CCCF1005C4FEA1C472CEA074C99
:1015C00007FB06F40CFB06F504EB15464FEA9616EE
:1015D00034BF00204FF000404FEAD13706FB07FC34
:1015E0004FEA1C4C0CFB0BF7D21B03FB0CF761EB17
:1015F00007010CFB0EF7B0EB074072EB17420CFB38
:1016000008F734BFA2EB0742B2EB074261EB174188
:101610004FEA0C444FEA910706FB07FC4FEA1C4CCB
:101620000CFB0BF7B0EBC74072EB573203FB0CF728
:1016300034BFA2EBC742B2EBC74261EB57310CFBA0
:101640000EF7B0EBC70072EB57720CFB08F734BF14
:10165000A2EBC702B2EBC70261EB5771039F4FEADF
:10166000816141EA921104EBCC044FEAD1374FEA91
:10167000826206FB07FC42EA90124FEA80604FEA62
:101680001C4C0CFB0BF7D21B03FB0CF761EB0701A7
:101690000CFB0EF7B0EB074072EB17420CFB08F7A0
:1016A00034BFA2EB0742B2EB074261EB17414FEAAE
:1016B0008C554FEA910704EB9C2406FB07FC4FEA8C
:1016C0001C4C0CFB0BF7B0EBC74072EB573203FB23
:1016D0000CF734BFA2EBC742B2EBC74261EB573104
:1016E0000CFB0EF7B0EBC70072EB57720CFB08F760
:1016F00034BFA2EBC702B2EBC70261EB577115EB27
:101700004C254FEA816141EA92114FEA82624FEA29
:10171000D13742EA901206FB07FC44F100044FEA7D
:1017200080604FEA1C4C0CFB0BF7D21B03FB0CF741
:1017300061EB07010CFB0EF7B0EB074072EB1742B1
:101740000CFB08F734BFA2EB0742B2EB074261EB98
:10175000174115EB1C154FEA813141EA92414FEADE
:10176000823242EA90424FEA80304FEA0C7644F1EE
:10177000000448EA03434EEA0B484FF0000EB2EB78
:10178000080C71EB030724BF624639464EEB0E0E80
:101790004FF0000B0018524149414BEB0B0BB2EBE1
:1017A000080C71EB03077BF1000B24BF624639463E
:1017B0004EEB0E0E4FF0000B0018524149414BEB1F
:1017C0000B0BB2EB080C71EB03077BF1000B24BF92
:1017D000624639464EEB0E0E51EA020718BF46F03C
:1017E000010616EB0E7655F1000254F1000103D507
:1017F000BDE88901BDE80088BDE88901BDE8004871
:10180000B619524141EB0101A3F1010370478080F9
:101810007F7E7D7C7B7A797877767675747372714A
:1018200071706F6E6E6D6C6C6B6A6A696868676602
:1018300066656464636362616160605F5F5E5E5D94
:101840005D5C5C5B5B5A5A59595858575756565508
:1018500055555454535352525251515050504F4F6A
:101860004F4E4E4D4D4D4C4C4C4B4B4B4A4A4A49BA
:1018700049494848484747474746464645454544FD
:1018800044444443434343424242424141410000B5
:1018900046EA0646A3F570534FEA164646EA425614
:1018A0004FEAD22242EA415210B54FEAD121A3F1C8
:1018B000010300F02FF820F0004000F1020C00F0CE
:1018C000004701EB00501146BCF5006F40EA0700ED
:1018D00000D210BDBAF1000F0AD01CB503B44FF00E
:1018E00004004FF004014FF000000FBCBDE81040B1
:1018F0004FF00001BBF1010FB9BF04484FF0FF31B9
:101900000348002140EA070010BD00BFFFFFEF7F42
:101910000000F07F002B9C4630D477002BD01CB504
:101920004FEA370703B44FF010004FF01001BAF13F
:10193000000F06D0BCF1000FDCBF40F0080040F003
:1019400008014FF000000FBCBDE810400BF1010B87
:10195000BBF1010F08BF5FEA170722BF12F10102B6
:1019600011F101014FF0004143F1000300F000408C
:1019700043EA00007047F9D35708D0E746EA064625
:1019800013F1400F4FEA16461FDD13F1200FDFBFA2
:1019900016430A46002120335B42BED0C3F1200724
:1019A00046EA064602FA07F74FEA164646EA0706EF
:1019B000C3F1200722FA03F201FA07F721FA03F133
:1019C0004FF0000342EA0702A7E746EA020646EAAA
:1019D00006464FEA164646EA0106BCBF46EA0646F8
:1019E000360C4FF000034FF000024FF0000194E777
:1019F0002DE9804C9A46934670B491E8380007C8A8
:101A000031EA400C48BF34EA430C03D5FFF7A3FD8D
:101A1000FFF780FFF0BCBDE8008C2DE9804C9A46B2
:101A2000934670B491E8380007C831EA400C48BFCB
:101A300034EA430C03D5FFF78EFDFFF729FFF0BC16
:101A4000BDE8008C2DE9804C9A46934670B491E82D
:101A5000380007C810F0804F08BF13F0804F03D143
:101A600000F01AF8FFF756FFF0BCBDE8008C2DE936
:101A7000804C9A46934670B491E8380007C810F03D
:101A8000804F08BF13F0804F03D100F005F8FFF737
:101A9000FFFEF0BCBDE8008C20F07F4780EA030029
:101AA00023F07F4C07EB0C03A3F57C5300F00040C0
:101AB000A3F1FE0392F0000F00F0B38095F0000F49
:101AC00000F077802DE901494FEA11404FEA1446B2
:101AD00021EA004800FB06FC24EA064708FB06F65C
:101AE00007FB08F800FB07F718EB06484CEB164C11
:101AF0004FEA124B18EB07484FEA15464CEB1740DC
:101B000022EA0B4E0BFB06FC25EA06470EFB06F607
:101B100007FB0EFE0BFB07F71EEB064E4CEB164CBD
:101B20004FF000061EEB074E4CEB174B18EB0B0863
:101B300040F1000018EB0E0B58EB000840F10000DC
:101B40008F1A4FF000013CBFC943661B14BFB5EBB1
:101B5000040C00213CBFC943F61B4FEA17444EEA70
:101B60008E0E27EA04454FEA1C4704FB07622CEA65
:101B7000074C05FB07F70CFB05F604FB0CFC16EB0A
:101B8000074642EB174216EB0C4642EB1C421BEB9E
:101B9000060658EB0202414146EA9E0601D5BDE821
:101BA0000189B619524141EB0101A3F10103BDE8DE
:101BB00001894FEA14454FEA114724EA054621EA14
:101BC000074C05FB07F406FB07F70CFB06F105FBCA
:101BD0000CFC11EB074144EB17444FEA124711EBA1
:101BE0000C4144EB1C4422EA074C05FB07F206FBC0
:101BF00007F70CFB06F605FB0CFC16EB074642EB61
:101C0000174216EB0C4642EB1C456A1854F10001D2
:101C100048BF7047B619524141EB0101A3F10103DE
:101C2000704795F0000F37D04FEA11424FEA144742
:101C300021EA024624EA074C02FB07F106FB07F7FC
:101C40000CFB06F402FB0CFC14EB074441EB1741C0
:101C50004FEA154714EB0C4441EB1C4125EA074CB5
:101C600002FB07F506FB07F70CFB06F602FB0CFC74
:101C700016EB074645EB174516EB0C4645EB1C42A9
:101C8000121951F1000148BF7047B619524141EB9A
:101C90000101A3F1010370474FEA14454FEA1147D0
:101CA00024EA054621EA074C05FB07F106FB07F786
:101CB0000CFB06F24FF0000605FB0CFC12EB074292
:101CC00041EB174112EB0C4251EB1C4148BF7047EE
:101CD000921841EB0101A3F10103704710B52DEDFE
:101CE000028BB0EE408AF0EE608A9FED0B0B53EC56
:101CF000102B51EC180B0BF0A3FC06D2B0EE480AE7
:101D0000F0EE680ABDEC028B10BD51EC180B0BF025
:101D100047F841EC100BF5E7000000000000000060
:101D200070B5044602F082FD054600224FF4807132
:101D3000074802F075FD00BF02F078FD401BA0428D
:101D4000FAD301221102024802F06AFD70BD0000C0
:101D5000000C024070B50546002408E0054830F844
:101D600014102A46044802F05BFD601CC4B2082C23
:101D7000F4DB70BD2C0000200008024070B5044662
:101D80000D46044830F814102A46034802F048FD76
:101D900070BD00002C0000200008024010B5044671
:101DA0000020FFF7D7FF01212046FFF7E7FF10BD16
:101DB00010B50446034830F814100022024802F01F
:101DC0002FFD10BD2C0000200008024010B5044675
:101DD000034830F814100122024802F021FD10BD22
:101DE0002C0000200008024002480068406A00B24F
:101DF00070470000480B002002480068406A00B2AB
:101E000070470000D80B0020002002490968486292
:101E100070470000480B0020002002490968486212
:101E200070470000D80B002010B53C21034804F097
:101E300023F83C21024804F01FF810BD480B002095
:101E4000D80B002010B504462D4951F8240007F0A6
:101E500006FD2B4951F8240006F064FD284951F88D
:101E6000240007F00DFC264951F82400254A264994
:101E700007F0CDF8224951F82400244A244907F0FC
:101E8000D6F81F4951F82400012107F0BCF91C497C
:101E900051F824000122002107F081FA184951F875
:101EA00024000122114607F07AFA154951F824005E
:101EB0004FF48042012107F0D3FA114951F8240070
:101EC0004FF40012002107F0CBFA0D4951F824001D
:101ED00044F6206107F0FFFA094951F82400122264
:101EE000002107F065FB064951F824000E2201216C
:101EF00007F05EFB024951F8240007F068FB10BDB3
:101F0000541A00205A0000205900002058000020D8
:101F10005400002010B5012000F03EF97D2801DAC0
:101F2000012010BD0020FCE710B5042000F034F9BA
:101F3000782801DA012010BD0020FCE710B503204D
:101F400000F02AF9782801DA012010BD0020FCE712
:101F500010B50024C4EBC4028C4B03EB82018C4A05
:101F600052F8240006F0E8FEC4EBC400874901EBF8
:101F700080000089B0F5FA6F23DAC4EBC40001EBEE
:101F8000800000890A281CDDC4EBC4017F4A02EBF3
:101F90008101098900EE901AF8EE600AB0EE600A3D
:101FA00004EB44017B4A02EBC10005F0F3FDBCEEFB
:101FB000C00A10EE100AC4EBC401744A02EB81019E
:101FC0000881601CC4B2C4EBC402704B03EB8201F5
:101FD0006F4A52F8240006F0AFFEC4EBC4006B4910
:101FE00001EB80000089B0F5FA6F23DAC4EBC4007E
:101FF00001EB800000890A281CDDC4EBC401634AA0
:1020000002EB8101098900EE901AF8EE600AB0EE49
:10201000600A04EB44015F4A02EBC10005F0BAFD1F
:10202000BCEEC00A10EE100AC4EBC401574A02EB22
:1020300081010881601CC4B2C4EBC402534B03EBA2
:102040008201534A52F8240006F076FEC4EBC40025
:102050004E4901EB80000089B0F5FA6F23DAC4EB3A
:10206000C40001EB800000890A281CDDC4EBC40118
:10207000464A02EB8101098900EE901AF8EE600AE7
:10208000B0EE600A04EB4401424A02EBC10005F0E5
:1020900081FDBCEEC00A10EE100AC4EBC4013B4A3D
:1020A00002EB81010881601CC4B2C4EBC402374B4F
:1020B00003EB8201364A52F8240006F03DFEC4EBE1
:1020C000C400324901EB80000089B0F5FA6F23DAD1
:1020D000C4EBC40001EB800000890A281CDDC4EBBE
:1020E000C4012A4A02EB8101098900EE901AF8EE38
:1020F000600AB0EE600A04EB4401264A02EBC1001C
:1021000005F048FDBCEEC00A10EE100AC4EBC40195
:102110001E4A02EB81010881601CC4B2C4EBC402F8
:102120001A4B03EB82011A4A52F8240006F004FE0F
:10213000C4EBC400154901EB80000089B0F5FA6FCB
:1021400023DAC4EBC40001EB800000890A281CDDFF
:10215000C4EBC4010D4A02EB8101098900EE901A1B
:10216000F8EE600AB0EE600A04EB4401094A02EBA3
:10217000C10005F00FFDBCEEC00A10EE100AC4EB62
:10218000C401024A02EB8101088110BDD80E002073
:10219000541A0020600E002010B50446C4EBC4029F
:1021A0000C4B03EB82010C4A52F8240006F0C4FDEC
:1021B000C4EBC400074901EB80000089192805DD44
:1021C000C4EBC40001EB8000008910BD4FF4FA603D
:1021D000FBE70000D80E0020541A002010B504467A
:1021E000C4EBC4020C4B03EB82010C4A52F82400EE
:1021F00006F0A2FDC4EBC400074901EB8000008992
:10220000192805DDC4EBC40001EB8000008910BD76
:102210004FF4FA60FBE70000D80E0020541A0020AB
:1022200070B54625002208216E4802F0F9FA002216
:1022300001216D4802F0F4FA002240216A4802F0C0
:10224000EFFA00220421684802F0EAFA0022102185
:10225000654802F0E5FA284602F094F901221021BF
:10226000614802F0DDFA284602F08CF95F486049C7
:10227000086160480969C1F8580152205C49096940
:1022800081F85C015C4A1179594A106906F0A9FF8E
:10229000594800795649096981F85C010420FFF723
:1022A000D1FD01221146504802F0BAFA284602F048
:1022B00069F952484E4948604E484968C1F858018A
:1022C00052204B49496881F85C014B4A5178484A91
:1022D000506806F086FF484840784549496881F8CB
:1022E0005C010120FFF7AEFD012204213E4802F00F
:1022F00097FA284602F046F941483D49C8603D48F2
:10230000C968C1F8580152203949C96881F85C018F
:10231000394AD178364AD06806F063FF3648C0782B
:102320003349C96881F85C010320FFF78BFD012266
:1023300008212C4802F074FA284602F023F93148AB
:102340002B4908602B480968C1F8580152202849D8
:10235000096881F85C01284A1178254A106806F05E
:1023600040FF254800782249096881F85C01002077
:10237000FFF768FD012240211B4802F051FA284670
:1023800002F000F920481A4988601A488968C1F8A3
:10239000580152201649896881F85C01164A9178E3
:1023A000134A906806F01DFF134880781049896829
:1023B00081F85C010220FFF745FD00240EE004EBEC
:1023C0004401124A02EBC1009FED111ADFED110A20
:1023D0009FED110A05F0C8FB601CC4B2052CEEDBB2
:1023E00070BD000000040240000C0240BC1500203B
:1023F000541A0020F40A00204C0000202411002070
:10240000341400209C0F0020AC120020600E00202D
:102410006F12833A0AD7233C295C8F3D10B52DED0E
:10242000028B0E4890ED000B53EC102B0C4890EDF6
:10243000000B51EC100B0BF045F941EC180B09485F
:1024400090ED000B53EC102B51EC180B0BF03AF9FC
:1024500041EC100BBDEC028B10BD0000E00300202E
:10246000D0030020E803002010B51D4803F0BAFF98
:102470004FF47A7303221B49194804F034FA9FED94
:102480001A0B1B4880ED000B9FED170B194880EDD0
:10249000000B9FED150B184880ED000B052002F096
:1024A00071F84FF47A7303220E490D4804F01BFAB9
:1024B0009FED0D0B0E4880ED000B9FED0B0B0D48B3
:1024C00080ED000B9FED080B0B4880ED000B052005
:1024D00002F058F821220949014804F011F910BD11
:1024E000B00C0020C8030020000000000000000025
:1024F000E0030020D8030020D0030020601E00204D
:1025000010B5094890ED000B53EC102B074890EDE7
:10251000000B51EC100B0BF0D5F841EC100B0448FC
:1025200080ED000B10BD0000E0030020D003002070
:10253000E803002010B5FFF797FF21220249034866
:1025400004F0DEF810BD0000601E0020B00C00207A
:1025500010B52DED028B0420FFF71EFE78280DDD4F
:102560000320FFF719FE782808DD0320FFF716FC8B
:10257000274890ED000B00F0BDF846E00420FFF77F
:102580002DFE78281EDC0020FFF708FC00F096F8EE
:102590002048406C90ED001BB0EE410AF0EE610A5D
:1025A00053EC102B1A4890ED001B51EC110B0BF063
:1025B00089F841EC180BB0EE480AF0EE680A00F01A
:1025C00099F822E00320FFF709FE78281DDC062099
:1025D000FFF7E4FB00F0BCFB0F48406C90ED001BE4
:1025E000B0EE410AF0EE610A53EC102B084890ED72
:1025F000001B51EC110B0AF011FC41EC180BB0EE72
:10260000480AF0EE680A00F075F8BDEC028B10BDC8
:1026100078000020301C0020A01C002010B50446CB
:10262000642C01DD642404E014F1640F01DA6FF01E
:102630006304002C14DD1E48027880211D4802F03E
:10264000EFF81B48007808B9012000E0002002469E
:102650002021184802F0E4F817480068446326E097
:10266000002C15DA1248007808B9012000E000209B
:10267000024680210F4802F0D3F80D48027820214D
:102680000C4802F0CDF860420B49096848630EE03F
:102690006CB900228021074802F0C2F800222021F4
:1026A000044802F0BDF8002003490968486310BDE2
:1026B00080000020000C0240900B002010B5042088
:1026C000FFF76AFD04460AF056FE064A03C20648B2
:1026D00000680AF050FE054A03C2054804F098FE5F
:1026E00010BD000018010020A003002010010020F0
:1026F000301C002010B52DED028BB0EE408AF0EEBC
:10270000608A144880ED008BFFF788FE124880ED48
:10271000000B124804F07CFE114890ED000B51ECC8
:10272000100B0AF0CBFD0F4909680C1A2046FFF781
:1027300075FF0B4890ED000B51EC100B0AF0BEFD3D
:10274000084909684418204600F0B0FABDEC028B35
:1027500010BD00006801002058010020101D00205D
:1027600060010020600000202DE9F0412DED0A8B72
:1027700005460C46FFF748FB204600F035FB00F00D
:10278000DFFE28460AF0F7FD41EC1C0B9FED1F0B06
:1027900053EC102B0AF0FEFB41EC1B0B9FED1D0BC5
:1027A00053EC102B0AF04EFE41EC1A0B9FED1B0B65
:1027B00053EC102B0AF046FE41EC190B9FED190B60
:1027C00053EC102B0AF0E6FB41EC180B0AF0A6FDC7
:1027D0001FFA80F802F02AF806464FF47A7700BF15
:1027E000FFF702FB404504DA02F020F8801BB842F4
:1027F000F6D300F09DFE00F04CFB142000F0F4FA3C
:10280000FFF702FBBDEC0A8BBDE8F081A744D55968
:102810008CA263400000000000C067400000000080
:10282000008056400000000000002C4010B5FFF76B
:10283000EBFA00F085FE00BF0C48007802280AD0B1
:10284000FFF7D2FA0A490988884204DA0120FFF723
:10285000C5FC3728F0DC00F06BFEFFF7D5FA00F07E
:1028600018FB40F246500249088010BD04000020C9
:10287000B801002010B504462146124804F046FF76
:102880002146114804F042FF2146104804F03EFF63
:1028900021460F4804F03AFF21460E4804F036FF67
:1028A00021460D4804F032FF21460C4804F02EFF6B
:1028B00021460B4804F02AFF21460A4804F026FF6F
:1028C00010BD0000701A0020E01A0020501B0020EC
:1028D000C01B0020301C0020A01C0020801D0020F8
:1028E000F01D0020101D0020254880ED180B80ED04
:1028F0001A1B244880ED180B80ED1A1B9FED222B2C
:10290000234880ED182B9FED232B80ED1A2B2348B5
:1029100080ED180B80ED1A1B9FED212B224880EDD6
:10292000182B9FED222B80ED1A2B9FED1D2B21489C
:1029300080ED182B9FED1D2B80ED1A2B1E4890ED7E
:10294000002B1E4880ED182B1D4890ED002B1B48D6
:1029500080ED1A2B184890ED002B1A4880ED182BAB
:10296000174890ED002B174880ED1A2B9FED0C2B8C
:10297000154880ED182B9FED0D2B80ED1A2B70471D
:10298000701A0020E01A002000000000000034C08F
:10299000501B00200000000000003440C01B00203D
:1029A0000000000000002EC0301C002000000000CD
:1029B00000002E40A01C002088010020801D002067
:1029C00090010020F01D0020101D002009498860A2
:1029D000094988600949886009498860094988600F
:1029E00009498860094988600949886009498860FF
:1029F00070470000701A0020E01A0020501B0020D1
:102A0000C01B0020301C0020A01C0020801D0020C6
:102A1000F01D0020101D00201CB56F4804F0FCFDC7
:102A20006E4804F0F9FD6E4804F0F6FD6D4804F0C0
:102A3000F3FD6D4804F0F0FD6C4804F0EDFD6C48CA
:102A400004F0EAFD6B4804F0E7FD6B4804F0E4FD98
:102A50006148C0780121CDE90010684890ED002B55
:102A6000674890ED001B674890ED000B664B674A86
:102A70006749594804F082FC5848C0780121CDE9E3
:102A80000010644890ED002B634890ED001B6348F4
:102A900090ED000B624B634A6349504804F06EFCB2
:102AA0004F48C0780121CDE90010604890ED002B1F
:102AB0005F4890ED001B5F4890ED000B524B534A6E
:102AC0005349474804F05AFC4648C0780121CDE9F3
:102AD0000010564890ED002B554890ED001B5548CE
:102AE00090ED000B4E4B4F4A4F493E4804F046FCD8
:102AF0003D48C0780121CDE900104F4890ED002BF2
:102B00004E4890ED001B4E4890ED000B4D4B3F4A58
:102B10004D49354804F032FC3448C0780121CDE9F4
:102B200000104A4890ED002B494890ED001B4948A1
:102B300090ED000B434B3B4A47492C4804F01EFCE8
:102B40002B48C0780121CDE90010444890ED002BBE
:102B5000434890ED001B434890ED000B424B434A25
:102B60004349234804F00AFC2248C0780121CDE9FA
:102B70000010404890ED002B3F4890ED001B3F486F
:102B800090ED000B3E4B3F4A3F491A4804F0F6FBDC
:102B90001948C0780121CDE900103C4890ED002B88
:102BA0003B4890ED001B3B4890ED000B3A4B3B4AF5
:102BB0003B49114804F0E2FB1420FFF707FF3948B6
:102BC00090ED001B384890ED000BFFF78DFE0120C3
:102BD000FFF750FE1CBD0000701A0020E01A002014
:102BE000501B0020C01B0020301C0020A01C002017
:102BF000801D0020F01D0020101D0020C8000020B6
:102C0000C0000020B80000209800002090000020A4
:102C100088000020E8000020E0000020D80000200C
:102C2000B0000020A8000020A00000200801002023
:102C300000010020F80000203001002028010020C1
:102C40002001002010010020180100205001002068
:102C5000480100204001002038010020E801002048
:102C6000E0010020D8010020D0010020C801002090
:102C7000C0010020180200201002002008020020DD
:102C800000020020F8010020F00100208001002057
:102C90007801002070010020680100206001002000
:102CA00058010020B8030020B003002010B50446EE
:102CB00000BF642C01DD642404E014F1640F01DA28
:102CC0006FF06304002C14DD1E48007808B9012061
:102CD00000E00020024608211B4801F0A1FD194830
:102CE00002780221184801F09BFD184800688463AF
:102CF00026E0002C15DA134802780821124801F06A
:102D00008FFD1048007808B9012000E0002002463D
:102D100002210D4801F084FD60420C490968886376
:102D20000EE06CB900220821074801F079FD00226D
:102D30000221054801F074FD0020044909688863F8
:102D400010BD000080000020000C0240900B00200D
:102D500010B50320FFF720FA04460AF00CFB064AE0
:102D600003C2064800680AF006FB054A03C205488C
:102D700004F04EFB10BD000038010020A803002025
:102D800010010020A01C002010B5FFF7E1F804207E
:102D9000FFF702FA124908600320FFF7FDF9114915
:102DA0000860162001F0EEFBFFF7D2F80420FFF7D1
:102DB000F3F90B4908600320FFF7EEF909490860B1
:102DC000162001F0DFFBFFF7C3F80420FFF7E4F95A
:102DD000034908600320FFF7DFF90249086010BDCE
:102DE000A0030020A80300200149086070470000EC
:102DF0006000002010B50C4802F0E6FD00210A48F2
:102E000003F052FA0421084803F04EFA012211039C
:102E1000064801F005FDFFF7FFFD0020044908709A
:102E20000449087010BD0000900B0020000802400B
:102E3000650000206400002070B504461E25192698
:102E40004C2C06D12846FFF7E9FB6842FFF72EFF1E
:102E500019E0522C06D16842FFF7E0FB2846FFF745
:102E600025FF10E0462C06D17042FFF7D7FB7042D9
:102E7000FFF71CFF07E0422C05D13046FFF7CEFBE1
:102E80003046FFF713FF1E2001F07CFB00F001F835
:102E900070BD10B50020FFF7C1FB0020FFF706FF53
:102EA00010BD00002DE9F0412DED048B4620FFF709
:102EB000C3FF9B480078012872D13220FEF730FF13
:102EC000322001F05FFB3220FEF72AFF954890ED9B
:102ED000000B53EC102B944890ED000B51EC100BB1
:102EE00009F09CFF914AC2E90401962001F04AFBD7
:102EF00001F09CFC054601F099FC0446264654E08E
:102F0000FFF78CFA894880ED000B00F059FE8748E6
:102F100090ED021BB0EE410AF0EE610A51EC100B8D
:102F20000AF0CCF947423846FFF778FB7F4890ED2E
:102F3000021BB0EE410AF0EE610A51EC100B0AF0F0
:102F4000BDF90746FFF7B2FE784890ED042BB0EECE
:102F5000420AF0EE620A90ED002BB0EE421AF0EE5B
:102F6000621A53EC102B51EC110B0AF0ABFB41EC45
:102F7000190BB0EE490AF0EE690AFEF7AFFEB0EEAB
:102F8000408AF0EE608A9FED6A0B53EC102B51ECF7
:102F9000180B0AF01BFA04D201F048FC044604E0C6
:102FA00027E001F043FC04462646A01BC82806D2B1
:102FB00001F03CFC401B40F6C4118842A0D3FFF74F
:102FC0009FFA9FED5D0B5E48406C80ED000B9FED1E
:102FD0005A0B5C48406C80ED000B9FED570B5A4834
:102FE000406C80ED000B9FED540B4F4880ED000BC3
:102FF0008FE04B480078002874D1FFF70FFAB0EE4D
:10300000408AF0EE608A474890ED000B53EC102B9D
:1030100051EC180B0AF04AFB444AC2E90401FFF7DD
:103020006FFA3220FEF77CFE322001F0ABFA32203C
:10303000FEF776FE01F0FAFB054601F0F7FB0446C9
:10304000264654E0FFF7EAF9384880ED000B00F01F
:10305000B7FD364890ED021BB0EE410AF0EE610A72
:1030600051EC100B0AF02AF947423846FFF7D6FA1E
:103070002E4890ED021BB0EE410AF0EE610A51ECD1
:10308000100B0AF01BF90746FFF710FE274890EDDA
:10309000042BB0EE420AF0EE620A90ED002BB0EE87
:1030A000421AF0EE621A53EC102B51EC110B0AF09D
:1030B00009FB41EC190BB0EE490AF0EE690AFEF784
:1030C0000DFEB0EE408AF0EE608A9FED190B53ECD6
:1030D000102B51EC180B0AF079F904D201F0A6FB81
:1030E000044604E015E001F0A1FB04462646A01BBF
:1030F000C82806D201F09AFB401B40F214518842C6
:10310000A0D3FFF7FDF99FED0C0B074880ED000BF6
:1031100000BF0520FEF74CFEBDEC048BBDE8F0813E
:1031200005000020A80100207800002020020020D7
:10313000000000000000004000000000000000004F
:10314000801D0020F01D0020101D00202DE9F047FB
:103150002DED048BE548007818B10A213C20FFF7DB
:1031600003FB4620FFF768FEE148007801287CD188
:103170000320FFF733F88C2801DA012000E000205B
:10318000074617B14FF47A7601E040F6C4161420D2
:10319000FEF7C6FDD74890ED000B53EC102BD64838
:1031A00090ED000B51EC100B09F038FED34AC2E948
:1031B0000401C82001F0E6F901F038FB804601F077
:1031C00035FB0446254655E0FFF728F9CB4880ED4E
:1031D000000B00F0F5FCC94890ED021BB0EE410A6F
:1031E000F0EE610A51EC100B0AF068F8C0F100092A
:1031F0004846FFF713FAC14890ED021BB0EE410AB2
:10320000F0EE610A51EC100B0AF058F88146FFF716
:103210004DFDBA4890ED042BB0EE420AF0EE620A82
:1032200090ED002BB0EE421AF0EE621A53EC102B28
:1032300051EC110B0AF046FA41EC190BB0EE490AB9
:10324000F0EE690AFEF74AFDB0EE408AF0EE608AC1
:103250009FEDAB0B53EC102B51EC180B0AF0B6F8AA
:1032600004D201F0E3FA044604E07EE001F0DEFA65
:1032700004462546601B962805D201F0D7FAA0EB3C
:103280000800B042A0D3FFF704FE9C4890ED042B49
:10329000B0EE420AF0EE620A90ED002BB0EE421A58
:1032A000F0EE621A53EC102B51EC110B0AF00AFAF3
:1032B00041EC190BB0EE490AF0EE690AFEF70EFD7B
:1032C000B0EE408AF0EE608A9FED8F0B53EC102B2E
:1032D00051EC180B0AF0B4F906D20120FEF73AFDC2
:1032E0004EF6602001F04EF9012F2FD16FF00E0045
:1032F000FFF794F96FF00E00FFF7D8FC40F226209C
:1033000001F040F9FFF7FCF8462001F03BF9FFF728
:10331000C0FD9FED7F0B8048406C80ED000B9FED62
:103320007C0B7E48406C80ED000B9FED790B7C4858
:10333000406C80ED000B9FED760B6F4880ED000B2D
:10334000FEF762FD322001F01DF90DE0694890EDB5
:10335000000B53EC102B684890ED000B51EC100B58
:1033600009F05CFD644A03C2BCE0614800780028B3
:10337000FAD1604890ED000B53EC102B5E4890EDB5
:10338000000B51EC100B09F049FD5C4AC2E9040145
:103390003220FEF7C5FC322001F0F4F83220FEF7AF
:1033A000BFFC01F043FA054601F040FA0446264608
:1033B00053E0FFF733F8514880ED000B00F000FCBC
:1033C0004E4890ED021BB0EE410AF0EE610A51EC5E
:1033D000100B09F073FF47423846FFF71FF94748C3
:1033E00090ED021BB0EE410AF0EE610A51EC100BB9
:1033F00009F064FF0746FFF759FC404890ED042BA5
:10340000B0EE420AF0EE620A90ED002BB0EE421AE6
:10341000F0EE621A53EC102B51EC110B0AF052F93A
:1034200041EC190BB0EE490AF0EE690AFEF756FCC2
:10343000B0EE408AF0EE608A9FED3A0B53EC102B11
:1034400051EC180B09F0C2FF03D201F0EFF904466A
:1034500003E001F0EBF904462646A01BC82805D27C
:1034600001F0E4F9401BB0F57A7FA2D3FFF711FD1C
:10347000224890ED042BB0EE420AF0EE620A90ED85
:10348000002BB0EE421AF0EE621A53EC102B51EC06
:10349000110B0AF017F941EC190BB0EE490AF0EEE6
:1034A000690AFEF71BFCB0EE408AF0EE608A9FEDE1
:1034B000160B53EC102B51EC180B0AF0C1F806D286
:1034C0000120FEF747FC4EF6602001F05BF80B4848
:1034D00090ED040B084880ED000B4FF42F7013495A
:1034E000088000BFBDEC048BBDE8F0870800002019
:1034F0000500002098010020780000202002002014
:103500000000000000000840000000000080414072
:103510000000000000000000101D0020301C0020F2
:10352000A01C00200000000000000040B8010020A6
:1035300010B5024802F0EAFA10BD0000200C00208D
:1035400010B5024802F08EFA10BD0000200C0020D9
:103550002DE9F0412DED048B4620FFF76DFC9848D6
:10356000007801287DD11420FEF7DAFB954890ED14
:10357000000B53EC102B944890ED000B51EC100B0A
:1035800009F04CFC914AC2E90401FFF7D1FF9620F3
:1035900000F0F8FF01F04AF9054601F047F904464A
:1035A000264653E0FEF73AFF884880ED000B00F016
:1035B00007FB864890ED021BB0EE410AF0EE610A6F
:1035C00051EC100B09F07AFE47423846FFF726F817
:1035D0007E4890ED021BB0EE410AF0EE610A51EC1C
:1035E000100B09F06BFE0746FFF760FB774890ED84
:1035F000042BB0EE420AF0EE620A90ED002BB0EE22
:10360000421AF0EE621A53EC102B51EC110B0AF037
:1036100059F841EC190BB0EE490AF0EE690AFEF7D1
:103620005DFBB0EE408AF0EE608A9FED690B53ECD3
:10363000102B51EC180B09F0C9FE03D201F0F6F87B
:10364000044603E001F0F2F804462646A01BC82811
:1036500006D201F0EBF8401B40F214518842A1D38E
:1036600000E019E0FEF74CFF9FED5B0B5C48406CFF
:1036700080ED000B9FED580B5A48406C80ED000B1D
:103680009FED550B5848406C80ED000B9FED520BA1
:103690004D4880ED000B8FE049480078002874D138
:1036A000FEF7BCFEB0EE408AF0EE608A454890ED31
:1036B000000B53EC102B51EC180B09F0F7FF434AA9
:1036C000C2E90401FEF71CFF3220FEF729FB32207D
:1036D00000F058FF3220FEF723FB01F0A7F8054663
:1036E00001F0A4F80446264654E0FEF797FE37485A
:1036F00080ED000B00F064FA344890ED021BB0EE50
:10370000410AF0EE610A51EC100B09F0D7FD474277
:103710003846FEF783FF2D4890ED021BB0EE410ABC
:10372000F0EE610A51EC100B09F0C8FD0746FFF7F7
:10373000BDFA264890ED042BB0EE420AF0EE620A84
:1037400090ED002BB0EE421AF0EE621A53EC102B03
:1037500051EC110B09F0B6FF41EC190BB0EE490A20
:10376000F0EE690AFEF7BAFAB0EE408AF0EE608A2F
:103770009FED170B53EC102B51EC180B09F026FEA4
:1037800004D201F053F8044604E015E001F04EF8CD
:1037900004462646A01BC82806D201F047F8401B65
:1037A00040F214518842A0D39FED0B0B064880EDE8
:1037B000000BFEF7A5FE00BFBDEC048BBDE8F08159
:1037C00005000020B001002078000020A0020020A9
:1037D00000000000000000400000000000000000A9
:1037E000801D0020F01D0020101D00202DE9F04755
:1037F0002DED048BE148007818B10A213C20FEF73A
:10380000B3FF4620FFF718FBDD48007801287CD184
:103810000420FEF7E3FC8C2801DA012000E0002000
:10382000074617B14FF47A7601E040F6C41614202B
:10383000FEF776FAD34890ED000B53EC102BD248EC
:1038400090ED000B51EC100B09F0E8FACF4AC2E9F9
:103850000401962000F096FE00F0E8FF804600F09C
:10386000E5FF0446254655E0FEF7D8FDC74880ED44
:10387000000B00F0A5F9C54890ED021BB0EE410A1F
:10388000F0EE610A51EC100B09F018FDC0F10009CF
:103890004846FEF7C3FEBD4890ED021BB0EE410A5C
:1038A000F0EE610A51EC100B09F008FD8146FFF7BC
:1038B000FDF9B64890ED042BB0EE420AF0EE620A34
:1038C00090ED002BB0EE421AF0EE621A53EC102B82
:1038D00051EC110B09F0F6FE41EC190BB0EE490A60
:1038E000F0EE690AFEF7FAF9B0EE408AF0EE608A6F
:1038F0009FEDA70B53EC102B51EC180B09F066FD54
:1039000004D200F093FF044604E076E000F08EFF5E
:1039100004462546601BC82805D200F087FFA0EBAF
:103920000800B042A0D3FFF7B4FA984890ED042BFA
:10393000B0EE420AF0EE620A90ED002BB0EE421AB1
:10394000F0EE621A53EC102B51EC110B09F0BAFE99
:1039500041EC190BB0EE490AF0EE690AFEF7BEF928
:10396000B0EE408AF0EE608A9FED8B0B53EC102B8B
:1039700051EC180B09F064FE06D20120FEF7EAF9BB
:103980004EF6602000F0FEFD012F2FD16FF00E00EB
:10399000FEF744FE6FF00E00FFF788F940F2262094
:1039A00000F0F0FDFEF7ACFD462000F0EBFDFFF768
:1039B00070FA9FED7B0B7C48406C80ED000B9FED17
:1039C000780B7A48406C80ED000B9FED750B7848C2
:1039D000406C80ED000B9FED720B6B4880ED000B8F
:1039E000FEF712FA322000F0CDFD05E0674890EDB9
:1039F000040B654880ED000BBCE0614800780028AE
:103A0000FAD1604890ED000B53EC102B5E4890ED1E
:103A1000000B51EC100B09F001FA5C4AC2E90401F9
:103A20003220FEF77DF9322000F0ACFD3220FEF7A7
:103A300077F900F0FBFE054600F0F8FE0446264646
:103A400053E0FEF7EBFC514880ED000B00F0B8F8B6
:103A50004E4890ED021BB0EE410AF0EE610A51ECC7
:103A6000100B09F02BFC47423846FEF7D7FD4748BC
:103A700090ED021BB0EE410AF0EE610A51EC100B22
:103A800009F01CFC0746FFF711F9404890ED042BA4
:103A9000B0EE420AF0EE620A90ED002BB0EE421A50
:103AA000F0EE621A53EC102B51EC110B09F00AFEE8
:103AB00041EC190BB0EE490AF0EE690AFEF70EF977
:103AC000B0EE408AF0EE608A9FED3A0B53EC102B7B
:103AD00051EC180B09F07AFC03D200F0A7FE044663
:103AE00003E000F0A3FE04462646A01BC82805D22A
:103AF00000F09CFE401BB0F57A7FA2D3FFF7C9F916
:103B0000224890ED042BB0EE420AF0EE620A90EDEE
:103B1000002BB0EE421AF0EE621A53EC102B51EC6F
:103B2000110B09F0CFFD41EC180BB0EE480AF0EE96
:103B3000680AFEF7D3F8B0EE409AF0EE609A9FED77
:103B4000160B53EC102B51EC190B09F079FD06D232
:103B50000120FEF7FFF84EF6602000F013FD0B4841
:103B600090ED040B084880ED000B4FF42F701349C3
:103B7000088000BFBDEC048BBDE8F0870800002082
:103B800005000020A001002078000020A0020020F5
:103B900000000000000008400000000000804140DC
:103BA0000000000000000000301C0020A01C0020CD
:103BB000101D00200000000000000040B80100209F
:103BC00070B52DED108B88B0044600F02FFE054631
:103BD000E06D2E1AA06DB0427ED894ED002BB0EEB1
:103BE000420AF0EE620A94ED042BB0EE421AF0EEB7
:103BF000621A53EC102B51EC110B09F063FD41ECF0
:103C0000180B94ED061BB0EE410AF0EE610A53EC7E
:103C1000182B51EC100B09F015FC41EC190B304638
:103C200009F0C0FB41EC1B0B53EC182B09F00AFC0C
:103C300041EC1A0B94ED181BB0EE410AF0EE610A4C
:103C400053EC102B09F0EAF8C4E9180194ED1A1BA3
:103C5000B0EE410AF0EE610A53EC102B51EC180B58
:103C600009F0DCF841EC1B0B304609F09BFB41EC02
:103C70001D0B94ED081BB0EE410AF0EE610A53EC07
:103C8000102B9FEDA61B51EC110B09F0DBFB41EC57
:103C90001E0B53EC1D2B09F0D5FB41EC1C0B53EC18
:103CA0001B2B09F0CFFB41EC1A0B94ED181BB0EE67
:103CB000410AF0EE610A53EC102B09F0AFF8C4E9A9
:103CC000180194ED142BB0EE420AF0EE620A94ED66
:103CD000182BB0EE421A00E019E1F0EE621A53EC34
:103CE000102B51EC110B09F0ABFC04D294ED140B2A
:103CF00084ED180B16E094ED122BB0EE420AF0EEB4
:103D0000620A94ED182BB0EE421AF0EE621A53ECF0
:103D1000102B51EC110B09F059FB03D294ED120B4F
:103D200084ED180B94ED182BB0EE420AF0EE620A07
:103D300094ED082BB0EE421AF0EE621A53EC102B01
:103D400051EC110B09F07EFBCDE90601304609F07C
:103D500029FB41EC1C0B94ED0C1BB0EE410AF0EE7C
:103D6000610A53EC102B9FED6F1B51EC110B09F006
:103D700069FB41EC1D0B53EC1C2B09F04FF841EC97
:103D80001A0B304609F00EFB41EC1E0B94ED0C1B98
:103D9000B0EE410AF0EE610A53EC102B9FED611B6F
:103DA00051EC110B09F04EFB41EC1F0B53EC1E2B99
:103DB00009F088FC41EC1D0B94ED1C1BB0EE410A90
:103DC000F0EE610A53EC102B09F03CFB41EC1C0BAC
:103DD00094ED1E2BB0EE420AF0EE620A94ED002B39
:103DE000B0EE421AF0EE621A53EC102B51EC110BAC
:103DF00009F068FC41EC1D0B94ED0A1BB0EE410A82
:103E0000F0EE610A53EC102B9FED461B51EC110BA9
:103E100009F018FB41EC1E0B53EC1D2B09F012FBB3
:103E200053EC1C2BCDE900019DED000B51EC100B68
:103E300008F0F4FFCDE902019DED020B51EC100BEF
:103E400008F0AEFF41EC1B0B53EC1A2B09F0A2F863
:103E5000C4E91C0194ED1C2BB0EE420AF0EE620A9C
:103E600094ED0A2BB0EE421AF0EE621A53EC102BCE
:103E700051EC110B09F0E6FACDE904019DED060BBA
:103E800053EC102B51EC190B08F0C8FF41EC1A0B46
:103E90009DED040B53EC102B08F0C0FFC4E90201A8
:103EA00094ED102BB0EE420AF0EE620A94ED022B74
:103EB000B0EE421AF0EE621A53EC102B51EC110BDB
:103EC00009F0BEFB04D294ED100B84ED020B16E05A
:103ED00094ED0E2BB0EE420AF0EE620A94ED022B46
:103EE000B0EE421AF0EE621A53EC102B51EC110BAB
:103EF00009F06CFA03D294ED0E0B84ED020B94EDF5
:103F0000000B84ED1E0B84ED1A8BE56500BF94ED6C
:103F1000020B08B0BDEC108B70BD0000000000006B
:103F20000000E03F000000000000004008B513481A
:103F3000007850B111480178114802780078401C8F
:103F40000F4B18700F48815411E00C48007870B97D
:103F50000D480E4B0E4A0FA100900A48FCF72AFAB2
:103F600000200749087030210648FCF7DCFA0122DE
:103F700002490C4802F0E5FB08BD0000F8030020F0
:103F8000F9030020841E00201004002000040020FB
:103F900008040020256C6620256C6620256C6600D0
:103FA00000000000F40C002010B501220249034873
:103FB00002F0C7FB10BD0000F8030020F40C002045
:103FC00000BFFEE710B5024800F0FCF810BD00008D
:103FD000380D00200146087810381823B0FBF3F2A2
:103FE0000848805CC865032A05D908686FF3090092
:103FF000001D886503E008686FF309008865886D17
:1040000070470000AED90008014600208A6A8B691B
:10401000CBB932B1012A0DD0022A03D0032A10D124
:104020000EE000BFCB6A03F08073B3F1807F00D154
:10403000012007E0CB6AB3F1C07F00D1012001E08D
:1040400000E000BF34E08B69B3F5005F1AD132B1F4
:10405000012A07D0022A03D0032A11D10AE000BFA7
:1040600001200EE0CB6A03F08073B3F1807F00D1B2
:10407000012006E0CB6AB3F1C07F00D1012000E04F
:1040800000BF15E032B1012A05D0022A04D0032A6C
:104090000CD103E000BF00BF012008E0CB6A03F0B1
:1040A0008073B3F1807F00D1012000E000BF00BF2A
:1040B000704730B50468246824F4802405682C60B7
:1040C000046863608468402C04D10468A2600468BA
:1040D000E16003E00468A1600468E26030BD7047FD
:1040E00010B5022000F094FA10BD10B5042000F0C5
:1040F0008FFA10BD10B5082000F08AFA10BD10B577
:10410000102000F085FA10BD10B5202000F080FAD4
:1041100010BD72B600BFFEE770B50446A56D00F095
:1041200085FB064694F83500022808D0802060659B
:1041300000BF002084F8340000BF012070BD20685B
:10414000006820F01600216808602068406920F0AF
:10415000800021684861206C08B9A06C28B12068F3
:10416000006820F00800216808602068006820F0DE
:1041700001002168086010E000F058FB801B052852
:104180000BD920206065032084F8350000BF002093
:1041900084F8340000BF0320D0E72068006800F0F6
:1041A00001000028E8D194F85C103F208840A86006
:1041B000012084F8350000BF002084F8340000BFDF
:1041C00000BFBBE7F8B50446002000908C480068AB
:1041D0004FF41651B0FBF1F7A56D2E6894F85C1002
:1041E00008208840304098B12068006800F0040042
:1041F00070B12068006820F004002168086094F81D
:104200005C1008208840A860606D40F00100606587
:1042100094F85C1001208840304068B12068406903
:1042200000F0800040B194F85C1001208840A86044
:10423000606D40F00200606594F85C1004208840D6
:10424000304068B12068006800F0020040B194F886
:104250005C1004208840A860606D40F00400606538
:1042600094F85C1010208840304078B320680068D3
:1042700000F0080050B394F85C1010208840A8604B
:104280002068006800F4802080B12068006800F495
:10429000002028B9206CC8B12046216C884715E061
:1042A000A06C98B12046A16C88470FE02068006898
:1042B00000F4807028B92068006820F008002168A8
:1042C0000860206C10B12046216C884794F85C107F
:1042D000202088403040002865D02068006800F029
:1042E000100000285FD094F85C1020208840A8605F
:1042F00094F83500052828D12068006820F01600C1
:10430000216808602068406920F0800021684861C9
:10431000206C08B9A06C28B12068006820F0080063
:104320002168086094F85C103F208840A860012054
:1043300084F8350000BF002084F8340000BF206DF1
:1043400010B12046216D8847F8BD2068006800F450
:10435000802080B12068006800F4002028B9606CDB
:1043600010B12046616C88471DE0E06BD8B1204653
:10437000E16B884717E02068006800F4807068B936
:104380002068006820F0100021680860012084F88F
:10439000350000BF002084F8340000BFE06B10B18E
:1043A0002046E16B8847606D38B3606D00F0010016
:1043B000F0B1052084F835002068006820F0010085
:1043C0002168086000BF0098401C0090B84200D9E6
:1043D00005E02068006800F001000028F3D100BF6C
:1043E000012084F8350000BF002084F8340000BFAD
:1043F000E06C10B12046E16C884700BFA4E70000E4
:10440000F00A00202DE9F0410446002500F00EFAE4
:10441000074614B90120BDE8F081606A00B100BF11
:10442000022084F8350000BF002084F8340000BF6B
:104430002068006820F00100216808600AE000F0B0
:10444000F5F9C01B052805D920206065032084F8F4
:104450003500E0E72068006800F001000028EED198
:104460002068056821480540D4E901010843E16856
:1044700008432169084361690843A1690843E16968
:104480000843216A08430543606A042803D1D4E93C
:104490000B0108430543206805602068456925F045
:1044A0000705606A0543606A04280DD1A06A0543C8
:1044B000E06A48B12046FFF7A7FD28B140206065BB
:1044C000012084F83500A6E7206845612046FFF703
:1044D00081FD064694F85C103F208840B0600020C3
:1044E0006065012084F83500002094E73F8010F0DB
:1044F0002DE9F04704460D4616461F464FF00008CA
:10450000D4F8589000BF94F83400012802D102205A
:10451000BDE8F087012084F8340000BF94F835002E
:10452000012825D1022084F83500002060653B4633
:10453000324629462046FFF7BCFD94F85C103F2028
:104540008840C9F808002068006840F0160021681B
:104550000860206C28B12068006840F008002168DD
:1045600008602068006840F001002168086006E0EB
:1045700000BF002084F8340000BF4FF0020840461E
:10458000C6E7000070B5044600F050F9064625461F
:10459000681C10B104480078054400BF00F046F9DB
:1045A000801BA842FAD370BDEC0A00201549098887
:1045B000814203D10021144A11701EE0114949883B
:1045C000814203D10121104A117016E00D498988FA
:1045D000814203D102210C4A11700EE00949C988B9
:1045E000814203D10321084A117006E00549098977
:1045F000814202D10421044A11700121034A117041
:10460000704700004000002004000020000000204F
:1046100010B5044604480068204020B102480460F8
:104620002046FFF7C3FF10BD143C0140F8B5024619
:104630000B460025002400200021D6E0012606FAC2
:1046400001F51E6806EA0504AC4274D11E7906F035
:104650000306012E04D01E7906F00306022E13D1A4
:1046600090684F000326BE40B0434F00DE68BE4056
:1046700030439060506801268E40B0431E79C6F3E7
:1046800000168E40304350601E7906F00306032E5C
:1046900009D0D0684F000326BE40B0434F009E684B
:1046A000BE403043D0601E7906F00306022E13D1BF
:1046B000CF0802F1200656F827004E07F70E0F2606
:1046C000BE40B0434F07FF0E1E69BE403043CF08C7
:1046D00002F1200646F8270010684F000326BE406E
:1046E000B0431E7906F003064F00BE403043106011
:1046F0005E6806F44036002E76D000BF0026009695
:104700003C4E366846F480463A4F3E603E46366838
:1047100006F48046009600BF00BF374E8F0856F85B
:1047200027008E07370F0F26BE40B043334EB242EC
:1047300002D1002624E057E0314EB24201D10126D9
:104740001EE0304EB24201D1022619E02E4EB24296
:1047500001D1032614E02D4EB24201D104260FE010
:104760002B4EB24201D105260AE02A4EB24201D1B7
:10477000062605E0284EB24201D1072600E00826B1
:104780008F073F0FBE4030431B4E8F0846F827006F
:10479000224E3068A0435E6806F4801606B12043BE
:1047A0001E4E3060361D3068A0435E6806F4001669
:1047B00006B12043194E361D3060184E361F306842
:1047C000A0435E6806F4003606B12043134E361F40
:1047D0003060361F3068A0435E6806F4803606B14C
:1047E00020430E4E083E3060491C1029FFF426AFCE
:1047F000F8BD000044380240083801400000024083
:104800000004024000080240000C02400010024078
:104810000014024000180240001C0240083C014005
:104820000AB1816101E00B048361704701480068AF
:1048300070470000E40A002070B504460CB901205E
:1048400070BD94F83D0028B9002084F83C00204653
:1048500000F00EFB242084F83D002068006820F062
:104860000100216808602068006840F40040216869
:1048700008602068006820F400402168086000F0AB
:10488000D9FC05465C496068884206D85B48854289
:1048900001D2012007E0002005E05948854201D2FD
:1048A000012000E00020012800D1C9E75548B5FBF0
:1048B000F0F62068406820F03F00304321684860EF
:1048C0004D496068884201D8701C07E04FF496702B
:1048D00070434FF47A71B0FBF1F0401C2168096A13
:1048E00021F03F010843216808624349606888421B
:1048F00014D8681E61684900B0FBF1F0401CC0F399
:104900000B00042801D204203DE0681E61684900C4
:10491000B0FBF1F0401CC0F30B0034E0A06838B9E4
:10492000681E616801EB4101B0FBF1F0401C0AE038
:10493000681E616801EBC10202EB0111B0FBF1F0EE
:10494000401C40F48040C0F30B0008B901201AE07D
:10495000A06848B9681E616801EB4101B0FBF1F045
:10496000401CC0F30B000CE0681E616801EBC10243
:1049700002EB0111B0FBF1F0401CC0F30B0040F45E
:10498000804040F400402168C9694CF6FF729143B1
:1049900008432168C861D4E9070108432168096810
:1049A00021F0C001084321680860D4E903100843DE
:1049B0002168896848F2FF32914308432168886082
:1049C000D4E9050108432168C96821F0FF010843C3
:1049D0002168C8602068006840F001002168086014
:1049E00000202064202084F83D000020206384F80B
:1049F0003E0000BF24E70000A086010080841E0066
:104A000000093D0040420F002DE9F8430446894665
:104A100017469846089EFFF709FF054694F83D00A3
:104A200020287DD119230122B2492046009502F0A9
:104A300017F910B10220BDE8F88300BF94F83C00DC
:104A4000012801D10220F6E7012084F83C0000BFD4
:104A50002068006800F0010028B92068006840F074
:104A60000100216808602068006820F40060216867
:104A70000860222084F83D00102084F83E000020C9
:104A800020646762A4F82A80608D20859A48E062DD
:104A90002B4632464946204601F0B8FF08B10120B6
:104AA000C9E7208D88B900BF0020009020684069C8
:104AB000009020688069009000BF00BF20680068F7
:104AC00040F400702168086047E0208D012817D16C
:104AD0002068006820F480602168086000BF002022
:104AE000009020684069009020688069009000BFB5
:104AF00000BF2068006840F40070216808602CE066
:104B0000208D022818D12068006820F48060216878
:104B100008602068006840F400602168086000E0D8
:104B2000E6E000BF00200090206840690090206807
:104B30008069009000BF10E02068006840F4806049
:104B40002168086000BF0020009020684069009044
:104B500020688069009000BF00BFBAE0208D032864
:104B60007ED8208D012815D12A463146204602F0F4
:104B70001CF908B101205EE720680069616A0870CD
:104B8000606A401C6062208D401E2085608D401E42
:104B900060859EE0208D02282AD1334600225749A5
:104BA0002046009502F05CF808B1012043E7206838
:104BB000006840F400702168086020680069616A3C
:104BC0000870606A401C6062208D401E2085608DE8
:104BD000401E608520680069616A0870606A401C38
:104BE0006062208D401E2085608D401E608570E0D3
:104BF0003346002241492046009502F031F808B1C1
:104C0000012018E72068006820F4806021680860AF
:104C100020680069616A0870606A401C6062208DCB
:104C2000401E2085608D401E60853346002233493A
:104C30002046009502F014F808B10120FBE6206838
:104C4000006840F400702168086020680069616AAB
:104C50000870606A401C6062208D401E208500E064
:104C600010E0608D401E608520680069616A0870F0
:104C7000606A401C6062208D401E2085608D401E51
:104C8000608526E02A463146204602F08EF808B1BB
:104C90000120D0E620680069616A0870606A401CE3
:104CA0006062208D401E2085608D401E60852068DA
:104CB0004069C0F3800060B120680069616A0870D3
:104CC000606A401C6062208D401E2085608D401E01
:104CD0006085208D00287FF441AF202084F83D00BE
:104CE000002084F83E0000BF84F83C0000BFA2E62C
:104CF0000220A0E6020010000000FFFF04000100F7
:104D00002DE9F8430446894616461F46DDF8208003
:104D1000FFF78CFD054694F83D0020287ED119232D
:104D2000012251492046009501F09AFF10B102205E
:104D3000BDE8F88300BF94F83C00012801D10220AF
:104D4000F6E7012084F83C0000BF2068006800F00E
:104D5000010028B92068006840F00100216808605F
:104D60002068006820F4006021680860212084F831
:104D70003D00102084F83E000020206466626785B4
:104D8000608D20853948E0622B46424649462046E0
:104D900001F0D8FE08B10120CAE700BF0020009052
:104DA00020684069009020688069009000BF00BFC3
:104DB00044E02A464146204602F037F850B1206CC4
:104DC000042805D12068006840F40070216808605C
:104DD0000120ADE7606A007821680861606A401CC4
:104DE0006062608D401E6085208D401E2085206899
:104DF0004069C0F3800070B1208D60B1606A0078B6
:104E000021680861606A401C6062608D401E608598
:104E1000208D401E20852A46414600E022E02046A3
:104E200001F0F0FE50B1206C042805D12068006824
:104E300040F4007021680860012079E7208D002887
:104E4000B7D12068006840F4007021680860202015
:104E500084F83D00002084F83E0000BF84F83C0048
:104E600000BF65E7022063E7020010000000FFFFBB
:104E700010B586B00446142101A8FBF776FB1B4948
:104E80002068884230D100BF002000901848006898
:104E900040F00200164908600846006800F0020071
:104EA000009000BF00BF4FF41070019012200290DC
:104EB00000200390032004900420059001A90D48D0
:104EC000FFF7B4FB00BF00200090094810300068D5
:104ED00040F400100649103108600846006800F4EC
:104EE0000010009000BF00BF06B010BD005400408D
:104EF0003038024000040240034800680349097842
:104F00000844014908607047E40A0020EC0A0020C8
:104F100010B50D48006840F400700B490860084661
:104F2000006840F4806008600846006840F48070C3
:104F30000860032000F0A2F80E2000F007F800F04F
:104F40002BF8002010BD0000003C024070B5044664
:104F50000E4800784FF47A71B1FBF0F00C49096803
:104F6000B1FBF0F5284600F02BFC08B1012070BD24
:104F7000102C07D200222146501E00F041F80548AF
:104F8000046001E00120F2E70020F0E7EC0A0020D5
:104F9000F00A0020E80A002008B500BF00200090B9
:104FA0000E48006840F480400C49086008460068DC
:104FB00000F48040009000BF00BF00BF00200090C0
:104FC000081F006840F08050091F0860084600680C
:104FD00000F08050009000BF00BF08BD4438024080
:104FE00001460846002809DB00F01F0301229A4011
:104FF00043099B0003F1E023C3F8002100BF704781
:105000002DE9F05F80460D461646002706F096F91A
:10501000074639462A46334601F00700C0F1070A21
:10502000BAF1040F02D94FF0040A01E0C0F1070AF7
:10503000D14600F1040ABAF1070F02D24FF0000A7C
:1050400001E0A0F1030AD4464FF0010A0AFA09FA76
:10505000AAF1010A0AEA020A0AFA0CFA4FF0010B55
:105060000BFA0CFBABF1010B0BEA030B4AEA0B0446
:105070002146404606F06AF9BDE8F09F00BF00F007
:105080000702064B19684FF6FF031940044B0B4308
:1050900043EA0221014B196000BF70470CED00E0AC
:1050A0000000FA0570B504460D460CB9012070BD2C
:1050B0005848006800F00700A84209D255490D7011
:1050C0000846006800F00700A84201D00120EEE782
:1050D000207800F0020002281DD1207800F00400A2
:1050E000042805D14C48006840F4E0504A49086063
:1050F000207800F00800082805D14748006840F4EF
:105100006040454908604448006820F0F000A1680C
:10511000084341490860207800F00100A8B36068A6
:10512000012807D13C4808380068C0F34040B8B9AE
:105130000120BCE76068022802D06068032807D11C
:10514000354808380068C0F3406048B90120AEE730
:10515000314808380068C0F3400008B90120A6E7CC
:105160002D48006820F00300616808432A49086060
:10517000FFF75CFB064609E0FFF758FB801B41F296
:105180008831884202D9032091E707E0224800686D
:1051900000F00C006168B0EB810FEDD11D48006894
:1051A00000F00700A84209D91A490D7008460068A6
:1051B00000F00700A84201D0012078E7207800F035
:1051C0000400042807D11448006820F4E050E16886
:1051D000084311490860207800F00800082808D129
:1051E0000D48006820F46040216940EAC1000A4986
:1051F000086000F03FF808490968C1F30311074A45
:10520000515CC8400649086006480068FFF79EFEEA
:1052100000204CE7003C024008380240B6D90008A4
:10522000F00A0020E80A00200148006870470000EA
:10523000F00A002000B5FFF7F7FF04490968C1F341
:105240008221034A515CC84000BD0000083802407A
:10525000C6D9000800B5FFF7E7FF04490968C1F3A4
:105260004231034A515CC84000BD0000083802408A
:10527000C6D900082DE9F047002400250026A146E4
:105280002548006800F00C0020B1042805D008284B
:105290003AD105E0DFF8849039E0DFF8849036E019
:1052A0001D48001F006800F03F041B48001F0068F5
:1052B00000F4800078B11A481749091F0968C1F342
:1052C0008811A0FB01700146224600233846FAF7F8
:1052D000F9FF05460EE011480F49091F0968C1F39F
:1052E0008811A0FB01700146224600233846FAF7D8
:1052F000E9FF05460848001F0068C0F30140401C54
:105300004600B5FBF6F902E0DFF8109000BF00BFE1
:105310004846BDE8F0870000083802400024F40049
:1053200040787D01F8B504460CB90120F8BD20781D
:1053300000F00100002874D0F948006800F00C006B
:1053400004280DD0F648006800F00C00082813D19E
:10535000F348001F006800F48000B0F5800F0BD107
:10536000EF4808380068C0F34040002859D0606812
:10537000002856D10120D9E700BF6068B0F5803F12
:1053800008D1E7480838006840F48030E44908391B
:1053900008601EE06068B0F5A02F0DD1E048083825
:1053A000006840F48020DE4908390860084600683B
:1053B00040F4803008600CE0D9480838006820F4D8
:1053C0008030D749083908600846006820F48020FA
:1053D000086000BF606890B1FFF728FA054606E054
:1053E000FFF724FA401B642801D903209EE7CC482C
:1053F00008380068C0F340400028F1D011E0FFF702
:1054000015FA054606E0FFF711FA401B642801D99A
:1054100003208BE7C24808380068C0F340400028EA
:10542000F1D1207800F0020002285FD1BC4800686A
:1054300000F00C0058B1BA48006800F00C000828D1
:105440001CD1B748001F006800F48000B0B9B44810
:1054500008380068C0F3400020B1E068012801D09E
:10546000012063E7AE480838006820F0F8002169A1
:1054700040EAC100AA490839086037E0E06800B393
:105480000120A8490860FFF7D1F9054606E0FFF7BB
:10549000CDF9401B022801D9032047E7A04808386E
:1054A0000068C0F340000028F1D09D48083800682B
:1054B00020F0F800216940EAC100994908390860E4
:1054C00014E0002097490860FFF7B0F9054606E0B0
:1054D000FFF7ACF9401B022801D9032026E79048CA
:1054E00008380068C0F340000028F1D1207800F0AF
:1054F000080008282CD16069A8B101208A490860F9
:10550000FFF794F9054606E0FFF790F9401B0228E3
:1055100001D903200AE782486C300068C0F34000DC
:105520000028F1D014E000207F490860FFF77EF9E1
:10553000054606E0FFF77AF9401B022801D903204F
:10554000F4E677486C300068C0F340000028F1D1E1
:10555000207800F00400042870D10027704838300B
:10556000006800F0805090B900BF002000906C48A7
:105570003830006840F0805069493831086008468A
:10558000006800F08050009000BF00BF012767480E
:10559000006800F48070B0B96448006840F480701E
:1055A00062490860FFF742F9054606E0FFF73EF959
:1055B000401B022801D90320B8E65C48006800F4CB
:1055C00080700028F2D000BFA068012808D154489C
:1055D0006830006840F001005149683108601DE002
:1055E000A06805280DD14E486830006840F00400DE
:1055F0004B49683108600846006840F001000860C7
:105600000CE047486830006820F0010044496831E8
:1056100008600846006820F00400086000BFA06829
:10562000A8B1FFF703F9054609E0FFF7FFF8401BB3
:1056300041F28831884202D9032077E626E03848D3
:1056400068300068C0F340000028EED013E0FFF798
:10565000EDF8054608E0FFF7E9F8401B41F2883114
:10566000884201D9032061E62D4868300068C0F304
:1056700040000028EFD1012F07D1294838300068B9
:1056800020F0805026493831086000BFA06900280A
:1056900045D02348006800F00C0008285DD0A069C0
:1056A000022845D100201F490866FFF7BFF80546CC
:1056B00006E0FFF7BBF8401B022801D9032035E6BE
:1056C000174808380068C0F340600028F1D1D4E9D9
:1056D00007010843616A40EA81110122A06AC2EB16
:1056E000500041EA00412C20005D41EA00600C4975
:1056F000091F086001200B490866FFF797F8054667
:1057000006E0FFF793F8401B022801D903200DE6BD
:10571000034808380068C0F340600028F1D049E031
:105720000838024000004742800E474200700040A7
:10573000002021490866FFF779F8054606E0FFF7E3
:1057400075F8401B022801D90320EFE51B480068CB
:10575000C0F340600028F2D12CE0A069012800D1FC
:10576000E4E51648001D0668A069012820D006F46B
:105770008001E06981421BD106F03F01206A81422D
:1057800016D147F6C0703040616AB0EB811F0FD16F
:1057900006F440310122A06AC2EB5000B1EB004F89
:1057A00006D106F070612C20005DB1EB006F01D0D6
:1057B0000120BBE50020B9E5000047420038024067
:1057C00070B504462546681EB0F1807F01D30120E4
:1057D0000FE0681E4FF0E02148610F214FF0FF30CD
:1057E00005F0B4FD00204FF0E0218861072008613A
:1057F000002070BD7047704730B502460B4600BFB1
:1058000092F83C00012801D1022030BD012082F82D
:105810003C0000BF022082F83D0010684468106818
:10582000816824F070041868044310684460184DBF
:105830001068A8421BD01068B0F1804F17D0154DEA
:105840001068A84213D0144D1068A8420FD0134D11
:105850001068A8420BD0124D1068A84207D0114D15
:105860001068A84203D0104D1068A84205D121F05D
:1058700080015868014310688160012082F83D0072
:1058800000BF002082F83C0000BF00BFBDE7000061
:10589000000001400004004000080040000C0040EF
:1058A00000040140004001400018004010B50446CB
:1058B0000CB9012010BD94F83D0028B9002084F8EF
:1058C0003C00204600F026F8022084F83D00211D0F
:1058D000206802F01FFA012084F8460000BF84F817
:1058E0003E0001213F200155402001554120015536
:1058F00000BF00BF012084F842004320015544202E
:1059000001554520015500BF012084F83D000020CD
:10591000D0E7000038B504462068B0F1804F0FD1C1
:1059200000BF002000902548006840F00100234996
:1059300008600846006800F00100009000BF3CE0ED
:105940001F49206888421AD100BF002000901B48E0
:10595000001D006840F480301849091D08600846A1
:10596000006800F48030009000BF00BF00220221D8
:105970001820FFF745FB1820FFF732FB1DE0114907
:105980002068884219D100BF002000900B48001DFC
:10599000006840F400300949091D086008460068A5
:1059A00000F40030009000BF00BF00220321192046
:1059B000FFF726FB1920FFF713FB38BD40380240E4
:1059C0000040014000440140014691F83D0001289B
:1059D00001D001207047022081F83D001A4B086871
:1059E00098421BD00868B0F1804F17D0174B086859
:1059F000984213D0164B086898420FD0154B086890
:105A000098420BD0144B0868984207D0134B086893
:105A1000984203D0124B086898420CD108688068FD
:105A200000F00702062A0CD00868006840F0010068
:105A30000B68186005E00868006840F001000B681A
:105A400018600020C6E7000000000140000400408C
:105A500000080040000C00400004014000400140EC
:105A600000180040014691F83D00012801D00120B6
:105A70007047022081F83D000868C06840F00100CE
:105A80000B68D8601A4B086898421BD00868B0F1C0
:105A9000804F17D0174B0868984213D0164B0868F0
:105AA00098420FD0154B086898420BD0144B0868E9
:105AB000984207D0134B0868984203D0124B0868ED
:105AC00098420CD10868806800F00702062A0CD0C2
:105AD0000868006840F001000B68186005E008687D
