:020000040800F2
:1000000000000220418B0008511000085910000820
:10001000611000086910000871100008000000005D
:10002000000000000000000000000000791000083F
:10003000871000080000000095100008A3100008B9
:10004000918B0008918B0008918B0008918B000820
:10005000918B0008918B0008918B0008918B000810
:10006000918B0008918B0008918B0008918B000800
:10007000918B0008918B0008918B0008918B0008F0
:10008000918B0008918B0008918B0008918B0008E0
:10009000918B0008918B0008918B0008918B0008D0
:1000A000918B0008918B0008918B0008918B0008C0
:1000B000918B0008918B0008918B0008918B0008B0
:1000C000918B0008918B0008918B0008918B0008A0
:1000D000918B0008918B0008918B0008918B000890
:1000E000918B0008918B000800000000918B0008A4
:1000F000918B0008918B0008918B0008918B000870
:10010000918B0008918B0008918B0008918B00085F
:10011000918B0008918B0008918B0008918B00084F
:10012000918B0008918B0008918B0008918B00083F
:10013000918B0008918B0008918B0008918B00082F
:1001400000000000000000000000000000000000AF
:10015000918B0008918B0008918B0008918B00080F
:10016000918B0008918B0008918B0008918B0008FF
:10017000918B0008918B0008918B00080000000013
:10018000918B0008918B0008918B0008918B0008DF
:10019000918B0008918B0008918B0008918B0008CF
:1001A000918B0008918B0008918B0008918B0008BF
:1001B000918B0008918B0008918B0008918B0008AF
:1001C000918B0008918B0008918B0008918B00089F
:1001D000918B0008918B0008918B0008918B00088F
:1001E000918B0008918B0008918B0008918B00087F
:1001F000918B0008918B0008918B0008918B00086F
:10020000918B0008918B0008918B0008918B00085E
:10021000918B0008918B0008918B0008918B00084E
:10022000918B0008918B0008918B00080000000062
:10023000918B0008918B000800000000918B000852
:10024000918B0008918B0008918B0008918B00081E
:10025000918B0008918B0008918B0008918B00080E
:10026000918B0008918B0008918B0008918B0008FE
:10027000918B0008918B0008918B00080000000012
:10028000918B0008918B0008918B00080000000002
:0802900000000000918B000842
:1002980010B5054C237833B9044B13B10448AFF3B8
:1002A80000800123237010BD100000200000000012
:1002B800948B000808B5034B1BB103490348AFF3FF
:1002C800008008BD0000000014000020948B000886
:1002D80053B94AB9002908BF00281CBF4FF0FF31A5
:1002E8004FF0FF3000F06AB9ADF1080C6DE904CEAB
:1002F80000F006F8DDF804E0DDE9022304B07047F9
:100308002DE9F047089D0C46002B4ED194468C45AC
:100318008646B2FA82F262D94AB1C2F1200391400C
:1003280020FA03F30CFA02FC194300FA02FE4FEA22
:100338001C471FFA8CF6B1FBF7F44FEA1E4307FB84
:10034800141143EA014304FB06F199420AD91CEB54
:10035800030304F1FF3080F01281994240F20F81CB
:10036800023C6344591A1FFA8EF3B1FBF7F007FBFE
:10037800101143EA014300FB06F69E420AD91CEB22
:10038800030300F1FF3180F0FC809E4240F2F980C7
:10039800634402389B1B40EA044000211DB1D3404E
:1003A8000022C5E90032BDE8F0878B4205D90DB1BE
:1003B800C5E9000100210846F5E7B3FA83F10029F1
:1003C80046D1A34202D39042C0F0F080861A64EB73
:1003D80003030120002DE6D0C5E90063E3E7002A06
:1003E80040F09080A1EB0C044FEA1C481FFA8CF7F0
:1003F8000121B4FBF8F64FEA1E4308FB164443EA12
:10040800044307FB06F0984208D91CEB030306F1E6
:10041800FF3402D2984200F2CD8026461C1A1FFAF9
:100428008EF3B4FBF8F008FB104443EA044300FBE6
:1004380007F79F4208D91CEB030300F1FF3402D2EF
:100448009F4200F2B0802046DB1B40EA0640A5E749
:10045800C1F120068B4022FA06F71F4320FA06FC5A
:1004680004FA01F343EA0C03F44000FA01F8380CEB
:100478004FEA1349B4FBF0FE1FFA87FC00FB1E4449
:1004880049EA04440EFB0CF9A14502FA01F20AD923
:100498003C190EF1FF3A80F08480A14540F281803A
:1004A800AEF1020E3C44A4EB09041FFA83F9B4FB35
:1004B800F0F300FB134449EA044403FB0CFCA44595
:1004C80007D93C1903F1FF3067D2A44565D9023B2F
:1004D8003C4443EA0E40A0FB0293A4EB0C049C426C
:1004E800CE469C4651D34ED055B1B8EB0E0364EBC3
:1004F8000C0404FA06F6CB401E43CC40C5E9006460
:10050800002150E7C2F1200320FA03F10CFA02FCA3
:1005180024FA03F394400C434FEA1C4800FA02FE05
:100528001FFA8CF7B3FBF8F008FB1031230C43EAF1
:10053800014300FB07F1994208D91CEB030300F1C2
:10054800FF362CD299422AD9023863445B1AA4B2E6
:10055800B3FBF8F108FB113344EA034401FB07F34A
:10056800A34208D91CEB040401F1FF3613D2A342BD
:1005780011D902396444E41A41EA004139E70446D2
:10058800F0E6084606E7C845AED2B9EB020E63EBC3
:10059800070C0138A8E73146EDE7034699E73046EE
:1005A800D4E7D6467FE7634402384DE7064623463C
:1005B80008460FE7023E634430E700BF704700BFBC
:1005C80002440346934200D1704703F8011BF9E740
:1005D80070B50D4D0D4C641BA4100026A64209D120
:1005E8000B4D0C4C08F0D2FA641BA4100026A6424E
:1005F80005D170BD55F8043B98470136EEE755F82C
:10060800043B98470136F2E7EC8B0008EC8B0008B6
:10061800EC8B0008F08B000880B500AF00F0E2FC1E
:1006280006F098F800F04CF800F02CFC00F042FAC4
:1006380000F0F4F800F062F900F0A0F900F08EFA8A
:1006480000F0E6FA00F03AFB00F084FB00F0CEFB85
:1006580001220121194805F0CDFEC82006F00CF949
:1006680000220121154805F0C5FE01220221134888
:1006780005F0C0FEC82006F0FFF8002202210F484E
:1006880005F0B8FE012204210C4805F0B3FEC8208D
:1006980006F0F2F800220421084805F0ABFE01221A
:1006A8000821064805F0A6FEC82006F0E5F8002255
:1006B8000821024805F09EFE00BFC9E7000C025859
:1006C80080B59EB000AF07F12C034C2200211846DC
:1006D800FFF776FF07F10C03202200211846FFF7E9
:1006E8006FFF022005F0A0FE0023BB60484BDB6AC9
:1006F800474A23F00103D362454BDB6A03F0010349
:10070800BB60444B9B69434A43F440439361414B6C
:100718009B6903F44043BB60BB6800BF3D4B9B69CA
:1007280003F40053B3F5005FF8D13B4BD3F8F43032
:10073800394A43F00203C2F8F430374BD3F8F430A7
:1007480003F002037B607B6800233B60314B9B69AD
:10075800304A43F4404393612E4B9B6903F4404372
:100768003B602B4BDB6A2A4A43F00103D362284BD8
:10077800DB6A03F001033B603B6800BF254B9B69C4
:1007880003F40053B3F5005FF8D10123FB624FF483
:1007980080333B6302233B6502237B650323BB65F0
:1007A8003C23FB6502233B6602237B660223BB6670
:1007B8000C23FB6600233B6700237B6707F12C03B0
:1007C800184601F083FF0346002B01D000F036FCE9
:1007D8003F23FB6003233B6100237B610823BB614C
:1007E8004023FB6140233B624FF480637B624023DC
:1007F800BB6207F10C030421184602F0C1FB034653
:10080800002B01D000F01AFC00BF7837BD4680BD30
:1008180000040058004802580044025880B588B0C7
:1008280000AF3B1D00221A605A609A60DA601A61B4
:100838005A619A612E4B2F4A1A602D4B0022DA60BA
:100848002B4B04221A612A4B00221A75284B0022CE
:100858005A75274B01229A61254B00221A77244B9F
:1008680000225A62224B00229A62214B0022DA624D
:100878001F4B00221A631E4B00225A631C4B002296
:1008880083F838201A4B0122DA63194801F014F969
:100898000346002B01D000F0D1FB154B00225A6013
:1008A800134B00229A60124801F006F90346002B08
:1008B80001D000F0C3FB104B7B600623BB60002314
:1008C800FB6040F2FF733B6104237B610023BB6143
:1008D80000237B773B1D1946054801F08FFA034634
:1008E800002B01D000F0AAFB00BF2037BD4680BD19
:1008F8002C000020002102400800900C80B500AFB9
:100908001B4B1C4A1A601A4B1B4A5A60184B002290
:100918009A60174B0122DA60154B00221A61144BBA
:1009280000225A61124B00229A61114B0022DA61AF
:100938000F4B00221A620E4805F0CEFF0346002B2B
:1009480001D000F07BFB0021094806F061F803465E
:10095800002B01D000F072FB0021054806F0A3F837
:100968000346002B01D000F069FB00BF80BD00BF2B
:100978009000002000540040B175703080B596B0EA
:1009880000AF07F14C0300221A605A609A6007F121
:10099800300300221A605A609A60DA601A615A615C
:1009A8009A613B1D2C2200211846FFF709FE3F4B98
:1009B8003F4A1A603D4B00225A603C4B00229A6025
:1009C8003A4B4FF6FF72DA60384B00221A61374B08
:1009D80000225A61354B00229A61344806F0AFF87C
:1009E8000346002B01D000F029FB0023FB64002301
:1009F8003B6500237B6507F14C0319462B4806F03D
:100A08002BFE0346002B01D000F018FB60233B634C
:100A180000237B630023BB630023FB6300233B6449
:100A280000237B640023BB6407F1300300221946CE
:100A38001E4806F081F90346002B01D000F0FEFAAB
:100A480007F1300304221946184806F075F90346E1
:100A5800002B01D000F0F2FA00237B600023BB607A
:100A68000023FB6000233B6100237B614FF40053AC
:100A7800BB610023FB6100233B624FF000737B6284
:100A88000023BB620023FB623B1D1946074806F0A2
:100A980071FE0346002B01D000F0D0FA034800F0A5
:100AA80013FD00BF5837BD4680BD00BFE4000020DD
:100AB8000000014080B58CB000AF07F10C03242280
:100AC80000211846FFF77CFD3B4600221A605A6059
:100AD8009A60214B4FF080421A601F4B00225A60E7
:100AE8001D4B00229A601C4B4FF0FF32DA601A4B04
:100AF80000221A61184B00229A610123FB6000232F
:100B08003B6101237B610023BB610023FB61002360
:100B18003B6201237B620023BB620023FB6207F177
:100B28000C0319460C4806F061F80346002B01D067
:100B380000F084FA00233B600023BB603B46194663
:100B4800054806F089FD0346002B01D000F076FA2F
:100B580000BF3037BD4680BD3001002080B58AB067
:100B680000AF07F11C0300221A605A609A603B46E6
:100B780000221A605A609A60DA601A615A619A61B2
:100B8800214B224A1A60204B00225A601E4B002239
:100B98009A601D4B4FF6FF72DA601B4B00221A61F8
:100BA800194B00229A61184805F0C9FF0346002B2B
:100BB80001D000F043FA0023FB6100237B6207F1B8
:100BC8001C031946104806F047FD0346002B01D0C8
:100BD80000F034FA60233B6000237B600023BB6095
:100BE80000233B613B4600221946074806F0A4F85B
:100BF8000346002B01D000F021FA034800F064FC02
:100C080000BF2837BD4680BD7C010020000400409D
:100C180080B58CB000AF07F10C03242200211846E0
:100C2800FFF7CEFC3B4600221A605A609A60214BBF
:100C3800214A1A601F4B00225A601E4B00229A60FC
:100C48001C4B4FF0FF32DA601A4B00221A61194B25
:100C580000229A610123FB6000233B6101237B6131
:100C68000023BB610023FB6100233B6201237B62FD
:100C78000023BB620023FB6207F10C0319460D48F1
:100C880005F0B4FF0346002B01D000F0D7F900238C
:100C98003B600023BB603B461946064806F0DCFC77
:100CA8000346002B01D000F0C9F900BF3037BD461C
:100CB80080BD00BFC8010020000C004080B500AF17
:100CC800224B234A1A60214B4FF4E1325A601F4BE2
:100CD80000229A601D4B0022DA601C4B00221A6128
:100CE8001A4B0C225A61194B00229A61174B0022A9
:100CF800DA61164B00221A62144B00225A62134B17
:100D080000229A62114806F0B3FD0346002B01D079
:100D180000F094F900210D4807F0BBFD0346002BB5
:100D280001D000F08BF90021084807F0F0FD0346D8
:100D3800002B01D000F082F9044807F071FD03464A
:100D4800002B01D000F07AF900BF80BD140200200A
:100D58000010014080B500AF224B234A1A60214B96
:100D68004FF4E1325A601F4B00229A601D4B00225B
:100D7800DA601C4B00221A611A4B0C225A61194B7B
:100D880000229A61174B0022DA61164B00221A6280
:100D9800144B00225A62134B00229A62114806F043
:100DA80067FD0346002B01D000F048F900210D48EB
:100DB80007F06FFD0346002B01D000F03FF900213A
:100DC800084807F0A4FD0346002B01D000F036F9CF
:100DD800044807F025FD0346002B01D000F02EF94A
:100DE80000BF80BDA80200200044004080B500AFCD
:100DF800224B234A1A60214B4FF4E1325A601F4BB1
:100E080000229A601D4B0022DA601C4B00221A61F6
:100E18001A4B0C225A61194B00229A61174B002277
:100E2800DA61164B00221A62144B00225A62134BE5
:100E380000229A62114806F01BFD0346002B01D0E0
:100E480000F0FCF800210D4807F023FD0346002BB5
:100E580001D000F0F3F80021084807F058FD0346D8
:100E6800002B01D000F0EAF8044807F0D9FC03464B
:100E7800002B01D000F0E2F800BF80BD3C03002049
:100E88000048004080B58CB000AF07F11C03002279
:100E98001A605A609A60DA601A614F4BD3F8E030F2
:100EA8004D4A43F01003C2F8E0304B4BD3F8E03022
:100EB80003F01003BB61BB69474BD3F8E030464AE7
:100EC80043F08003C2F8E030434BD3F8E03003F03E
:100ED80080037B617B69404BD3F8E0303E4A43F0A6
:100EE8000403C2F8E0303C4BD3F8E03003F00403CD
:100EF8003B613B69384BD3F8E030374A43F0010394
:100F0800C2F8E030344BD3F8E03003F00103FB6063
:100F1800FB68314BD3F8E0302F4A43F00203C2F8A4
:100F2800E0302D4BD3F8E03003F00203BB60BB6820
:100F3800294BD3F8E030284A43F00803C2F8E030E0
:100F4800254BD3F8E03003F008037B607B68002270
:100F58004FF44651214805F04DFA00220F21204850
:100F680005F048FA7C23FB6100233B6200237B6287
:100F780007F11C031946194805F08CF84FF446533D
:100F8800FB6101233B6200237B620023BB6207F104
:100F98001C031946114805F07DF80F23FB61012356
:100FA8003B6200237B620023BB6207F11C031946E6
:100FB8000B4805F06FF80323FB614FF488133B627D
:100FC80000237B6207F11C031946044805F062F808
:100FD80000BF3037BD4680BD00440258001002589B
:100FE800000C025880B584B000AF3B4600221A605E
:100FF8005A609A60DA6005F035FB01233B700023E4
:101008007B7000237B601F233B7287237B72002346
:10101800BB720023FB7201233B7301237B73002304
:10102800BB730023FB733B46184605F053FB0420B3
:1010380005F030FB00BF1037BD4680BD80B400AF5F
:1010480072B600BF00BFFDE780B400AF00BFFDE788
:1010580080B400AF00BFFDE780B400AF00BFFDE77C
:1010680080B400AF00BFFDE780B400AF00BFFDE76C
:1010780080B400AF00BFBD465DF8047B704780B404
:1010880000AF00BFBD465DF8047B704780B400AF79
:1010980000BFBD465DF8047B704780B500AF05F022
:1010A800CBFB00BF80BD000080B483B000AF0A4B0B
:1010B800D3F8F430084A43F00203C2F8F430064B80
:1010C800D3F8F43003F002037B607B6800BF0C3771
:1010D800BD465DF8047B70470044025880B5BCB03B
:1010E80000AF786007F1DC0300221A605A609A604A
:1010F800DA601A6107F11803C02200211846FFF7C9
:101108005FFA7B681B684A4A934240F08C804FF430
:1011180000224FF00003C7E9062320233B62812306
:101128007B620223BB620223FB6202233B63002330
:101138007B630023BB630023FB630023C7F8BC3039
:1011480007F11803184602F0A7FA0346002B01D04E
:10115800FFF774FF374BD3F8D830364A43F02003F3
:10116800C2F8D830334BD3F8D83003F020037B6172
:101178007B69304BD3F8E0302E4A43F00403C2F8C1
:10118800E0302C4BD3F8E03003F004033B613B69BB
:10119800284BD3F8E030274A43F00103C2F8E03087
:1011A800244BD3F8E03003F00103FB60FB68214BCC
:1011B800D3F8E0301F4A43F00203C2F8E0301D4B79
:1011C800D3F8E03003F00203BB60BB681323C7F811
:1011D800DC300323C7F8E0300023C7F8E43007F118
:1011E800DC031946144804F055FF4C23C7F8DC30DB
:1011F8000323C7F8E0300023C7F8E43007F1DC0325
:1012080019460E4804F046FF0223C7F8DC300323D2
:10121800C7F8E0300023C7F8E43007F1DC031946CB
:10122800074804F037FF00BFF037BD4680BD00BF58
:1012380000210240004402580008025800000258E9
:101248000004025880B5BAB000AF786007F1D40343
:1012580000221A605A609A60DA601A6107F1100376
:10126800C02200211846FFF7ABF97B681B68264AA5
:10127800934245D14FF008024FF00003C7E9042319
:101288000023C7F8943007F11003184602F004FA57
:101298000346002B01D0FFF7D1FE1C4BD3F8E030FA
:1012A8001A4A43F00203C2F8E030184BD3F8E03092
:1012B80003F00203FB60FB68C023C7F8D430122395
:1012C800C7F8D8300023C7F8DC300023C7F8E0306F
:1012D8000423C7F8E43007F1D40319460C4804F096
:1012E800D9FE0A4BD3F8E830084A43F40013C2F891
:1012F800E830064BD3F8E83003F40013BB60BB6852
:1013080000BFE837BD4680BD005400400044025885
:101318000004025880B485B000AF78607B681B6811
:10132800164A93420FD1164BD3F8F030144A43F0C3
:101338000103C2F8F030124BD3F8F03003F0010388
:10134800FB60FB6813E07B681B680E4A93420ED172
:101358000B4BD3F8E8300A4A43F00203C2F8E830EE
:10136800074BD3F8E83003F00203BB60BB6800BF4B
:101378001437BD465DF8047B704700BF000001408C
:10138800004402580004004080B58CB000AF78607B
:1013980007F11C0300221A605A609A60DA601A6129
:1013A8007B681B68B3F1804F4ED1434BD3F8E830CC
:1013B800414A43F00103C2F8E8303F4BD3F8E83024
:1013C80003F00103BB61BB693B4BD3F8E0303A4AF9
:1013D80043F00103C2F8E030374BD3F8E03003F0B4
:1013E80001037B617B69344BD3F8E030324A43F028
:1013F8000203C2F8E030304BD3F8E03003F00203C8
:101408003B613B694FF40043FB6102233B620023CD
:101418007B620023BB620123FB6207F11C031946B0
:10142800264804F037FE0823FB6102233B620023B1
:101438007B620023BB620123FB6207F11C03194690
:101448001F4804F027FE32E07B681B681D4A934260
:101458002DD1194BD3F8E830174A43F00803C2F8E6
:10146800E830154BD3F8E83003F00803FB60FB685D
:10147800114BD3F8E030104A43F00103C2F8E030D2
:101488000D4BD3F8E03003F00103BB60BB680323C6
:10149800FB6102233B6200237B620023BB620223C1
:1014A800FB6207F11C031946044804F0F3FD00BF72
:1014B8003037BD4680BD00BF0044025800000258C6
:1014C80000040258000C004080B58AB000AF786074
:1014D80007F1140300221A605A609A60DA601A61F0
:1014E8007B681B68254A934220D1254BD3F8E0300E
:1014F800234A43F01003C2F8E030214BD3F8E03020
:1015080003F010033B613B694FF420637B610223C6
:10151800BB610023FB6100233B6201237B6207F16F
:1015280014031946174804F0B5FD23E07B681B68CF
:10153800154A93421ED1124BD3F8E030104A43F0BB
:101548000403C2F8E0300E4BD3F8E03003F0040394
:10155800FB60FB6840237B610223BB610023FB61C6
:1015680000233B6202237B6207F1140319460748F4
:1015780004F090FD00BF2837BD4680BD0000014043
:1015880000440258001002580004004000080258A5
:1015980080B5BEB000AF786007F1E40300221A609E
:1015A8005A609A60DA601A6107F12003C0220021AC
:1015B8001846FFF705F87B681B68734A934247D1C2
:1015C8004FF001024FF00003C7E908230023C7F8D2
:1015D8009C3007F12003184602F05EF80346002B02
:1015E80001D0FFF72BFD694BD3F8F030674A43F081
:1015F8001003C2F8F030654BD3F8F03003F0100355
:10160800FB61FB69614BD3F8E030604A43F00203A9
:10161800C2F8E0305D4BD3F8E03003F00203BB6161
:10162800BB694FF44043C7F8E4300223C7F8E830F9
:101638000023C7F8EC300023C7F8F0300423C7F8BC
:10164800F43007F1E4031946514804F023FD97E00C
:101658007B681B684F4A934246D14FF002024FF015
:101668000003C7E908230023C7F8983007F12003CF
:10167800184602F011F80346002B01D0FFF7DEFCF4
:10168800424BD3F8E830414A43F40033C2F8E8301B
:101698003E4BD3F8E83003F400337B617B693B4B66
:1016A800D3F8E030394A43F00803C2F8E030374B4A
:1016B800D3F8E03003F008033B613B696023C7F8C7
:1016C800E4300223C7F8E8300023C7F8EC300023E1
:1016D800C7F8F0300723C7F8F43007F1E4031946D8
:1016E8002D4804F0D7FC4BE07B681B682B4A9342DB
:1016F80046D14FF002024FF00003C7E90823002348
:10170800C7F8983007F12003184601F0C5FF0346D3
:10171800002B01D0FFF792FC1C4BD3F8E8301B4A92
:1017280043F48023C2F8E830184BD3F8E83003F4C8
:101738008023FB60FB68154BD3F8E030134A43F075
:101748000203C2F8E030114BD3F8E03003F0020393
:10175800BB60BB684FF44063C7F8E4300223C7F8A6
:10176800E8300023C7F8EC300023C7F8F03007232F
:10177800C7F8F43007F1E4031946054804F08AFC79
:1017880000BFF837BD4680BD001001400044025834
:101798000004025800440040000C02580048004071
:1017A80080B483B000AF786039607B689B6823F4AD
:1017B8007C123B681A437B689A6000BF0C37BD46B1
:1017C8005DF8047B704780B483B000AF78603960FF
:1017D8007B689B6823F0E0723B681A437B689A60D9
:1017E80000BF0C37BD465DF8047B704780B483B0FA
:1017F80000AF78607B689B6803F0E07318460C378D
:10180800BD465DF8047B704780B487B000AFF860D0
:10181800B9607A603B60FB6860331A46BB689B001E
:1018280013447B617B691B6803F000427B6803F00B
:10183800F8413B680B431A437B691A6000BF1C37A9
:10184800BD465DF8047B704780B485B000AFF86092
:10185800B9607A60FB681B6923F4F042BB6803F047
:101868001F03796801FA03F31A43FB681A6100BF82
:101878001437BD465DF8047B704780B487B000AF6D
:10188800F860B9607A60FB6860331A46BB689B00F1
:1018980013447B617B691B6823F000427B681A4311
:1018A8007B691A6000BF1C37BD465DF8047B704732
:1018B80080B487B000AFF860B9607A60FB683033F5
:1018C8001A46BB681B0A9B0003F00C0313447B6198
:1018D8007B691A68BB6803F01F031F2101FA03F331
:1018E800DB431A407B689B0E03F01F01BB6803F0C3
:1018F8001F0301FA03F31A437B691A6000BF1C3700
:10190800BD465DF8047B704780B487B000AFF860CF
:10191800B9607A60FB6814331A46BB685B0E9B009B
:1019280003F0040313447B617B691A68BB681B0DD1
:1019380003F01F03072101FA03F3DB431A40BB68D6
:101948001B0D03F01F03796801FA03F31A437B693F
:101958001A6000BF1C37BD465DF8047B7047000065
:1019680080B485B000AFF860B9607A60FB68D3F8DE
:10197800C020BB68C3F31303DB431A407B6803F042
:1019880018030849D940BB680B40C3F313031A4333
:10199800FB68C3F8C02000BF1437BD465DF8047B60
:1019A800704700BFFFFF0F0080B483B000AF7860BE
:1019B8007B689A68044B13407A68936000BF0C37C1
:1019C800BD465DF8047B7047C0FFFF5F80B483B0FD
:1019D80000AF78607B689B6803F00053B3F1005F49
:1019E80001D1012300E0002318460C37BD465DF8FD
:1019F800047B704780B483B000AF78607B689A68D6
:101A0800054B134043F080527B689A6000BF0C3747
:101A1800BD465DF8047B7047C0FFFF6F80B483B09C
:101A280000AF78607B689B6803F08053B3F1805FF8
:101A380001D1012300E0002318460C37BD465DF8AC
:101A4800047B704780B483B000AF78607B689B6884
:101A580003F00103012B01D1012300E00023184604
:101A68000C37BD465DF8047B704780B483B000AF87
:101A780078607B689B6803F00403042B01D1012381
:101A880000E0002318460C37BD465DF8047B70471C
:101A980080B483B000AF78607B689B6803F008036C
:101AA800082B01D1012300E0002318460C37BD465E
:101AB8005DF8047B7047000090B589B000AF78608E
:101AC8000023FB770023BB607B68002B01D1012337
:101AD8008FE17B68DB68002B7B685B6D002B09D18D
:101AE8007868FFF7FBFA7B6800229A657B6800221A
:101AF80083F850207B681B681846FFF767FF03468A
:101B0800002B04D07B681B681846FFF74DFF7B68E5
:101B18001B681846FFF782FF0346002B14D17B6829
:101B28001B681846FFF766FF874B1B689B09874AA7
:101B3800A2FB03239B090133BB6002E0BB68013BA6
:101B4800BB60BB68002BF9D17B681B681846FFF7A0
:101B580065FF0346002B0DD17B685B6D43F01002D7
:101B68007B685A657B689B6D43F001027B689A65C8
:101B78000123FB777B681B681846FFF776FF7861BF
:101B88007B685B6D03F01003002B40F029817B69B3
:101B9800002B40F025817B685B6D23F4817343F053
:101BA80002027B685A657B681B681846FFF74AFF84
:101BB8000346002B36D17B681B68654A934204D0E4
:101BC8007B681B68634A93420ED16148FFF73AFF6E
:101BD80004466048FFF736FF03462343002B0CBF3B
:101BE80001230023DBB208E05B48FFF72BFF034625
:101BF800002B0CBF01230023DBB2002B12D07B6823
:101C08001B68534A934204D07B681B68514A93422D
:101C180001D1524A00E0524A7B685B681946104677
:101C2800FFF7BEFD04F04CFE034641F20302934267
:101C380014D97B689B68102B10D17B685B7D5A0395
:101C48007B681B6B1A437B689B681A437B681B7F06
:101C58001B04134343F00C03BB610DE07B685B7D01
:101C68005A037B681B6B1A437B689B681A437B6823
:101C78001B7F1B041343BB617B681B7F012B06D1B1
:101C88007B681B6A013B5B04BA691343BB617B68D1
:101C98005B6A002B09D07B685B6A03F478727B6807
:101CA8009B6A1343BA691343BB617B681B68DA6894
:101CB8002C4B13407A681268B9690B43D3607B6870
:101CC8001B681846FFF7D1FE38617B681B68184609
:101CD800FFF7DEFEF8603B69002B5FD1FB68002B45
:101CE8005CD17B681B7D9A037B68DB6A1343BB610D
:101CF8007B681B68DA681C4B13407A681268B969FC
:101D08000B43D3607B6893F83830012B30D17B6864
:101D18005B6A002B7B681B681A69144B13407A684E
:101D2800D26B013A11047A68126C11437A68526CCA
:101D380011437A68926C0A431A437B681B6842F025
:101D480001021A611CE000BF08000020632D3E0557
:101D58000020024000210240006002580023024097
:101D68000063025803C0F0FFFCBFFFFF1EF800FC31
:101D78007B681B681A697B681B6822F001021A617C
:101D88007B681B681B6923F070417B685A6B7B6812
:101D98001B680A431A61786800F08CFB7B68DB6873
:101DA800012B0CD17B681B681B6B23F00F017B6830
:101DB8009B695A1E7B681B680A431A6307E07B68A5
:101DC8001B681A6B7B681B6822F00F021A637B681A
:101DD8005B6D23F0030343F001027B685A6507E05B
:101DE8007B685B6D43F010027B685A650123FB77C3
:101DF800FB7F18462437BD4690BD00BF90B5A1B003
:101E080000AF78603960002387F87F300023BB601B
:101E18003B68DB68654A93427B6893F85030012B36
:101E280001D102232EE37B68012283F850207B68CE
:101E38001B681846FFF719FE0346002B40F0138372
:101E48003B681B68002B2CDB3B681B68C3F3130340
:101E5800002B08D13B681B689B0E03F01F0301226F
:101E680002FA03F316E03B681B687B667B6E93FA05
:101E7800A3F33B663B6EBB66BB6E002B01D12023F0
:101E880003E0BB6EB3FA83F3DBB203F01F03012256
:101E980002FA03F37A681268D1697A6812680B4308
:101EA800D3617B6818683B6859683B681B681A46A9
:101EB800FFF7FEFC7B681B681846FFF7D6FDB8677E
:101EC8007B681B681846FFF7E3FD7867BB6F002B3C
:101ED80040F0B8807B6F002B40F0B4807B681868B6
:101EE8003B6819683B689B681A46FFF70DFD304B45
:101EF8001B6803F07043B3F1805F0BD13B685A69EC
:101F08007B681B68DB689B0803F007035B0002FA29
:101F180003F31DE07B681B68DB6803F01003002BEC
:101F28000BD13B685A697B681B68DB689B0803F028
:101F380007035B0002FA03F30AE03B685A697B680F
:101F48001B68DB689B0803F004035B0002FA03F3D9
:101F58003B673B681B69042B2CD07B6818683B687F
:101F680019693B681A683B6FFFF74EFC7B68186875
:101F78003B6819693B685B7E012B02D14FF0004337
:101F880000E000231A46FFF778FC7B6818683B6876
:101F980019693B681B7E012B02D14FF4006300E0F6
:101FA80000231A46FFF750FC4CE000BF0000FF4733
:101FB8000010005C7B681B681B6E03F0F8423B68EE
:101FC8001B689B069A4207D17B681B681A6E7B6860
:101FD8001B6822F000421A667B681B685B6E03F080
:101FE800F8423B681B689B069A4207D17B681B68CE
:101FF8005A6E7B681B6822F000425A667B681B6831
:102008009B6E03F0F8423B681B689B069A4207D117
:102018007B681B689A6E7B681B6822F000429A6690
:102028007B681B68DB6E03F0F8423B681B689B0605
:102038009A4207D17B681B68DA6E7B681B6822F0BE
:102048000042DA667B681B681846FFF7FBFC03460C
:10205800002B40F011827B6818683B6819683B6860
:10206800DB681A46FFF77CFC3B68DB68A14A9342B1
:1020780040F02E817B6818683B681B68C3F3130324
:10208800002B0BD13B681B689B0E013303F01F0329
:10209800092B94BF01230023DBB219E03B681B68BE
:1020A800BB65BB6D93FAA3F37B657B6DFB65FB6D2D
:1020B800002B01D1202303E0FB6DB3FA83F3DBB2DD
:1020C800013303F01F03092B94BF01230023DBB264
:1020D800002B79D03B681B68C3F31303002B07D18F
:1020E8003B681B689B0E01339B0603F0F84215E022
:1020F8003B681B68FB64FB6C93FAA3F3BB64BB6C83
:102108003B653B6D002B01D1202303E03B6DB3FA07
:1021180083F3DBB201339B0603F0F8423B681B688C
:10212800C3F31303002B09D13B681B689B0E0133D3
:1021380003F01F03012101FA03F317E03B681B6852
:102148003B643B6C93FAA3F3FB63FB6B7B647B6C94
:10215800002B01D1202303E07B6CB3FA83F3DBB2BD
:10216800013303F01F03012101FA03F342EA0301DB
:102178003B681B68C3F31303002B0AD13B681B6839
:102188009B0E013303F01F0213465B0013441B052B
:1021980018E03B681B687B637B6B93FAA3F33B6394
:1021A8003B6BBB63BB6B002B01D1202303E0BB6BF4
:1021B800B3FA83F3DBB2013303F01F0213465B006B
:1021C80013441B050B437EE03B681B68C3F31303F2
:1021D800002B07D13B681B689B0E01339B0603F05D
:1021E800F84215E03B681B68BB62BB6A93FAA3F32D
:1021F8007B627B6AFB62FB6A002B01D1202303E030
:10220800FB6AB3FA83F3DBB201339B0603F0F842AF
:102218003B681B68C3F31303002B09D13B681B6899
:102228009B0E013303F01F03012101FA03F317E0AA
:102238003B681B68FB61FB6993FAA3F3BB61BB694D
:102248003B623B6A002B01D1202303E03B6AB3FACF
:1022580083F3DBB2013303F01F03012101FA03F317
:1022680042EA03013B681B68C3F31303002B0DD13B
:102278003B681B689B0E013303F01F0213465B008B
:1022880013441E3B1B0543F000731BE03B681B68AF
:102298003B613B6993FAA3F3FB60FB687B617B6955
:1022A800002B01D1202303E07B69B3FA83F3DBB26F
:1022B800013303F01F0213465B0013441E3B1B054A
:1022C80043F000730B433A6892681946FFF71CFB0A
:1022D8003B681B68002B80F2CF807B681B68064A2E
:1022E800934204D07B681B68044A93420AD1044B8A
:1022F80009E000BF0000FF47002002400021024023
:1023080000230240614B1846FFF770FAF8667B68B5
:102318001B685F4A934204D07B681B685D4A9342FE
:102328000ED15B48FFF78EFB04465A48FFF78AFB3D
:1023380003462343002B0CBF01230023DBB208E034
:102348005548FFF77FFB0346002B0CBF01230023F2
:10235800DBB2002B7DD03B681B68504A934230D1DA
:10236800FB6E03F40003002B2BD17B681B684A4AE1
:10237800934240F081807B681B68454A934204D0B1
:102388007B681B68434A934201D1454A00E03F4AB3
:10239800FB6E43F4000319461046FFF714FA414B4D
:1023A8001B689B09404AA2FB03239B0901335B007E
:1023B800BB6002E0BB68013BBB60BB68002BF9D186
:1023C8005AE03B681B68394A93421ED1FB6E03F002
:1023D8008073002B19D17B681B682F4A93424BD11D
:1023E8007B681B682A4A934204D07B681B68294A89
:1023F800934201D12A4A00E0244AFB6E43F08073DD
:1024080019461046FFF7DFF936E03B681B68284A93
:10241800934231D1FB6E03F48003002B2CD17B68EF
:102428001B681D4A934227D17B681B68184A934250
:1024380004D07B681B68174A934201D1184A00E010
:10244800124AFB6E43F4800319461046FFF7BBF9A6
:1024580012E07B685B6D43F020027B685A650123BC
:1024680087F87F3008E07B685B6D43F020027B686B
:102478005A65012387F87F307B68002283F8502053
:1024880097F87F3018468437BD4690BD00630258E0
:10249800002002400021024000600258000084CB66
:1024A8000023024008000020632D3E05000052C7AB
:1024B8000000B8CF80B584B000AF78607B681B6837
:1024C8007A4A934204D07B681B68794A934209D1BF
:1024D800784B9B6803F44033002B14BF012300237F
:1024E800DBB208E0744B9B6803F44033002B14BF45
:1024F80001230023DBB2002B1CD001F071F8F86037
:102508007B685B68B3F5403F10D0B3F5403F73D8A4
:10251800B3F5803F02D0B3F5003F6DD17B685B68AF
:102528001B0CFA68B2FBF3F3FB6068E0FB689B08DE
:10253800FB6064E04FF400204FF0000102F0B6FAAF
:10254800F8607B685B68B3F5301F51D0B3F5301F76
:1025580054D8B3F5201F47D0B3F5201F4ED8B3F594
:10256800101F3DD0B3F5101F48D8B3F5001F33D066
:10257800B3F5001F42D8B3F5E01F29D0B3F5E01F2B
:102588003CD8B3F5C01F1AD0B3F5C01F36D8B3F581
:10259800A01F14D0B3F5A01F30D8B3F5801F0ED0FC
:1025A800B3F5801F2AD8B3F5402F08D0B3F5402FD4
:1025B80024D8B3F5802F02D0B3F5002F1ED17B6845
:1025C8005B689B0C5B00FA68B2FBF3F3FB6016E0F8
:1025D800FB681B09FB6012E0FB685B09FB600EE00F
:1025E800FB689B09FB600AE0FB68DB09FB6006E00F
:1025F800FB681B0AFB6002E000BF00E000BF04F0BC
:102608005FF9034641F20302934215D8FB682B4A4F
:10261800934208D97B681B689A687B681B6842F4F8
:1026280080729A603EE07B681B689A687B681B68CA
:1026380022F480729A6035E0FB685B08FB60FB68F7
:102648001F4A934208D87B681B689A687B681B6896
:1026580022F440729A6025E0FB681A4A93420AD82D
:102668007B681B689B6823F440727B681B6842F494
:1026780080729A6016E0FB68134A93420AD87B6816
:102688001B689B6823F440727B681B6842F40072E5
:102698009A6007E07B681B689A687B681B6842F44D
:1026A80040729A6000BF1037BD4680BD00200240CE
:1026B800002102400023024000630258002D31012E
:1026C800105E5F0020BCBE0040787D0180B58CB0F4
:1026D80000AF78607B68002B02D1012300F048BC72
:1026E8007B681B6803F00103002B00F08880994B7E
:1026F8001B6903F03803FB62964B9B6ABB62FB6A5B
:10270800102B07D0FB6A182B11D1BB6A03F0030307
:10271800022B0CD18F4B1B6803F40033002B6DD0B8
:102728007B685B68002B69D1012300F021BC7B68C2
:102738005B68B3F5803F06D1864B1B68854A43F436
:10274800803313602EE07B685B68002B0CD1814BD3
:102758001B68804A23F4803313607E4B1B687D4AD4
:1027680023F4802313601DE07B685B68B3F5A02F1A
:102778000CD1784B1B68774A43F480231360754B60
:102788001B68744A43F4803313600BE0714B1B6879
:10279800704A23F4803313606E4B1B686D4A23F430
:1027A800802313607B685B68002B13D004F058F813
:1027B800786208E004F054F802467B6AD31A642B66
:1027C80001D90323D4E3634B1B6803F40033002BC4
:1027D800F0D014E004F044F8786208E004F040F81F
:1027E80002467B6AD31A642B01D90323C0E3594BF1
:1027F8001B6803F40033002BF0D100E000BF7B68B6
:102808001B6803F00203002B00F0CA80514B1B69C0
:1028180003F038033B624F4B9B6AFB613B6A002B1A
:1028280007D03B6A182B56D1FB6903F00303002B32
:1028380051D1484B1B6803F00403002B05D07B687B
:10284800DB68002B01D1012392E3424B1B6823F084
:1028580019027B68DB683F4913430B6004F000F8FA
:10286800786208E003F0FCFF02467B6AD31A022B69
:1028780001D903237CE3374B1B6803F00403002BC7
:10288800F0D004F01DF8034641F20302934217D832
:102898007B681B69402B08D12E4B5B6823F47C3383
:1028A8002C4A43F4003353607AE02A4B5B6823F4E4
:1028B8007C327B681B691B03264913434B606FE01E
:1028C800244B5B6823F0FE427B681B691B06214989
:1028D80013434B6064E07B68DB68002B47D01D4BDB
:1028E8001B6823F019027B68DB681A4913430B60E5
:1028F80003F0B6FF786208E003F0B2FF02467B6A95
:10290800D31A022B01D9032332E3124B1B6803F0BD
:102918000403002BF0D003F0D3FF034641F2030277
:10292800934219D87B681B69402B08D1094B5B6817
:1029380023F47C33074A43F40033536030E0054BFB
:102948005B6823F47C327B681B691B0301491343D2
:102958004B6025E0004402589A4B5B6823F0FE4226
:102968007B681B691B06974913434B6018E0954B1E
:102978001B68944A23F00103136003F071FF786227
:1029880008E003F06DFF02467B6AD31A022B01D9D7
:102998000323EDE28B4B1B6803F00403002BF0D1FB
:1029A8007B681B6803F01003002B00F0A980854B9F
:1029B8001B6903F03803BB61824B9B6A7B61BB696F
:1029C800082B07D0BB69182B3AD17B6903F00303A6
:1029D800012B35D17B4B1B6803F48073002B05D08A
:1029E8007B68DB69802B01D00123C1E203F068FF1B
:1029F800034641F20302934217D87B681B6A202BD7
:102A080008D1704B5B6823F0F8436E4A43F080436B
:102A1800536075E06B4B5B6823F0F8427B681B6A78
:102A28009B06684913434B606AE0664BDB6823F0FA
:102A38007C527B681B6A1B0662491343CB605FE0CC
:102A48007B68DB69002B42D05E4B1B685D4A43F014
:102A58008003136003F004FF786208E003F000FFCE
:102A680002467B6AD31A022B01D9032380E2554B15
:102A78001B6803F48073002BF0D003F021FF03469A
:102A880041F20302934217D87B681B6A202B08D1B6
:102A98004C4B5B6823F0F8434A4A43F08043536049
:102AA8002EE0484B5B6823F0F8427B681B6A9B0664
:102AB800444913434B6023E0424BDB6823F07C52CC
:102AC8007B681B6A1B063F491343CB6018E03D4BEC
:102AD8001B683C4A23F08003136003F0C1FE786250
:102AE80008E003F0BDFE02467B6AD31A022B01D927
:102AF80003233DE2334B1B6803F48073002BF0D1B2
:102B08007B681B6803F00803002B36D07B685B6981
:102B1800002B19D02B4B5B6F2A4A43F001035367F4
:102B280003F09EFE786208E003F09AFE02467B6A94
:102B3800D31A022B01D903231AE2224B5B6F03F04D
:102B48000203002BF0D018E01E4B5B6F1D4A23F0E8
:102B58000103536703F084FE786208E003F080FE07
:102B680002467B6AD31A022B01D9032300E2154BD4
:102B78005B6F03F00203002BF0D17B681B6803F046
:102B88002003002B39D07B689B69002B1CD00D4B90
:102B98001B680C4A43F48053136003F061FE7862AB
:102BA80008E003F05DFE02467B6AD31A022B01D9C6
:102BB8000323DDE1034B1B6803F40053002BF0D023
:102BC8001BE000BF004402589B4B1B689A4A23F441
:102BD8008053136003F044FE786208E003F040FE7F
:102BE80002467B6AD31A022B01D90323C0E1924B18
:102BF8001B6803F40053002BF0D17B681B6803F0BB
:102C08000403002B00F081808C4B1B688B4A43F433
:102C18008073136003F024FE786208E003F020FE5E
:102C280002467B6AD31A642B01D90323A0E1834BA4
:102C38001B6803F48073002BF0D07B689B68012B22
:102C480006D17D4B1B6F7C4A43F0010313672DE0CF
:102C58007B689B68002B0CD1774B1B6F764A23F05F
:102C680001031367744B1B6F734A23F00403136744
:102C78001CE07B689B68052B0CD16F4B1B6F6E4A61
:102C880043F0040313676C4B1B6F6B4A43F001035B
:102C980013670BE0684B1B6F674A23F00103136748
:102CA800654B1B6F644A23F0040313677B689B68BA
:102CB800002B15D003F0D4FD78620AE003F0D0FDB4
:102CC80002467B6AD31A41F28832934201D9032320
:102CD8004EE1594B1B6F03F00203002BEED014E0BA
:102CE80003F0BEFD78620AE003F0BAFD02467B6A93
:102CF800D31A41F28832934201D9032338E14E4B6B
:102D08001B6F03F00203002BEED17B685B6A002B7C
:102D180000F02D81484B1B6903F03803182B00F095
:102D2800BD807B685B6A022B40F09E80424B1B682B
:102D3800414A23F08073136003F092FD786208E043
:102D480003F08EFD02467B6AD31A022B01D90323B6
:102D58000EE1394B1B6803F00073002BF0D1364BA2
:102D68009A6A374B13407A68916A7A68D26A120174
:102D78000A43314913438B627B681B6B013BC3F3E6
:102D880008027B685B6B013B5B029BB21A437B6862
:102D98009B6B013B1B0403F4FE031A437B68DB6B4C
:102DA800013B1B0603F0FE43234913430B63224BED
:102DB800DB6A214A23F00103D3621F4B5A6B214B74
:102DC80013407A68926CD2001B4913434B631A4B29
:102DD800DB6A23F00C027B681B6C17491343CB6238
:102DE800154BDB6A23F002027B685B6C12491343C4
:102DF800CB62114BDB6A104A43F48033D3620E4B2B
:102E0800DB6A0D4A43F40033D3620B4BDB6A0A4A90
:102E180043F48023D362084BDB6A074A43F001037B
:102E2800D362054B1B68044A43F08073136003F0B8
:102E380017FD786211E000BF0044025800480258AC
:102E48000CFCFFFF0700FFFF03F00AFD02467B6A48
:102E5800D31A022B01D903238AE0474B1B6803F0DE
:102E68000073002BF0D082E0434B1B68424A23F0EA
:102E78008073136003F0F4FC786208E003F0F0FC60
:102E880002467B6AD31A022B01D9032370E03A4B1E
:102E98001B6803F00073002BF0D168E0364B9B6A87
:102EA8003B61354B1B6BFB607B685B6A012B31D048
:102EB8003B6903F003027B689B6A9A422AD13B690B
:102EC8001B0903F03F027B68DB6A9A4222D1FB6848
:102ED800C3F308027B681B6B013B9A421AD1FB685B
:102EE8005B0A03F07F027B685B6B013B9A4211D15E
:102EF800FB681B0C03F07F027B689B6B013B9A42CB
:102F080008D1FB681B0E03F07F027B68DB6B013B7B
:102F18009A4201D001232BE0174B5B6BDB08C3F30C
:102F28000C033B617B689B6C3A699A421FD0124B39
:102F3800DB6A114A23F00103D36203F091FC786243
:102F480000BF03F08DFC02467B6A9342F9D00A4B1E
:102F58005A6B0A4B13407A68926CD20006491343A5
:102F68004B63054BDB6A044A43F00103D362002339
:102F780018463037BD4680BD004402580700FFFFA1
:102F880080B586B000AF786039607B68002B01D1CE
:102F980001239CE18A4B1B6803F00F033A689A42AD
:102FA80010D9874B1B6823F00F0285493B681343F0
:102FB8000B60834B1B6803F00F033A689A4201D0F9
:102FC800012384E17B681B6803F00403002B10D005
:102FD8007B681A697B4B9B6903F070039A4208D996
:102FE800784B9B6923F070027B681B697549134312
:102FF8008B617B681B6803F00803002B10D07B688B
:103008005A69704BDB6903F070039A4208D96D4B1B
:10301800DB6923F070027B685B696A491343CB6103
:103028007B681B6803F01003002B10D07B689A693B
:10303800644BDB6903F4E0639A4208D9614BDB69AE
:1030480023F4E0627B689B695E491343CB617B682C
:103058001B6803F02003002B10D07B68DA69594BFA
:103068001B6A03F070039A4208D9564B1B6A23F077
:1030780070027B68DB69534913430B627B681B68EA
:1030880003F00203002B10D07B68DA684D4B9B6974
:1030980003F00F039A4208D94A4B9B6923F00F02A9
:1030A8007B68DB68474913438B617B681B6803F0C7
:1030B8000103002B55D0434B9B6923F470627B6856
:1030C8009B68404913438B617B685B68022B07D17F
:1030D8003C4B1B6803F40033002B21D10123F6E09D
:1030E8007B685B68032B07D1364B1B6803F00073C2
:1030F800002B15D10123EAE07B685B68012B07D11F
:10310800304B1B6803F48073002B09D10123DEE0E8
:103118002C4B1B6803F00403002B01D10123D6E0DC
:10312800284B1B6923F007027B685B68254913431A
:103138000B6103F095FB78610AE003F091FB02460E
:103148007B69D31A41F28832934201D90323BEE046
:103158001C4B1B6903F038027B685B68DB009A42F2
:10316800EBD17B681B6803F00203002B10D07B684F
:10317800DA68144B9B6903F00F039A4208D2114B8B
:103188009B6923F00F027B68DB680E4913438B6150
:103198000B4B1B6803F00F033A689A4214D2084B92
:1031A8001B6823F00F0206493B6813430B60044B6E
:1031B8001B6803F00F033A689A4205D0012386E0A2
:1031C80000200052004402587B681B6803F0040387
:1031D800002B10D07B681A693F4B9B6903F0700382
:1031E8009A4208D23C4B9B6923F070027B681B69AA
:1031F800394913438B617B681B6803F00803002B74
:1032080010D07B685A69344BDB6903F070039A422B
:1032180008D2314BDB6923F070027B685B692E4969
:103228001343CB617B681B6803F01003002B10D09D
:103238007B689A69284BDB6903F4E0639A4208D2F9
:10324800254BDB6923F4E0627B689B6922491343C1
:10325800CB617B681B6803F02003002B10D07B68D0
:10326800DA691D4B1B6A03F070039A4208D21A4BA5
:103278001B6A23F070027B68DB69174913430B62F2
:1032880000F034F80246144B9B691B0A03F00F0345
:103298001249CB5C03F01F0322FA03F33B610E4B88
:1032A8009B6903F00F030D4AD35C03F01F033A69CF
:1032B80022FA03F30A4A13600A4A3B6913600A4B6D
:1032C8001B68184603F082FA0346FB73FB7B18461B
:1032D8001837BD4680BD00BF00440258D48B000893
:1032E8000C000020080000200000002080B489B0F5
:1032F80000AFB34B1B6903F03803182B00F255815C
:1033080001A252F823F000BF75330008B335000856
:10331800B3350008B3350008B3350008B3350008E5
:10332800B3350008B33500089B330008B3350008EF
:10333800B3350008B3350008B3350008B3350008C5
:10334800B3350008B3350008A1330008B3350008C9
:10335800B3350008B3350008B3350008B3350008A5
:10336800B3350008B3350008A7330008944B1B6831
:1033780003F02003002B09D0914B1B68DB0803F0F6
:103388000303904A22FA03F3BB6111E18D4BBB6141
:103398000EE18D4BBB610BE18C4BBB6108E1884BA7
:1033A8009B6A03F003037B61854B9B6A1B0903F04F
:1033B8003F033B61824BDB6A03F00103FB60804BF8
:1033C8005B6BDB08C3F30C03FA6802FB03F307EE3D
:1033D800903AF8EE677AC7ED027A3B69002B00F065
:1033E800E1807B69022B00F083807B69022B00F26D
:1033F800A1807B69002B03D07B69012B56D099E013
:103408006F4B1B6803F02003002B2DD06C4B1B68FF
:10341800DB0803F003036B4A22FA03F37B607B6843
:1034280007EE903AF8EE676A3B6907EE903AF8EED5
:10343800677A86EEA77A624B1B6BC3F3080307EE25
:10344800903AF8EE676A97ED026ADFED615AC6EEC8
:10345800257A76EEA77AF7EE006A77EEA67A67EE17
:10346800277AC7ED077A87E03B6907EE903AF8EECE
:10347800677ADFED586A86EEA77A514B1B6BC3F368
:10348800080307EE903AF8EE676A97ED026ADFEDF7
:10349800505AC6EE257A76EEA77AF7EE006A77EEEE
:1034A800A67A67EE277AC7ED077A65E03B6907EEEB
:1034B800903AF8EE677ADFED486A86EEA77A404BD5
:1034C8001B6BC3F3080307EE903AF8EE676A97EDB3
:1034D800026ADFED3F5AC6EE257A76EEA77AF7EE56
:1034E800006A77EEA67A67EE277AC7ED077A43E097
:1034F8003B6907EE903AF8EE677ADFED386A86EEB8
:10350800A77A2F4B1B6BC3F3080307EE903AF8EE2C
:10351800676A97ED026ADFED2E5AC6EE257A76EED7
:10352800A77AF7EE006A77EEA67A67EE277AC7EDF4
:10353800077A21E03B6907EE903AF8EE677ADFED0B
:10354800266A86EEA77A1E4B1B6BC3F3080307EEA9
:10355800903AF8EE676A97ED026ADFED1D5AC6EEFB
:10356800257A76EEA77AF7EE006A77EEA67A67EE06
:10357800277AC7ED077A00BF114B1B6B5B0A03F074
:103588007F0301333B603B6807EE903AB8EE677AF9
:10359800D7ED076AC6EE877AFCEEE77A17EE903A1F
:1035A800BB6105E00023BB6102E0074BBB6100BFC4
:1035B800BB6918462437BD465DF8047B704700BFD9
:1035C800004402580090D00300093D00006CDC0262
:1035D800000000460024744C0024744A001B374C39
:1035E80080B582B000AFFFF781FE0246104B9B69A1
:1035F8001B0A03F00F030F49CB5C03F01F0322FAE9
:1036080003F37B600A4B9B6903F00F03094AD35C01
:1036180003F01F037A6822FA03F3074A1360074A84
:103628007B681360044B1B6818460837BD4680BD8D
:1036380000440258D48B00080C0000200800002029
:1036480080B500AFFFF7CCFF0246064BDB691B09CC
:1036580003F007030449CB5C03F01F0322FA03F3CA
:10366800184680BD00440258D48B000880B500AFCE
:10367800FFF7B6FF0246064BDB691B0A03F0070398
:103688000449CB5C03F01F0322FA03F3184680BDFC
:1036980000440258D48B00082DE9B04FCAB000AFDF
:1036A800C7F81401002387F82731002387F826314B
:1036B800D7F81431D3E9002302F00064002554EA56
:1036C800050349D0D7F814319B6EB3F5401F2FD0AE
:1036D800B3F5401F28D8B3F5001F1AD0B3F5001F63
:1036E80022D8002B03D0B3F5801F07D01CE0B84BBD
:1036F800DB6AB74A43F40033D3621AE0D7F81431CF
:1037080008330221184602F061FB034687F8273187
:103718000FE0D7F8143128330221184602F008FCCC
:10372800034687F8273104E0012387F8273100E0B2
:1037380000BF97F82731002B0AD1A54B1B6D23F446
:103748004011D7F814319B6EA14A0B43136503E06F
:1037580097F8273187F82631D7F81431D3E90023B1
:1037680002F480784FF0000958EA090347D0D7F8E7
:1037780014319B6D042B2AD801A252F823F000BF04
:103788009D370008AB370008C1370008DF3700084D
:10379800DF3700088E4BDB6A8D4A43F40033D3626F
:1037A8001AE0D7F8143108330021184602F00EFB4E
:1037B800034687F827310FE0D7F814312833002162
:1037C800184602F0B5FB034687F8273104E00123C9
:1037D80087F8273100E000BF97F82731002B0AD17E
:1037E8007B4B1B6D23F00701D7F814319B6D784A8A
:1037F8000B43136503E097F8273187F82631D7F88C
:103808001431D3E9002302F4007A4FF0000B5AEA8E
:103818000B034CD0D7F81431DB6DB3F5807F30D073
:10382800B3F5807F29D8C02B2DD0C02B25D8802B6D
:1038380018D0802B21D8002B02D0402B07D01CE0B9
:10384800634BDB6A624A43F40033D3621CE0D7F867
:10385800143108330021184602F0B8FA034687F8F5
:10386800273111E0D7F8143128330021184602F027
:103878005FFB034687F8273106E0012387F82731E5
:1038880002E000BF00E000BF97F82731002B0AD103
:103898004F4B1B6D23F4E071D7F81431DB6D4C4AA4
:1038A8000B43136503E097F8273187F82631D7F8DB
:1038B8001431D3E9002302F48063C7F808310023E8
:1038C800C7F80C31D7E942120B46134353D0D7F847
:1038D8001431D3F8A830B3F5000F35D0B3F5000F85
:1038E8002ED8B3F5C00F31D0B3F5C00F28D8B3F533
:1038F800800F1AD0B3F5800F22D8002B03D0B3F570
:10390800001F07D01CE0324BDB6A314A43F4003316
:10391800D3621CE0D7F8143108330021184602F0AE
:1039280055FA034687F8273111E0D7F814312833C0
:103938000021184602F0FCFA034687F8273106E012
:10394800012387F8273102E000BF00E000BF97F8A5
:103958002731002B0BD11E4B9B6D23F46001D7F848
:103968001431D3F8A8301A4A0B43936503E097F84B
:10397800273187F82631D7F81431D3E9002302F428
:103988000063C7F800310023C7F80431D7E94012B3
:103998000B46134356D0D7F81431D3F8AC30B3F1F3
:1039A800806F38D0B3F1806F31D8B3F1407F34D015
:1039B800B3F1407F2BD8B3F1007F1DD0B3F1007F66
:1039C80025D8002B06D0B3F1807F0AD01FE000BFB6
:1039D80000440258A24BDB6AA14A43F40033D36285
:1039E8001CE0D7F8143108330021184602F0EEF92C
:1039F800034687F8273111E0D7F81431283300211E
:103A0800184602F095FA034687F8273106E00123A5
:103A180087F8273102E000BF00E000BF97F82731A0
:103A2800002B0BD18E4B9B6D23F0E061D7F814313E
:103A3800D3F8AC308A4A0B43936503E097F82731F3
:103A480087F82631D7F81431D3E9002302F0007340
:103A5800C7F8F8300023C7F8FC30D7E93E120B4608
:103A680013433AD0D7F81431DB6C302B1FD0302BEE
:103A780019D8202B0CD0202B15D8002B19D0102B9F
:103A880011D1774BDB6A764A43F40033D36211E0F5
:103A9800D7F8143108330221184602F097F9034683
:103AA80087F8273106E0012387F8273102E000BFB5
:103AB80000E000BF97F82731002B0AD1684BDB6C78
:103AC80023F03001D7F81431DB6C654A0B43D3641B
:103AD80003E097F8273187F82631D7F81431D3E96E
:103AE800002302F48053C7F8F0300023C7F8F430FD
:103AF800D7E93C120B46134351D0D7F814311B6E4B
:103B0800B3F5804F35D0B3F5804F2ED8B3F5405F6D
:103B180031D0B3F5405F28D8B3F5005F1AD0B3F5BC
:103B2800005F22D8002B03D0B3F5805F07D01CE0DC
:103B38004B4BDB6A4A4A43F40033D3621CE0D7F8A4
:103B4800143108330021184602F040F9034687F87B
:103B5800273111E0D7F8143128330021184602F034
:103B6800E7F9034687F8273106E0012387F827316C
:103B780002E000BF00E000BF97F82731002B0AD110
:103B8800374B1B6D23F4E041D7F814311B6E344AD0
:103B98000B43136503E097F8273187F82631D7F8E8
:103BA8001431D3E9002302F40053C7F8E8300023A6
:103BB800C7F8EC30D7E93A120B46134356D0D7F87A
:103BC80014315B6EB3F5A02F33D0B3F5A02F2CD8EA
:103BD800B3F5802F2FD0B3F5802F26D8B3F5403F0B
:103BE8002BD0B3F5403F20D8B3F5003F12D0B3F542
:103BF800003F1AD8002B22D0B3F5803F15D1D7F853
:103C0800143108330121184602F0E0F8034687F81A
:103C1800273115E0D7F8143128330121184602F06E
:103C280087F9034687F827310AE0012387F8273107
:103C380006E000BF04E000BF02E000BF00E000BFF4
:103C480097F82731002B0DD1054B1B6D23F4E0218C
:103C5800D7F814315B6E024A0B43136506E000BFC8
:103C68000044025897F8273187F82631D7F81431DD
:103C7800D3E9002302F48043C7F8E0300023C7F8F3
:103C8800E430D7E938120B46134355D0D7F814312E
:103C9800D3F8B030B3F1A04F33D0B3F1A04F2CD844
:103CA800B3F1804F2FD0B3F1804F26D8B3F1405FE6
:103CB8002BD0B3F1405F20D8B3F1005F12D0B3F13D
:103CC800005F1AD8002B22D0B3F1805F15D1D7F846
:103CD800143108330121184602F078F8034687F8B2
:103CE800273115E0D7F8143128330121184602F09E
:103CF8001FF9034687F827310AE0012387F827319F
:103D080006E000BF04E000BF02E000BF00E000BF23
:103D180097F82731002B0BD1A34B9B6D23F0E04183
:103D2800D7F81431D3F8B0309F4A0B43936503E0BA
:103D380097F8273187F82631D7F81431D3E90023CB
:103D480002F40043C7F8D8300023C7F8DC30D7E9BD
:103D580036120B46134337D0D7F814311B6FB3F123
:103D6800005F0ED0B3F1005F16D8002B18D0B3F166
:103D7800805F11D18C4BDB6A8B4A43F40033D362EA
:103D88000FE0D7F8143108330121184602F01EF865
:103D9800034687F8273104E0012387F8273100E03C
:103DA80000BF97F82731002B0AD17F4B1B6D23F0FA
:103DB8004051D7F814311B6F7B4A0B43136503E05E
:103DC80097F8273187F82631D7F81431D3E900233B
:103DD80002F08073C7F8D0300023C7F8D430D7E991
:103DE80034120B46134339D0D7F814319B6C032B8C
:103DF8001CD801A252F823F03D3E0008113E0008ED
:103E08001F3E00083D3E0008674BDB6A664A43F4E4
:103E18000033D3620FE0D7F8143108330221184673
:103E280001F0D4FF034687F8273104E0012387F81F
:103E3800273100E000BF97F82731002B0AD15A4BF1
:103E4800DB6C23F00301D7F814319B6C564A0B4303
:103E5800D36403E097F8273187F82631D7F814316F
:103E6800D3E9002302F48003C7F8C8300023C7F859
:103E7800CC30D7E932120B46134300F09F804B4BEE
:103E88001B684A4A43F48073136002F0E9FCC7F8E0
:103E980020010BE002F0E4FC0246D7F82031D31AE7
:103EA800642B03D9032387F8273105E03F4B1B68B0
:103EB80003F48073002BEDD097F82731002B79D1CC
:103EC800394B1A6FD7F81431D3F8B430534003F490
:103ED8004073002B15D0344B1B6F23F44073C7F885
:103EE8001C31314B1B6F304A43F4803313672E4B20
:103EF8001B6F2D4A23F4803313672B4AD7F81C31E4
:103F08001367D7F81431D3F8B430B3F5807F18D1DC
:103F180002F0A6FCC7F820010DE002F0A1FC024661
:103F2800D7F82031D21A41F288339A4203D90323B1
:103F380087F8273105E01C4B1B6F03F00203002BA9
:103F4800EBD097F82731002B29D1D7F81431D3F8C3
:103F5800B43003F44073B3F5407F0ED1124B1B69A4
:103F680023F47C51D7F81431D3F8B4301A09104B24
:103F780013400D4A0B43136105E00B4B1B690A4ABA
:103F880023F47C531361084B196FD7F81431D3F815
:103F9800B430C3F30B03044A0B4313670EE097F8DE
:103FA800273187F8263109E00044025800480258B2
:103FB800CFFFFF0097F8273187F82631D7F814315B
:103FC800D3E9002302F00103C7F8C0300023C7F883
:103FD800C430D7E930120B46134300F08980D7F874
:103FE8001431DB6F282B6BD801A252F823F000BFE5
:103FF800D1400008C9400008C9400008C94000086D
:10400800C9400008C9400008C9400008C940000864
:104018009D400008C9400008C9400008C940000880
:10402800C9400008C9400008C9400008C940000844
:10403800B3400008C9400008C9400008C94000084A
:10404800C9400008C9400008C9400008C940000824
:10405800D1400008C9400008C9400008C94000080C
:10406800C9400008C9400008C9400008C940000804
:10407800D1400008C9400008C9400008C9400008EC
:10408800C9400008C9400008C9400008C9400008E4
:10409800D1400008D7F8143108330121184601F03F
:1040A80095FE034687F827310FE0D7F814312833F7
:1040B8000121184601F03CFF034687F8273104E048
:1040C800012387F8273100E000BF97F82731002B3C
:1040D8000AD1BF4B5B6D23F03801D7F81431DB6F81
:1040E800BB4A0B43536503E097F8273187F826311D
:1040F800D7F81431D3E9002302F00203C7F8B83027
:104108000023C7F8BC30D7E92E120B46134341D021
:10411800D7F814319B6F052B24D801A252F823F04D
:1041280075410008414100085741000875410008E1
:104138007541000875410008D7F81431083301218A
:10414800184601F043FE034687F827310FE0D7F8F9
:10415800143128330121184601F0EAFE034687F896
:10416800273104E0012387F8273100E000BF97F8E2
:104178002731002B0AD1964B5B6D23F00701D7F846
:1041880014319B6F924A0B43536503E097F827312C
:1041980087F82631D7F81431D3E9002302F0040355
:1041A800C7F8B0300023C7F8B430D7E92C120B4653
:1041B800134344D0D7F81431D3F89430052B25D8BD
:1041C80001A252F823F000BF1D420008E94100088F
:1041D800FF4100081D4200081D4200081D4200085A
:1041E800D7F8143108330121184601F0EFFD0346D2
:1041F80087F827310FE0D7F8143128330121184602
:1042080001F096FE034687F8273104E0012387F87A
:10421800273100E000BF97F82731002B0BD16C4BFA
:104228009B6D23F00701D7F81431D3F89430684A0E
:104238000B43936503E097F8273187F82631D7F8C1
:104248001431D3E9002302F02003C7F8A830002373
:10425800C7F8AC30D7E92A120B46134355D0D7F824
:104268001431D3F89030B3F1A04F33D0B3F1A04F4D
:104278002CD8B3F1804F2FD0B3F1804F26D8B3F1AB
:10428800405F2BD0B3F1405F20D8B3F1005F12D06C
:10429800B3F1005F1AD8002B22D0B3F1805F15D19B
:1042A800D7F8143108330021184601F08FFD034672
:1042B80087F8273115E0D7F814312833022118463A
:1042C80001F036FE034687F827310AE0012387F814
:1042D800273106E000BF04E000BF02E000BF00E0B5
:1042E80000BF97F82731002B0BD1394B5B6D23F0BA
:1042F800E041D7F81431D3F89030354A0B43536571
:1043080003E097F8273187F82631D7F81431D3E935
:10431800002302F04003C7F8A0300023C7F8A430F8
:10432800D7E928120B46134358D0D7F81431D3F8DD
:104338009C30B3F5A05F33D0B3F5A05F2CD8B3F5AC
:10434800805F2FD0B3F5805F26D8B3F5406F2BD0B0
:10435800B3F5406F20D8B3F5006F12D0B3F5006FF6
:104368001AD8002B22D0B3F5806F15D1D7F81431A5
:1043780008330021184601F029FD034687F8273144
:1043880015E0D7F8143128330221184601F0D0FD82
:10439800034687F827310AE0012387F8273106E02A
:1043A80000BF04E000BF02E000BF00E000BF97F8D4
:1043B8002731002B0ED1064B9B6D23F4E051D7F823
:1043C8001431D3F89C30024A0B43936506E000BFD2
:1043D8000044025897F8273187F82631D7F8143166
:1043E800D3E9002302F08003C7F898300023C7F808
:1043F8009C30D7E926120B46134355D0D7F8143111
:10440800D3F8A030B3F5204F33D0B3F5204F2CD8D4
:10441800B3F5004F2FD0B3F5004F26D8B3F5C04FF2
:104428002BD0B3F5C04F20D8B3F5804F12D0B3F5D9
:10443800804F1AD8002B22D0B3F5005F15D1D7F8DA
:10444800143108330021184601F0C0FC034687F8F0
:10445800273115E0D7F8143128330221184601F026
:1044680067FD034687F827310AE0012387F82731DB
:1044780006E000BF04E000BF02E000BF00E000BFAC
:1044880097F82731002B0BD1A14B9B6D23F460418A
:10449800D7F81431D3F8A0309D4A0B43936503E055
:1044A80097F8273187F82631D7F81431D3E9002354
:1044B80002F00803C7F890300023C7F89430D7E912
:1044C80024120B4613431ED0D7F81431D3F8843086
:1044D800B3F5805F0CD1D7F8143128330221184680
:1044E80001F026FD0346002B02D0012387F8263170
:1044F800874B5B6D23F44051D7F81431D3F88430DF
:10450800834A0B435365D7F81431D3E9002302F0EB
:104518001003C7F888300023C7F88C30D7E9221277
:104528000B4613431ED0D7F81431D3F89830B3F59F
:10453800807F0CD1D7F8143128330221184601F0B6
:10454800F7FC0346002B02D0012387F82631704B75
:104558009B6D23F44071D7F81431D3F898306C4A26
:104568000B439365D7F81431D3E9002302F40023F1
:10457800C7F880300023C7F88430D7E920120B46EB
:1045880013433ED0D7F81431D3F8A430B3F5003F25
:1045980022D0B3F5003F1BD8002B03D0B3F5803FE2
:1045A8000BD015E0D7F8143108330021184601F074
:1045B8000DFC034687F827310FE0D7F8143128336C
:1045C8000221184601F0B4FC034687F8273104E0BD
:1045D800012387F8273100E000BF97F82731002B27
:1045E8000BD14B4B9B6D23F44031D7F81431D3F8E2
:1045F800A430474A0B43936503E097F8273187F8BF
:104608002631D7F81431D3E9002302F48023BB679D
:104618000023FB67D7E91E120B4613433BD0D7F89C
:104628001431D3F88830B3F5401F1FD0B3F5401FBD
:1046380018D8B3F5801F03D0B3F5001F07D011E0D9
:10464800334BDB6A324A43F40033D3620FE0D7F8C6
:10465800143128330121184601F06AFC034687F813
:10466800273104E0012387F8273100E000BF97F8DD
:104678002731002B0BD1264B5B6D23F44011D7F863
:104688001431D3F88830224A0B43536503E097F876
:10469800273187F82631D7F81431D3E9002302F4FB
:1046A80080333B6700237B67D7E91C120B46134313
:1046B80034D0D7F814311B6D002B03D0B3F5803FED
:1046C80007D011E0124BDB6A114A43F40033D3627E
:1046D8000EE0D7F8143108330221184601F076FBB2
:1046E800034687F8273103E0012387F8273100BF05
:1046F80097F82731002B0DD1054BDB6C23F4803163
:10470800D7F814311B6D024A0B43D36406E000BF8F
:104718000044025897F8273187F82631D7F8143122
:10472800D3E9002302F00053BB660023FB66D7E9F8
:104738001A120B4613430CD0D7F814312833022130
:10474800184601F0F5FB0346002B02D0012387F839
:104758002631D7F81431D3E9002302F400333B663D
:1047680000237B66D7E918120B46134338D0D7F8D5
:104778001431D3F88030B3F5407F18D0B3F5407FBB
:1047880011D8B3F5007F14D0B3F5007F0BD8002BF8
:1047980011D0B3F5807F06D1C34BDB6AC24A43F41C
:1047A8000033D36208E0012387F8273104E000BF13
:1047B80002E000BF00E000BF97F82731002B0BD1C3
:1047C800B94B5B6D23F44071D7F81431D3F88030BE
:1047D800B54A0B43536503E097F8273187F826312C
:1047E800D7F81431D3E9002302F48013BB65002302
:1047F800FB65D7E916120B46134309D0AA4B1B6D6C
:1048080023F00041D7F814315B6FA74A0B431365B7
:10481800D7F81431D3E9002302F080533B65002315
:104828007B65D7E914120B4613430AD09E4B1B69CC
:1048380023F48041D7F81431D3F8B8309A4A0B439F
:104848001361D7F81431D3E9002302F40013BB64D1
:104858000023FB64D7E912120B46134309D0924B8D
:104868001B6D23F08071D7F81431DB6E8E4A0B4331
:104878001365D7F81431D3E9002302F080433B6471
:1048880000237B64D7E910120B4613430ED0864BE6
:104898001B69854A23F400431361834B1969D7F8D0
:1048A8001431D3F8BC30804A0B431361D7F8143164
:1048B800D3E9002302F00043BB630023FB63D7E97D
:1048C8000E120B46134309D0774BDB6C23F0405193
:1048D800D7F814315B6D744A0B43D364D7F814319D
:1048E800D3E9002302F400033B6300237B63D7E989
:1048F8000C120B4613430AD06B4B5B6D23F440013B
:10490800D7F81431D3F88C30674A0B435365D7F87E
:104918001431D3E900230021B96203F00103FB62DB
:10492800D7E90A120B46134311D0D7F814310833CC
:104938000021184601F04AFA034687F8273197F80C
:104948002731002B03D097F8273187F82631D7F87D
:104958001431D3E900230021396203F002037B629A
:10496800D7E908120B46134311D0D7F8143108338E
:104978000121184601F02AFA034687F8273197F8EB
:104988002731002B03D097F8273187F82631D7F83D
:104998001431D3E900230021B96103F00403FB615A
:1049A800D7E906120B46134311D0D7F81431083350
:1049B8000221184601F00AFA034687F8273197F8CA
:1049C8002731002B03D097F8273187F82631D7F8FD
:1049D8001431D3E900230021396103F008037B6116
:1049E800D7E904120B46134311D0D7F814312833F2
:1049F8000021184601F09CFA034687F8273197F8FA
:104A08002731002B03D097F8273187F82631D7F8BC
:104A18001431D3E900230021B96003F01003FB60CF
:104A2800D7E902120B46134311D0D7F814312833B3
:104A38000121184601F07CFA034687F8273197F8D8
:104A48002731002B03D097F8273187F82631D7F87C
:104A58001431D3E900230021396003F020037B607F
:104A6800D7E900120B46134311D0D7F81431283375
:104A78000221184601F05CFA034687F8273197F8B7
:104A88002731002B03D097F8273187F8263197F87C
:104A98002631002B01D1002300E00123184607F539
:104AA8009477BD46BDE8B08F0044025880B590B0F9
:104AB80000AFC7E90001D7E90023A2F580710B43D5
:104AC80040F094809E4B1B6D03F007033B633B6BE8
:104AD800042B00F2878001A252F823F0F94A00085B
:104AE800214B0008494B0008E54B0008714B0008B2
:104AF800934B1B6803F00073B3F1007F08D107F1F3
:104B08002403184601F010F8BB6AFB6300F045BDAA
:104B18000023FB6300F041BD894B1B6803F0006371
:104B2800B3F1006F08D107F11803184600F054FDDF
:104B3800BB69FB6300F031BD0023FB6300F02DBDB2
:104B48007F4B1B6803F00053B3F1005F08D107F1F6
:104B58000C03184600F094FEFB68FB6300F01DBDD3
:104B68000023FB6300F019BD754BDB6C03F0405369
:104B78007B63734B1B6803F00403042B0CD17B6B22
:104B8800002B09D16E4B1B68DB0803F003036D4A49
:104B980022FA03F3FB631FE0694B1B6803F480737D
:104BA800B3F5807F06D17B6BB3F1805F02D1664B92
:104BB800FB6311E0624B1B6803F40033B3F5003F5D
:104BC80006D17B6BB3F1005F02D1604BFB6303E05E
:104BD8000023FB6300F0E1BC00F0DFBC5C4BFB632F
:104BE80000F0DBBC0023FB6300F0D7BCD7E900234F
:104BF800A2F500710B4340F0AD80514B1B6D03F4DF
:104C0800E0733B633B6BB3F5807F56D03B6BB3F5EA
:104C1800807F00F290803B6BC02B00F088803B6B5C
:104C2800C02B00F288803B6B802B32D03B6B802BF3
:104C380000F281803B6B002B03D03B6B402B14D0E0
:104C480079E03F4B1B6803F00073B3F1007F08D194
:104C580007F12403184600F067FFBB6AFB6300F006
:104C68009CBC0023FB6300F098BC354B1B6803F029
:104C78000063B3F1006F08D107F11803184600F07C
:104C8800ABFCBB69FB6300F088BC0023FB6300F04E
:104C980084BC2B4B1B6803F00053B3F1005F08D1B1
:104CA80007F10C03184600F0EBFDFB68FB6300F00E
:104CB80074BC0023FB6300F070BC214BDB6C03F079
:104CC80040537B631E4B1B6803F00403042B0CD179
:104CD8007B6B002B09D11A4B1B68DB0803F003031D
:104CE800184A22FA03F3FB631FE0154B1B6803F411
:104CF8008073B3F5807F06D17B6BB3F1805F02D1FF
:104D0800114BFB6311E00E4B1B6803F40033B3F542
:104D1800003F06D17B6BB3F1005F02D10B4BFB6305
:104D280003E00023FB6300F038BC00F036BC084BFE
:104D3800FB6300F032BC0023FB6300F02EBC00BF15
:104D4800004402580090D00300093D00006CDC02CA
:104D58000080BB00D7E90023A2F580610B4340F037
:104D68009C809E4B9B6D03F460033B633B6BB3F5E8
:104D7800000F54D03B6BB3F5000F00F28B803B6BF8
:104D8800B3F5C00F00F083803B6BB3F5C00F00F2A2
:104D980081803B6BB3F5800F2FD03B6BB3F5800F51
:104DA80078D83B6B002B04D03B6BB3F5001F12D0B7
:104DB80070E08A4B1B6803F00073B3F1007F07D1E2
:104DC80007F12403184600F0AFFEBB6AFB63E4E377
:104DD8000023FB63E1E3814B1B6803F00063B3F13D
:104DE800006F07D107F11803184600F0F5FBBB69FF
:104DF800FB63D2E30023FB63CFE3784B1B6803F02C
:104E08000053B3F1005F07D107F10C03184600F017
:104E180037FDFB68FB63C0E30023FB63BDE36F4B17
:104E2800DB6C03F040537B636C4B1B6803F004039B
:104E3800042B0CD17B6B002B09D1684B1B68DB085A
:104E480003F00303664A22FA03F3FB631EE0634B95
:104E58001B6803F48073B3F5807F06D17B6BB3F1D5
:104E6800805F02D15F4BFB6310E05C4B1B6803F46F
:104E78000033B3F5003F06D17B6BB3F1005F02D17D
:104E8800594BFB6302E00023FB6386E385E3574B42
:104E9800FB6382E30023FB637FE3D7E90023A2F5EA
:104EA80000610B4340F0A7804C4B9B6D03F0E0631F
:104EB8003B633B6BB3F1806F55D03B6BB3F1806FB5
:104EC80000F296803B6BB3F1407F00F084803B6B2F
:104ED800B3F1407F00F28C803B6BB3F1007F30D0A0
:104EE8003B6BB3F1007F00F283803B6B002B04D057
:104EF8003B6BB3F1807F12D07AE0384B1B6803F02C
:104F08000073B3F1007F07D107F12403184600F0BE
:104F18000BFEBB6AFB6340E30023FB633DE32F4BBF
:104F28001B6803F00063B3F1006F07D107F11803A2
:104F3800184600F051FBBB69FB632EE30023FB63BB
:104F48002BE3264B1B6803F00053B3F1005F07D136
:104F580007F10C03184600F093FCFB68FB631CE3A5
:104F68000023FB6319E31D4BDB6C03F040537B63A9
:104F78001A4B1B6803F00403042B0CD17B6B002B2A
:104F880009D1164B1B68DB0803F00303144A22FA05
:104F980003F3FB631EE0114B1B6803F48073B3F546
:104FA800807F06D17B6BB3F1805F02D10D4BFB6331
:104FB80010E00A4B1B6803F40033B3F5003F06D139
:104FC8007B6BB3F1005F02D1074BFB6302E0002368
:104FD800FB63E2E2E1E2054BFB63DEE200440258D8
:104FE8000090D00300093D00006CDC020080BB008B
:104FF8000023FB63D1E2D7E90023A2F580510B43DC
:1050080040F09C80934B1B6D03F4E043BB63BB6B88
:10501800B3F5804F54D0BB6BB3F5804F00F28B8053
:10502800BB6BB3F5405F00F08380BB6BB3F5405FAB
:1050380000F28180BB6BB3F5005F2FD0BB6BB3F57B
:10504800005F78D8BB6B002B04D0BB6BB3F5805FD7
:1050580012D070E07F4B1B6803F00073B3F1007F40
:1050680007D107F12403184600F05EFDBB6AFB6315
:1050780093E20023FB6390E2764B1B6803F0006326
:10508800B3F1006F07D107F11803184600F0A4FA2E
:10509800BB69FB6381E20023FB637EE26D4B1B6807
:1050A80003F00053B3F1005F07D107F10C03184672
:1050B80000F0E6FBFB68FB636FE20023FB636CE236
:1050C800644BDB6C03F040537B63624B1B6803F05B
:1050D8000403042B0CD17B6B002B09D15D4B1B689F
:1050E800DB0803F003035C4A22FA03F3FB631EE0C8
:1050F800584B1B6803F48073B3F5807F06D17B6B34
:10510800B3F1805F02D1554BFB6310E0514B1B6834
:1051180003F40033B3F5003F06D17B6BB3F1005FB6
:1051280002D14F4BFB6302E00023FB6335E234E21C
:105138004C4BFB6331E20023FB632EE2D7E90023EB
:10514800A2F500510B4340F08F80424B1B6D03F4D6
:10515800E023BB63BB6BB3F5A02F6BD0BB6BB3F580
:10516800A02F74D8BB6BB3F5802F56D0BB6BB3F5AB
:10517800802F6CD8BB6BB3F5403F3BD0BB6BB3F50E
:10518800403F64D8BB6BB3F5003F21D0BB6BB3F590
:10519800003F5CD8BB6B002B04D0BB6BB3F5803FE2
:1051A80004D054E0FEF74CFAF863F6E1294B1B688B
:1051B80003F00063B3F1006F07D107F11803184635
:1051C80000F00AFAFB69FB63E7E10023FB63E4E113
:1051D800204B1B6803F00053B3F1005F07D107F1C0
:1051E8000C03184600F04CFB3B69FB63D5E1002338
:1051F800FB63D2E1174B1B6803F00403042B09D1AE
:10520800144B1B68DB0803F00303134A22FA03F369
:10521800FB63C2E10023FB63BFE10E4B1B6803F491
:105228008073B3F5807F02D10C4BFB63B5E100239B
:10523800FB63B2E1074B1B6803F40033B3F5003F8F
:1052480002D1074BFB63A8E10023FB63A5E1002320
:10525800FB63A2E1004402580090D00300093D001E
:10526800006CDC020080BB00D7E90023A2F5002116
:105278000B4373D19C4B9B6D03F44033BB63BB6BF7
:10528800B3F5003F2FD0BB6BB3F5003F63D8BB6BC2
:10529800002B04D0BB6BB3F5803F12D05BE0924B80
:1052A8001B6803F00063B3F1006F07D107F118031F
:1052B800184600F091F9BB69FB636EE10023FB63BC
:1052C8006BE1894B1B6803F00053B3F1005F07D112
:1052D80007F10C03184600F0D3FA7B69FB635CE125
:1052E8000023FB6359E1804BDB6C03F040537B6385
:1052F8007D4B1B6803F00403042B0CD17B6B002B44
:1053080009D1794B1B68DB0803F00303774A22FABB
:1053180003F3FB631EE0744B1B6803F48073B3F55F
:10532800807F06D17B6BB3F1805F02D1704BFB634A
:1053380010E06D4B1B6803F40033B3F5003F06D152
:105348007B6BB3F1005F02D16A4BFB6302E0002381
:10535800FB6322E121E10023FB631EE1D7E900237F
:10536800A2F580310B4333D15F4BDB6C03F4803300
:10537800BB63BB6B002B04D0BB6BB3F5803F12D073
:1053880023E0594B1B6803F00073B3F1007F07D18A
:1053980007F12403184600F0C7FBBB6AFB63FCE077
:1053A8000023FB63F9E0504B1B6803F00063B3F183
:1053B800006F07D107F11803184600F00DF93B6A92
:1053C800FB63EAE00023FB63E7E00023FB63E4E020
:1053D800D7E90023A2F580410B4340F08D80424B72
:1053E8009B6D03F0E043BB63BB6BB3F1A04F6BD085
:1053F800BB6BB3F1A04F74D8BB6BB3F1804F56D0E1
:10540800BB6BB3F1804F6CD8BB6BB3F1405F3BD043
:10541800BB6BB3F1405F64D8BB6BB3F1005F21D0C5
:10542800BB6BB3F1005F5CD8BB6B002B04D0BB6BCC
:10543800B3F1805F04D054E000F0B8F8F863ACE052
:10544800294B1B6803F00063B3F1006F07D107F124
:105458001803184600F0C0F8FB69FB639DE00023C1
:10546800FB639AE0204B1B6803F00053B3F1005F25
:1054780007D107F10C03184600F002FA3B69FB63F9
:105488008BE00023FB6388E0174B1B6803F00403E1
:10549800042B09D1144B1B68DB0803F00303134AE0
:1054A80022FA03F3FB6378E00023FB6375E00E4BFD
:1054B8001B6803F48073B3F5807F02D10C4BFB6348
:1054C8006BE00023FB6368E0074B1B6803F40033C1
:1054D800B3F5003F02D1074BFB635EE00023FB639B
:1054E8005BE00023FB6358E0004402580090D003BF
:1054F80000093D00006CDC02D7E90023A2F5004159
:105508000B4348D1274B1B6D03F04053BB63BB6B68
:10551800B3F1005F2AD0BB6BB3F1005F38D8BB6B27
:10552800002B04D0BB6BB3F1805F0DD030E01D4B76
:105538001B6803F40033B3F5003F02D11A4BFB6339
:105548002BE00023FB6328E0164B1B6803F0007375
:10555800B3F1007F07D107F12403184600F0E4FAFD
:10556800BB6AFB6319E00023FB6316E00D4B1B6865
:1055780003F00063B3F1006F07D107F11803184671
:1055880000F02AF8FB69FB6307E00023FB6304E0F3
:105598000023FB6301E00023FB63FB6B18464037E5
:1055A800BD4680BD00440258006CDC0280B500AFE7
:1055B800FEF716F80246064B1B6A1B0903F00703A1
:1055C8000449CB5C03F01F0322FA03F3184680BD9D
:1055D80000440258D48B000880B489B000AF7860CA
:1055E800A14B9B6A03F00303BB619F4B9B6A1B0B98
:1055F80003F03F037B619C4BDB6A1B0903F001034B
:105608003B61994BDB6BDB08C3F30C033A6902FB84
:1056180003F307EE903AF8EE677AC7ED037A7B69F1
:10562800002B00F01181BB69022B00F08380BB695D
:10563800022B00F2A180BB69002B03D0BB69012BB0
:1056480056D099E0884B1B6803F02003002B2DD01F
:10565800854B1B68DB0803F00303844A22FA03F333
:10566800BB60BB6807EE903AF8EE676A7B6907EEA5
:10567800903AF8EE677A86EEA77A7B4B9B6BC3F37A
:10568800080307EE903AF8EE676A97ED036ADFEDD4
:10569800785AC6EE257A76EEA77AF7EE006A77EEA4
:1056A800A67A67EE277AC7ED077A87E07B6907EE67
:1056B800903AF8EE677ADFED6F6A86EEA77A6A4B62
:1056C8009B6BC3F3080307EE903AF8EE676A97ED11
:1056D800036ADFED675AC6EE257A76EEA77AF7EE0B
:1056E800006A77EEA67A67EE277AC7ED077A65E053
:1056F8007B6907EE903AF8EE677ADFED5F6A86EE2F
:10570800A77A594B9B6BC3F3080307EE903AF8EE60
:10571800676A97ED036ADFED565AC6EE257A76EE8C
:10572800A77AF7EE006A77EEA67A67EE277AC7EDD2
:10573800077A43E07B6907EE903AF8EE677ADFED87
:105748004F6A86EEA77A484B9B6BC3F3080307EEB4
:10575800903AF8EE676A97ED036ADFED455AC6EEB0
:10576800257A76EEA77AF7EE006A77EEA67A67EEE4
:10577800277AC7ED077A21E07B6907EE903AF8EEC1
:10578800677ADFED3D6A86EEA77A374B9B6BC3F3EA
:10579800080307EE903AF8EE676A97ED036ADFEDC3
:1057A800345AC6EE257A76EEA77AF7EE006A77EED7
:1057B800A67A67EE277AC7ED077A00BF2A4B9B6B5C
:1057C8005B0A03F07F0307EE903AF8EE677AB7EECC
:1057D800007A37EE877AD7ED076AC6EE877AFCEE4D
:1057E800E77A17EE902A7B681A601F4B9B6B1B0C9D
:1057F80003F07F0307EE903AF8EE677AB7EE007A87
:1058080037EE877AD7ED076AC6EE877AFCEEE77A35
:1058180017EE902A7B685A60134B9B6B1B0E03F0A4
:105828007F0307EE903AF8EE677AB7EE007A37EE24
:10583800877AD7ED076AC6EE877AFCEEE77A17EE25
:10584800902A7B689A6008E07B6800221A607B686F
:1058580000225A607B6800229A6000BF2437BD4648
:105868005DF8047B704700BF004402580090D003E5
:10587800000000460024744C0024744A001B374C76
:1058880080B489B000AF7860A14B9B6A03F0030332
:10589800BB619F4B9B6A1B0D03F03F037B619C4BD5
:1058A800DB6A1B0A03F001033B61994B5B6CDB0865
:1058B800C3F30C033A6902FB03F307EE903AF8EEE0
:1058C800677AC7ED037A7B69002B00F01181BB6909
:1058D800022B00F08380BB69022B00F2A180BB6918
:1058E800002B03D0BB69012B56D099E0884B1B686D
:1058F80003F02003002B2DD0854B1B68DB0803F039
:105908000303844A22FA03F3BB60BB6807EE903AAC
:10591800F8EE676A7B6907EE903AF8EE677A86EEEA
:10592800A77A7B4B1B6CC3F3080307EE903AF8EE9B
:10593800676A97ED036ADFED785AC6EE257A76EE48
:10594800A77AF7EE006A77EEA67A67EE277AC7EDB0
:10595800077A87E07B6907EE903AF8EE677ADFED21
:105968006F6A86EEA77A6A4B1B6CC3F3080307EECF
:10597800903AF8EE676A97ED036ADFED675AC6EE6C
:10598800257A76EEA77AF7EE006A77EEA67A67EEC2
:10599800277AC7ED077A65E07B6907EE903AF8EE5B
:1059A800677ADFED5F6A86EEA77A594B1B6CC3F303
:1059B800080307EE903AF8EE676A97ED036ADFEDA1
:1059C800565AC6EE257A76EEA77AF7EE006A77EE93
:1059D800A67A67EE277AC7ED077A43E07B6907EE78
:1059E800903AF8EE677ADFED4F6A86EEA77A484B71
:1059F8001B6CC3F3080307EE903AF8EE676A97ED5D
:105A0800036ADFED455AC6EE257A76EEA77AF7EEF9
:105A1800006A77EEA67A67EE277AC7ED077A21E063
:105A28007B6907EE903AF8EE677ADFED3D6A86EE1D
:105A3800A77A374B1B6CC3F3080307EE903AF8EECE
:105A4800676A97ED036ADFED345AC6EE257A76EE7B
:105A5800A77AF7EE006A77EEA67A67EE277AC7ED9F
:105A6800077A00BF2A4B1B6C5B0A03F07F0307EE23
:105A7800903AF8EE677AB7EE007A37EE877AD7ED84
:105A8800076AC6EE877AFCEEE77A17EE902A7B68FB
:105A98001A601F4B1B6C1B0C03F07F0307EE903A38
:105AA800F8EE677AB7EE007A37EE877AD7ED076AAD
:105AB800C6EE877AFCEEE77A17EE902A7B685A6082
:105AC800134B1B6C1B0E03F07F0307EE903AF8EEA6
